S00B00007553442E737265630D
S11300000C944E010C946B010C946B010C946B01D9
S11300100C946B010C946B010C946B010C946B01AC
S11300200C946B010C946B010C946B010C946B019C
S11300300C946B010C946B010C946B010C946B018C
S11300400C946B010C946B010C94971D0C946B0134
S11300500C946B010C946B010C946B010C946B016C
S11300600C946B010C946B01891B8C1B8C1B901BD7
S1130070901B901B901B901B921B951B951B951B13
S1130080951BAE1BB31B667265653A202020006683
S11300906F726D61743A200077722E70722E3A205E
S11300A000636F70793A202020004D420A00736982
S11300B07A653A20202000646174653A202020008B
S11300C073657269616C3A203078007265763A2003
S11300D02020200070726F643A202020006F656D2C
S11300E03A20202020006D616E75663A2020307819
S11300F000756E6B6E6F776E20636F6D6D616E64ED
S11301003A20006572726F722073796E63696E674C
S1130110206469736B0A0073796E63006572726F91
S113012072206372656174696E67206469726563C5
S1130130746F72793A20006D6B6469722000657285
S1130140726F722077726974696E6720746F2066AB
S1130150696C650A006572726F72207365656B69FC
S11301606E67206F6E20006572726F72206F70650B
S11301706E696E672000777269746520006572721B
S11301806F72206D6F76696E672066696C653A20C0
S1130190006D7620006572726F72206372656174FF
S11301A0696E672066696C653A2000746F756368D0
S11301B020006572726F722064656C6574696E6785
S11301C02066696C653A2000726D20006572726F5A
S11301D0722072656164696E67206469736B20695B
S11301E06E666F0A006469736B006572726F7220C9
S11301F06F70656E696E67200063617420006C73B4
S1130200006469726563746F7279206E6F7420661E
S11302106F756E643A200063642000696E6974002F
S11302206F70656E696E6720726F6F742064697297
S11302306563746F7279206661696C65640A006F26
S113024070656E696E672066696C65737973746531
S11302506D206661696C65640A006F70656E696E15
S11302606720706172746974696F6E206661696C6D
S113027065640A00776F726B696E673F0A004D4DC3
S1130280432F534420696E697469616C697A61749F
S1130290696F6E206661696C65640A0011241FBE73
S11302A0CFEFD8E0DEBFCDBF11E0A0E0B1E0EEEECD
S11302B0FCE302C005900D92A031B107D9F723E009
S11302C0A0E1B1E001C01D92A83DB207E1F70E9490
S11302D0BB130C94751E0C940000FC01218130E0CA
S11302E0322F22278081A901482BCA010895FC01DD
S11302F023816281862F90E0A0E0B0E0DC019927A1
S11303008827B22B2081822B2181BC01CD01722B45
S11303100895FC01718360830895FC0173836283F3
S11303205183408308950F931F93CF93DF9300D09D
S1130330CDB7DEB7009761F16230710560F1FC0161
S1130340A081B181AB0160E070E0440F551F661FCE
S1130350771F0681178120853185CB01BA01600F93
S1130360711F821F931FED91FC9122E030E0AE01DA
S11303704F5F5F4F0995882341F089819A819C01E1
S1130380215031092F3E3F4F40F080E090E005C0FE
S113039080E090E002C080E090E00F900F90DF9149
S11303A0CF911F910F9108954F925F926F927F9218
S11303B0AF92BF92CF92DF92EF92FF920F931F936F
S11303C0CF93DF9300D0CDB7DEB75C018B010097EC
S11303D0D9F162307105D0F1DC0116964D905D9033
S11303E06D907C901997672B49F16801E12CF12CF1
S11303F0CC0CDD1CEE1CFF1CC40CD51CE61CF71C2D
S1130400D501ED91FC910190F081E02D22E030E0E6
S1130410AE014F5F5F4FC701B60109958823D1F143
S113042009811A810115110559F0C80140960897F0
S113043048F0083FBFEF1B07E0F40AC081E02AC080
S113044081E028C080E026C080E024C080E022C093
S11304501A821982D501ED91FC910480F581E02D79
S113046022E030E0AE014F5F5F4FC701B60109954E
S1130470BCCF1A821982D501ED91FC910480F581DB
S1130480E02D22E030E0AE014F5F5F4FC701B601BF
S11304900995D4CF0F900F90DF91CF911F910F91B9
S11304A0FF90EF90DF90CF90BF90AF907F906F90D0
S11304B05F904F9008952F923F924F925F926F9268
S11304C07F928F929F92AF92BF92CF92DF92EF92E0
S11304D0FF920F931F93CF93DF93CDB7DEB72E9781
S11304E00FB6F894DEBF0FBECDBF9C878B877E8787
S11304F06D876A01009709F4BFC0DC01ED91FC919E
S11305001197208131813E832D83848195819A873F
S1130510898716968D909D90AD90BC9019975A96A8
S11305200D911C915B97FD0182859385A485B5850A
S1130530B695A7959795879598878F83138E128E76
S1130540009709F46AC01C821B826894222421F853
S1130550312C240135015C014A010230110540F0BF
S11305608F8198850817190728F0022D132D02C0D2
S1130570022D132D6801E12CF12CCC0CDD1CEE1C9A
S1130580FF1CC40CD51CE61CF71C222D332DAE0118
S11305904F5F5F4FC701B601ED81FE810995882346
S11305A009F46DC089819A81892B51F581149104D4
S11305B049F453014201AB85BC855B961C930E93B1
S11305C05A972FC0EB81FC81EF2B29F42FEF3FEFDB
S11305D03A83298304C08B819C819A838983222D49
S11305E0332DAE014F5F5F4FC701B601E985FA8530
S11305F009958823C1F1F1E08F1A91081C830B83BC
S113060021E0A21AB1080F5F1F4FA114B10409F031
S1130610A4CF64015301420102C01C821B82CD2875
S113062011F58D859E8582309105D0F0AB81BC811A
S1130630BA83A983A0E0B0E0880F991FAA1FBB1F4B
S1130640BC01CD01680D791D8A1D9B1D22E030E09F
S1130650AE014F5F5F4FE985FA850995882319F04C
S11306608B819C810EC06B817C818B859C850E94D3
S1130670D40180E090E005C080E090E002C080E01A
S113068090E02E960FB6F894DEBF0FBECDBFDF917B
S1130690CF911F910F91FF90EF90DF90CF90BF907B
S11306A0AF909F908F907F906F905F904F903F900E
S11306B02F90089580E190E008950F931F93FC011B
S11306C0892B99F062307105A0F09B012250310909
S11306D0A089B1890E94F81D02891389248935896A
S11306E0600F711F821F931F07C060E070E0CB0191
S11306F003C060E070E0CB011F910F910895AC013D
S1130700FC018191455F5F4F90E8899F900111241E
S1130710982F9695922B2191892F820FE417F50734
S113072099F70895EF92FF920F931F93CF93DF935E
S1130730CDB7DEB760970FB6F894DEBF0FBECDBF5E
S113074062307105E0F08C010E945D03AE014F5FE1
S11307505F4F20E1DA011D922A95E9F7D801ED9166
S1130760FC91119750962D913C9151970680F781F9
S1130770E02DE12CF12C0AE513E0099501C080E09D
S113078060960FB6F894DEBF0FBECDBFDF91CF9158
S11307901F910F91FF90EF900895CF92DF92EF9207
S11307A0FF920F931F93CF93DF93F901C280D380FD
S11307B0C114D104B1F089017C01C0E0D0E0C701CB
S11307C08C0F9D1F0E946D01892B39F4F801408123
S11307D051814F5F5F4F518340832296CC15DD05D5
S11307E070F381E0DF91CF911F910F91FF90EF9013
S11307F0DF90CF9008954F925F926F927F92AF9265
S1130800BF92CF92DF92EF92FF920F931F93CF93F9
S1130810DF93CDB7DEB72D970FB6F894DEBF0FBECA
S1130820CDBFF901C080D18022813381205E3F4F4A
S113083033832283DC012C91253E11F0211103C066
S1130840148281E001C15601DC011B962C911B9797
S11308502F3009F040C02481222321F01D963C91C1
S1130860231771F02BE2D6011D922A95E9F7DC01DA
S11308701D962C912483F60147A350A761A772A764
S1130880DC012C912F7330E0215031094DE0429F5F
S1130890B001439F700D11242DE0E0E0F1E0DE0192
S11308A0119601900D922A95E1F76F31710508F4C4
S11308B0AEC00FC021918C01020F111DD8012C91E3
S11308C0D6012D936D01E617F70719F0E417F50724
S11308D089F781E0B9C07F012A013B018C01F6014F
S11308E08081882349F0CD010E947F03D7011496AB
S11308F09C91981709F46FC08BE2F60111928A95C6
S1130900E9F7D60197964D925D926D927C929A97F3
S1130910F8018081803219F16C2D9801295F3F4FD5
S11309206C2C7D2C04C0319680818032C9F0D301B7
S11309308D933D01D8011C969C9193FF0AC0908130
S113094091549A3130F4A30141505109805EDA0187
S11309508C93962D961BE217F30729F701C090E0BC
S1130960F6018081853011F485EE8083D8011896D4
S11309708C911897803259F181E0890F2EE2F601AB
S1130980E90FF11D2083F801389618962C91203236
S1130990D9F09C5F04C0319620812032B9F0A501C2
S11309A0480F511DDA012C93D8011C963C9134FF59
S11309B007C0308131543A3118F4205EDA012C93A7
S11309C08F5F8913E8CF03C0982F01C0982FF601D9
S11309D0E90FF11D1082F8018385D60190968C935E
S11309E0C8014A960E946D01F60192A381A3C80131
S11309F04C960E947701D60193966D937D938D93C7
S1130A009C93969781E0F701858380E01DC029813E
S1130A10FC01E20FF11D2081F601E60FF71F208390
S1130A20FE013296DB011196CA0EDB1E4FE150E047
S1130A30461B570B01E010E00C0F1D1F400F511F08
S1130A40BE01625F7F4F42CF2D960FB6F894DEBF92
S1130A500FBECDBFDF91CF911F910F91FF90EF900B
S1130A60DF90CF90BF90AF907F906F905F904F904A
S1130A7008953F924F925F926F927F928F929F92CE
S1130A80AF92BF92CF92DF92EF92FF920F931F9398
S1130A90CF93DF9300D000D01F92CDB7DEB7FC0117
S1130AA07B01892B09F4BCC04115510509F4BDC073
S1130AB0DA010D900020E9F79D01241B350B255F19
S1130AC03F4FA5ECBEE40E94F81D96958795969538
S1130AD0879501E0080FD70193960D90BC91A02D46
S1130AE0BD83AC83AB2B49F446885788608C718CEA
S1130AF082889388A488B58806C0812C912C5401DF
S1130B00412C512C3201FB83EA837301620110E012
S1130B10312CC814D904EA04FB0409F04DC0EC815B
S1130B20FD81309709F472C0CD28CE28CF2869F111
S1130B30BF018A819B810E949301009721F541E0C6
S1130B4050E06C817D818A819B810E945B02AC01B3
S1130B50009709F45BC09C0122503109EA81FB81B2
S1130B60A089B1890E94F81D0289138924893589D5
S1130B702B013C01400E511E621E731EBA01CF01AF
S1130B800E94920348C09D838C836C817D818A81FD
S1130B909B810E945D032B013C01AA81BB8150967D
S1130BA08D919C91519753014201880E991EA11C6D
S1130BB0B11C73016201132DAA81BB81ED91FC91DB
S1130BC00190F081E02D21E030E0AE014F5F5F4FF6
S1130BD0C701B60109958823C9F08981853E11F0C2
S1130BE0811109C01F5F1017B0F4B0E2CB0ED11C05
S1130BF0E11CF11C8ECF26013701E0E24E0E511CA0
S1130C00611C711C73016201132D83CF60E070E0DD
S1130C1080E090E00EC0642D752D862D972D09C0BF
S1130C2060E070E080E090E004C060E070E080E0AC
S1130C3090E00F900F900F900F900F90DF91CF9155
S1130C401F910F91FF90EF90DF90CF90BF90AF90E6
S1130C509F908F907F906F905F904F903F900895FA
S1130C602F923F924F925F926F927F928F929F92B8
S1130C70AF92BF92CF92DF92EF92FF920F931F93A6
S1130C80CF93DF93CDB7DEB7A1970FB6F894DEBF4D
S1130C900FBECDBF009709F42CC16115710509F48D
S1130CA02AC18B01FC010190F081E02DC480D58024
S1130CB0DB0197964D905D906D907C909A975B01C7
S1130CC0FB0101900020E9F731977F01E61AF70A4A
S1130CD08E2CC70199270C966DE070E00E94BC1D14
S1130CE0962E4BE050E060E270E0CE0101960E9447
S1130CF0321E6EE270E0C8010E946A1E0097D1F0B5
S1130D00FC0121812223B1F0BC016F5F7F4FFB0105
S1130D1001900020E9F73197E61BF70BEA948E2C3B
S1130D208E1AE43008F0E3E04E2F50E0CE0109962D
S1130D300E94291EF8E0F815D0F0482D50E0B801C3
S1130D40CE0101960E94291ED8018C918E3261F544
S1130D5011968C9111978E3231F412968C918111E7
S1130D6023C0912C21C081111FC0912C1DC088E08B
S1130D70F801DE01119601900D928A95E1F7F801D0
S1130D8081A1803A28F4982F92959F70905D04C0B9
S1130D90982F92959F709F599F838F708A3010F47B
S1130DA0805D01C08F5988878981853E11F485E073
S1130DB08983FE013C9685E1DF011D928A95E9F75E
S1130DC0F80180A18C8761A172A1CE014B960E948B
S1130DD08901D80193964D915D916D917C9196977F
S1130DE0CE014D960E948D01B0E29B9EC00111245C
S1130DF0A3019201280F391F411D511DCA01B901D8
S1130E0020E230E0AE014F5F5F4FF6010995882381
S1130E1009F47AC0CE0101960E947F03282E9920FE
S1130E2009F46BC0192D0F2EFDE03F2EF02D882400
S1130E3083940F2EFEE0FF2EF02D0CE1F92DF064CB
S1130E40F9A30F2EFFE0EF2EF02D40E250E06FEFFC
S1130E5070E0CE0101960E94321E812F90E001972E
S1130E60389EF001399EF00D1124EA0DFB1DBF01DF
S1130E70882D01C0319691E0980FDB014D91BD01A1
S1130E8021E030E02C0F3D1F280F311DD9014C9378
S1130E908E5F21E030E02C0F3D1F290F311DD90159
S1130EA01C928B3061F18A3111F4802F29C090811A
S1130EB0992311F08F31F0F21983191102C0B9A1ED
S1130EC0B983EC862E861D861B8E1C8E20E230E0B4
S1130ED0AE014F5F5F4FC301B201F6010995F0E225
S1130EE04F0E511C611C711C115009F0AECF81E0F2
S1130EF00BC080E009C080E007C081E005C08F2DF1
S1130F0090819111B7CFD8CFA1960FB6F894DEBFD8
S1130F100FBECDBFDF91CF911F910F91FF90EF9046
S1130F20DF90CF90BF90AF909F908F907F906F9005
S1130F305F904F903F902F9008952F923F924F9241
S1130F405F926F927F928F929F92AF92BF92CF9255
S1130F50DF92EF92FF920F931F93CF93DF93CDB75E
S1130F60DEB7A8970FB6F894DEBF0FBECDBF0097CB
S1130F7009F437C1DC0114962D913C911597232B6C
S1130F8009F432C116962D913C911797232B09F43D
S1130F902EC12091A5013091A601232B09F42AC169
S1130FA080E090E056C1CE0101960E946D011C01C3
S1130FB0CE0104960E946D019B8F8A8FBB81BEA3D4
S1130FC0EE81EE8FCE0107960E946D0198A78FA344
S1130FD0CE0109960E946D017C01CE010C960E94FF
S1130FE06D016C01CE0146960E9477012B013C01F4
S1130FF0672B682B692B39F4E114F10409F423C13C
S11310002701612C712CC114D10409F41CC14A8D2F
S11310105B8D9A0140E050E02A8F3B8F4C8F5D8FAF
S113102096015E8DA52FB0E00E94F81D6E8F7F8F14
S113103088A399A3730162018A8D9B8DAC8DBD8DAC
S1131040C81AD90AEA0AFB0A2E8D3F8D48A159A174
S1131050C21AD30AE40AF50A8FA198A5880F991F2A
S113106082959295907F9827807F982791012150AF
S11310703109820F931FB1010E94A81DA701960197
S1131080261B370B41095109CA01B9013EA1C32EE0
S1131090D12CE12CF12CA70196010E94D01D6901ED
S11310A07A0145EFC4164FE0D406E104F10408F4D4
S11310B0CAC055EFC5165FEFD506E104F10428F464
S11310C086E0D80118968C9303C08BE0F8018087E2
S11310D088E1E7EAF1E0DF011D928A95E9F79101E1
S11310E040E050E02AA33BA34CA35DA3E5EAF1E072
S11310F0A30192016AA17BA18CA19DA10E94981DCC
S113110062837383848395832AA13BA14CA15DA14F
S11311106A8D7B8D8C8D9D8D0E94981D860E971EE9
S1131120A81EB91E86829782A086B186C701B60121
S11311306E5F7F4F8F4F9F4FD80118962C912630AA
S113114029F024E030E040E050E004C022E030E048
S113115040E050E0E5EAF1E00E94981D6287738761
S11311608487958737862686BEA1B29DC001B39D2C
S1131170900D1124918B808B2E8D3F8D48A159A108
S11311806AA17BA18CA19DA10E94981D860E971E29
S1131190A81EB91E868A978AA08EB18E2FA138A563
S11311A0C901A0E0B0E0880F991FAA1FBB1F880FD8
S11311B0991FAA1FBB1F880F991FAA1FBB1F880F47
S11311C0991FAA1FBB1F880F991FAA1FBB1F880E38
S11311D0991EAA1EBB1E828A938AA48AB58ACF014D
S11311E038C080E090E035C080E090E032C080E01C
S11311F090E02FC08C01E5EAF1E08CE1DF011D9263
S11312008A95E9F711830083F80181849284A38489
S1131210B484072E79E0880C991CAA1CBB1C7A950F
S1131220D1F7702DC501B401655F7F4F8F4F9F4F7C
S11312300190F081E02D29E130E0AE014F5F5F4F76
S113124009958111B0CE1092A6011092A50180E0FB
S113125090E0A8960FB6F894DEBF0FBECDBFDF9125
S1131260CF911F910F91FF90EF90DF90CF90BF909F
S1131270AF909F908F907F906F905F904F903F9032
S11312802F900895009719F0FC011182108208959F
S1131290009789F06115710589F0DB0190962C9116
S11312A024FD0FC02091720130917301232B61F052
S11312B080E090E0089580E090E0089580E090E080
S11312C0089580E090E008952BE2FB01A4E7B1E0EB
S11312D001900D922A95E1F7E2E7F1E09183808392
S11312E015A616A617A610AADB0191968D919C91BE
S11312F0929792AB81ABCF010895009719F0FC014E
S11313001182108208952F923F924F925F926F92B2
S11313107F928F929F92AF92BF92CF92DF92EF9281
S1131320FF920F931F93CF93DF93CDB7DEB7289728
S11313300FB6F894DEBF0FBECDBF8C013B011A017E
S1131340009709F4DDC0672B09F4DDC0452B09F4CF
S1131350DDC0DC019D96CD90DD90ED90FC90D097A2
S113136095968D919D910D90BC91A02DB701A601EC
S1131370420D531D611D711D84179507A607B707FC
S113138028F41C012C183D0809F4C3C0D801ED91C0
S1131390FC91119740885188D1968D909C90D2975A
S11313A08114910409F04BC093968D909C9094976E
S11313B08114910461F481E090E0CD28CE28CF28F7
S11313C011F480E090E0919581959109A7C0C11432
S11313D0D104E104F104D9F432C029813A814B816A
S11313E05C818D819E81AF81B885281B390B4A0BA6
S11313F05B0B29833A834B835C83B401D8018D91C1
S11314009C910E9493014C01892B61F485C0C9828F
S1131410DA82EB82FC82920140E050E02D833E832D
S11314204F83588789819A81AB81BC812D813E810C
S11314304F81588582179307A407B50770F6C20138
S11314400197C822D9227101D801AD90BC90B40192
S1131450C5010E945D03F201EC19FD09FA83E983D9
S1131460EE16FF0610F4FA82E982D501ED91FC91A3
S11314706C0D7D1D811D911D0190F081E02D298150
S11314803A81A3010995811104C0C1018E199F09F4
S113149045C0E981FA816E0E7F1EEE1AFF0AF8013B
S11314A085A596A5A7A5B0A929813A81820F931F86
S11314B0A11DB11D85A796A7A7A7B0ABC9018C0D27
S11314C09D1D8415950598F0B401808191810E9439
S11314D093014C01892B49F4D801D2961C921E9297
S11314E0D197C1018E199F0919C0C12CD12CF801C3
S11314F092AA81AAE114F10409F0A6CFC1010EC099
S11315008FEF9FEF0BC08FEF9FEF08C08FEF9FEF20
S113151005C080E090E002C08FEF9FEF28960FB6E1
S1131520F894DEBF0FBECDBFDF91CF911F910F9115
S1131530FF90EF90DF90CF90BF90AF909F908F90EF
S11315407F906F905F904F903F902F9008952F92CF
S11315503F924F925F926F927F928F929F92AF923F
S1131560BF92CF92DF92EF92FF920F931F93CF938C
S1131570DF9300D000D000D0CDB7DEB78C013B01A3
S11315801A01009709F417C1672B09F417C1452BF9
S113159009F417C1FC0185A596A5A7A5B0A945A185
S11315A056A167A170A5481759076A077B0708F475
S11315B00BC1E080F180F70140885188F80101A84F
S11315C0F2A9E02DFA83E9836201F1E0CF1AD10890
S11315D0C822D92229813A81232B09F05FC0F8015E
S11315E003A0F4A1E02DFA83E983EF2BB1F4892B56
S11315F08A2B8B2B09F0EBC041E050E060E070E0F7
S1131600C7010E945B029A838983D80194969C93B4
S11316108E939397892B09F4DDC0F80185A496A4D1
S1131620A7A4B0A881149104A104B10439F536C06B
S11316308B819C81AD81BE81881A990AAA0ABB0A52
S113164069817A81D8018D919C910E9493010097C0
S113165091F481149104A104B10409F0BEC041E0E5
S113166050E069817A81F801808191810E945B0256
S1131670009709F4B5C09A83898307C0C201A0E02A
S1131680B0E08B839C83AD83BE838B819C81AD81D1
S1131690BE8188169906AA06BB0650F67101D801C8
S11316A0AD90BC9069817A81C5010E945D034201BD
S11316B08C189D08E814F90408F44701D501ED914C
S11316C0FC916C0D7D1D811D911D0480F581E02D23
S11316D09401A3010995882309F442C0680C791C7C
S11316E0E818F908F80185A596A5A7A5B0A9880D5D
S11316F0991DA11DB11D85A796A7A7A7B0AB8C0CFA
S11317009D1C8414950408F169817A8180819181FA
S11317100E9493010097A9F4E114F10471F041E0EF
S113172050E069817A81D8018D919C910E945B027D
S11317309A838983892B09F056C0F80112AA11AA49
S11317400FC09A838983C12CD12CE981FA81D801F5
S1131750D296FC93EE93D197E114F10409F09FCF54
S1131760F80185A596A5A7A5B0A985A096A0A7A0D0
S1131770B0A488169906AA06BB06C8F485A396A346
S1131780A7A3B0A7B8016E5F7F4F808191810E94AB
S1131790300681110CC0D8019D96ED90FC909E9767
S11317A0E818F908F80185A696A6A7A6B0AAC1016B
S11317B08E199F0922C08FEF9FEF1FC08FEF9FEFFD
S11317C01CC08FEF9FEF19C08FEF9FEF16C08FEFF4
S11317D09FEF13C080E090E010C08FEF9FEF0DC02B
S11317E080E090E00AC0E981FA81D801D296FC93A6
S11317F0EE93D197C12CD12C52CF26960FB6F894E4
S1131800DEBF0FBECDBFDF91CF911F910F91FF902F
S1131810EF90DF90CF90BF90AF909F908F907F908C
S11318206F905F904F903F902F9008952F923F922A
S11318304F925F926F927F928F929F92AF92BF92DC
S1131840CF92DF92EF92FF920F931F93CF93DF9388
S113185000D000D000D0CDB7DEB7009709F4D8C0CF
S11318604B835C836D837E835C01DC0193968D9056
S11318709C909497ED91FC91408851888114910437
S113188009F004C1452B462B472B09F4ABC0EFC02C
S1131890CB80DC80ED80FE80B401F50180819181F4
S11318A00E9493018C01009759F0C418D508E608EA
S11318B0F7084C014C145D046E047F0468F32CC0DB
S11318C04C145D046E047F0428F08401892809F413
S11318D0A7C022C0D301C2010197A109B109BC016B
S11318E0CD016C0D7D1D8E1D9F1DA30192010E94D3
S11318F0D01DA901B401D5018D919C910E945B0278
S11319008C01892B09F486C08114910421F4F5011A
S113191014A303A301C084012B813C814D815E810A
S1131920D50195962D933D934D935C939897232BD6
S1131930242B252B09F090C094961C921E92939709
S1131940B5016E5F7F4F8D919C910E943006882374
S113195009F4ACC0B801F501808191810E94D401E1
S113196041C04C145D046E047F04E0F1D501ED9098
S1131970FC90E114F104B1F10230110598F1B801C1
S1131980C7010E9493016C018FEF9FEF9A838983B3
S1131990F70140815181C801A0E0B0E08C019D01B4
S11319A0000F111F221F331F86819781A085B185E7
S11319B0BC01CD01600F711F821F931FDA011496C1
S11319C0ED91FC91159722E030E0AE014F5F5F4F3F
S11319D00995882339F0C114D10421F0B601C70157
S11319E00E94D401F50185A596A5A7A5B0A92B81D0
S11319F03C814D815E81281739074A075B0760F4F3
S1131A0025A736A747A750AB12AA11AA81E04EC05A
S1131A1080E04CC080E04AC081E048C080E046C01D
S1131A20D301C2010197A109B109BC01CD016C0D1B
S1131A307D1D8E1D9F1DA30192010E94D01DA90131
S1131A4060E070E0F501808191810E945B028C016D
S1131A50892B09F05CCFE2CFB5016E5F7F4FD501D2
S1131A608D919C910E94300681117BCF1FC0612C07
S1131A70712C2B813C814D815E8142165306640694
S1131A80750608F405CF69017A01CACF612C712C5F
S1131A908B819C81AD81BE81481659066A067B06FE
S1131AA008F4F6CE6C017D01840136CF26960FB67C
S1131AB0F894DEBF0FBECDBFDF91CF911F910F9180
S1131AC0FF90EF90DF90CF90BF90AF909F908F905A
S1131AD07F906F905F904F903F902F900895CF929A
S1131AE0DF92EF92FF920F931F93CF93DF930097B0
S1131AF009F44CC06115710509F44AC0FC0105A53F
S1131B0016A527A530A9413051F018F0423089F0CC
S1131B1041C0FB01C080D180E280F38018C0FB018A
S1131B20C080D180E280F380C00ED11EE21EF31E7D
S1131B300EC0FB01C080D180E280F380FC0105A1CE
S1131B4016A127A130A5C00ED11EE21EF31E8B01E3
S1131B50EC018DA19EA1AFA1B8A58C159D05AE0584
S1131B60BF0538F4B701A601CE010E94160C8823E4
S1131B7091F0CDA6DEA6EFA6F8AA1AAA19AAF80132
S1131B80C082D182E282F38281E005C080E003C09A
S1131B9080E001C080E0DF91CF911F910F91FF9011
S1131BA0EF90DF90CF900895CF93DF930097B1F03B
S1131BB061157105B1F0FB0120A124FF15C020912E
S1131BC0100130911101232B91F0209141013091AA
S1131BD04201232B79F080E090E021C080E090E086
S1131BE01EC080E090E01BC080E090E018C0C0E11F
S1131BF0D1E002C0C1E4D1E0DE0112962BE2FB0188
S1131C0001900D922A95E1F799838883FB0181A1C4
S1131C1092A19EA78DA718AA1FA68C2F9D2FDF9196
S1131C20CF910895009719F0FC0111821082089554
S1131C30FC01892B41F083A194A196A785A710AA42
S1131C4017A681E0089580E008952F923F924F9265
S1131C505F926F927F928F929F92AF92BF92CF9238
S1131C60DF92EF92FF920F931F93CF93DF93CDB741
S1131C70DEB7A6970FB6F894DEBF0FBECDBF0097B0
S1131C8009F494C06115710509F492C01C01FC01AA
S1131C9040805180F20180889188FC0165A476A47B
S1131CA0A7A4B0A8A814B90420F00E94180E10E04C
S1131CB080C09E012F5F3F4F86E0F90111928A9503
S1131CC0E9F78BE2FB0111928A95E9F77A8369833C
S1131CD06114710409F05BC0D20152968D909C90FE
S1131CE0539756968D919C915797881A990A4FC08D
S1131CF084010A191B096501E12CF12C611471049A
S1131D0061F4F20186899789A08DB18DBC01CD0162
S1131D106C0D7D1D8E1D9F1D08C0B301C2010E9464
S1131D205D036C0D7D1D8E1D9F1D1C821B82D201C7
S1131D30ED91FC910280F381E02D9E012F5F3F4FD6
S1131D4069010F2EFBEFEF2EF3E0FF2EF02D20E2C2
S1131D5030E0AE01495F5F4F0995182F882349F1A0
S1131D608B819C81A80EB91EA814B90480F0B3011C
S1131D70C2010E9493013C01892B39F41E81111187
S1131D800AC0C1010E94180E14C0A12CB12C8E816E
S1131D90882309F4ADCFD1019E967C926E929D97D3
S1131DA0D096BC92AE929F971E8103C010E001C0F2
S1131DB010E0812FA6960FB6F894DEBF0FBECDBFFC
S1131DC0DF91CF911F910F91FF90EF90DF90CF9013
S1131DD0BF90AF909F908F907F906F905F904F9047
S1131DE03F902F9008954F925F926F927F928F92BF
S1131DF09F92AF92BF92CF92DF92EF92FF920F9396
S1131E001F93CF93DF934C016B01EA01892B09F4F3
S1131E1076C06115710509F474C0FB0180818823C3
S1131E2009F471C0209709F470C08F3219F4FFEFE0
S1131E30CF1ADF0A8BE2FE0111928A95E9F780E15D
S1131E4088A3F6018081882309F461C0412C512CB8
S1131E50BE01C4010E94D40D8C01892B09F459C020
S1131E606FE270E0C6010E94391E009741F0E82E2F
S1131E70EC185C01FFEFAF1ABF0AF12C2DC0F6017C
S1131E8001900020E9F73197EC19FD09EE2E560177
S1131E90AE0EB11CF2CFFE0101900020E9F731979C
S1131EA03F016C1A7D0A6E147F04B1F4A301BE01D4
S1131EB0C6010E944D1E892B79F4C8010E94120E9E
S1131EC0F601E60DF71D8081882329F198A1892F59
S1131ED0807194FD08C020C0BE01C8010E94250E77
S1131EE08111D9CF03C06501042D152DC8010E94AD
S1131EF0120EF60180818111ABCF81E00DC080E02C
S1131F000BC080E009C080E007C080E005C081E02C
S1131F1003C080E001C081E0DF91CF911F910F9158
S1131F20FF90EF90DF90CF90BF90AF909F908F90F5
S1131F307F906F905F904F900895AF92BF92CF9231
S1131F40DF92EF92FF921F93CF93DF93009709F4F0
S1131F5044C06115710509F442C0FB0120812223AC
S1131F6009F43FC0EA017B016C012097E1F1BE0155
S1131F70C6010E94250E182F882359F0BE01C701FF
S1131F800E94441E892B99F7C6010E94180E12E084
S1131F902BC0F601A080B1808BE2FE0111928A95DC
S1131FA0E9F74FE150E0B701CE010E945B1EAE019C
S1131FB0B601C5010E9439056FA378A789A79AA71E
S1131FC0672B682B692B81F0BE01C5010E94300686
S1131FD011E0811109C010E007C010E005C010E055
S1131FE003C010E001C010E0812FDF91CF911F9159
S1131FF0FF90EF90DF90CF90BF90AF9008959F92A5
S1132000AF92BF92CF92DF92EF92FF920F931F9302
S1132010CF93DF93CDB7DEB72C970FB6F894DEBF1E
S11320200FBECDBF009709F452C06115710509F4C4
S113203050C0DB019796CD90DD90ED90FC909A977F
S1132040C114D104E104F10409F445C05B018C011D
S11320500F2EF5EE9F2EF02DD801ED91FC910190FD
S1132060F081E02D2CE030E0AE014F5F5F4FC701FF
S1132070B6010995882381F19982D801ED91FC91EB
S11320800480F581E02D2CE030E0AE014F5F5F4F1E
S1132090C701B60109958823F9F08C858F3031F496
S11320A0B0E2CB0ED11CE11CF11CD6CFF50161A12D
S11320B072A16115710549F0C8010E94D40191E033
S11320C0811101C090E0892F07C081E005C080E044
S11320D003C080E001C080E02C960FB6F894DEBF08
S11320E00FBECDBFDF91CF911F910F91FF90EF9065
S11320F0DF90CF90BF90AF909F900895CF92DF92E2
S1132100EF92FF921F93CF93DF93CDB7DEB7AB97D8
S11321100FB6F894DEBF0FBECDBF7B01FA01009766
S113212009F450C0672B09F44FC0309709F44EC02E
S11321302115310509F452C0D9014C91411154C003
S113214047C09701AE014F5F5F4FB901CF010E94B5
S11321509D0F182F882309F44DC0F70180A189A38E
S113216081A192A19BA38AA383A194A1A5A1B6A1B5
S11321708CA39DA3AEA3BFA3BE016F5F7F4FC60117
S11321800E943006182F811107C0BE016F5F7F4F78
S1132190C6010E94FF0F2EC0D70192961C921E9278
S11321A09197B701C6010E94FF0F182F882311F1E0
S11321B08BE2FE013196D70101900D928A95E1F7E9
S11321C011E018C010E016C010E014C010E012C0F6
S11321D010E010C010E00EC010E00CC0C080D18030
S11321E0C816D906B9F7ADCFC080D180C816D906B4
S11321F099F7A8CF812FAB960FB6F894DEBF0FBE28
S1132200CDBFDF91CF911F91FF90EF90DF90CF90E2
S113221008954F925F926F927F928F929F92AF92A6
S1132220BF92CF92DF92EF92FF920F931F93CF93BF
S1132230DF93009709F4A6C06115710509F4A4C0E1
S1132240FB012081222309F4A1C0EA016B017C0176
S1132250209761F49DC0BE01C6010E94441E892BD3
S113226029F4C7010E94180E10E095C0BE01C701F1
S11322700E94250E182F8111EECFF701A080B180A6
S113228041E050E060E070E0C5010E945B024C0157
S1132290009709F480C0BC01C5010E9492038BE23F
S11322A0FE0111928A95E9F780E188A3F501A089DE
S11322B0B1899401225031090E94F81D4288538843
S11322C064887588DC01CB01840D951DA61DB71D9E
S11322D08FA398A7A9A7BAA78EE288839AA289A2F6
S11322E0BE01C5010E943006082F811106C0B40149
S11322F0C5010E94D401102F4EC08FA198A5A9A595
S1132300BAA58096A11DB11D8FA398A7A9A7BAA7A6
S11323108EE28983F70183A194A19AA389A3BE01C4
S1132320C5010E943006082F811106C0B401C50101
S11323300E94D401102F2FC04FE150E0B601CE010E
S11323400E945B1E9AA289A2AE01B701C5010E9438
S113235039056FA378A789A79AA7672B682B692BE0
S113236029F4B401C5010E94D40115C0BE01C50100
S11323700E943006182F81110DC0B401C5010E94BE
S1132380D40109C010E007C010E005C010E003C08C
S113239010E001C011E0812FDF91CF911F910F91C7
S11323A0FF90EF90DF90CF90BF90AF909F908F9071
S11323B07F906F905F904F9008950097A1F0FC017B
S11323C042855385648575857695679557954795B8
S11323D09A01AB012250310941095109A089B189FF
S11323E00E94071E089560E070E0CB0108952F92CB
S11323F03F924F925F926F927F928F929F92AF9291
S1132400BF92CF92DF92EF92FF920F931F93CF93DD
S1132410DF93CDB7DEB7A6970FB6F894DEBF0FBE35
S1132420CDBF009709F45CC09EA38DA31AA219A284
S113243080E290E09CA38BA3ADA1BEA116968D90E3
S11324409D90AD90BC9019971A964D905D906D90AB
S11324507C901D974114510461047104B1F1BEEFE5
S11324604B16BFEF5B066104710410F4120106C041
S11324700F2EFEEF2F2EF02D33243A94ADA1BEA1E2
S1132480ED91FC910280F381E02DCE0181966C01E7
S11324900F2EFDECEF2EF3E0FF2EF02D810120E254
S11324A030E0AE014F5F5F4FC501B4010995882349
S11324B0D9F0C101A0E0B0E0880E991EAA1EBB1E8F
S11324C0481A590A6A0A7B0A51F6ADA1BEA1509670
S11324D02D913C915197A9A1BAA10E94F81D07C062
S11324E060E070E0CB0103C060E070E0CB01A69631
S11324F00FB6F894DEBF0FBECDBFDF91CF911F9111
S11325000F91FF90EF90DF90CF90BF90AF909F908E
S11325108F907F906F905F904F903F902F90089591
S11325200F931F93CF93DF93CDB7DEB769970FB6A1
S1132530F894DEBF0FBECDBF009709F4A8C08C018C
S1132540CE0101960E944A1B882309F4A1C086EE9D
S113255090E00E946C1D89810E947D1C8AE00E948B
S11325606D1C8DED90E00E946C1DCE0102960E94C0
S11325705D1D8AE00E946D1C84ED90E00E946C1D3C
S1132580CE0105960E945D1D8AE00E946D1C8BECB5
S113259090E00E946C1D8B850E947D1C8AE00E9445
S11325A06D1C80EC90E00E946C1D6C857D858E8591
S11325B09F850E94A41C8AE00E946D1C87EB90E01A
S11325C00E946C1D898990E00E94B51C8FE20E94D4
S11325D06D1C888990E00E94B51C8AE00E946D1CE5
S11325E08EEA90E00E946C1D8A899B89AC89BD8922
S11325F0BC01CD01052E54E1969587957795679595
S11326005A95D1F7502D0E94F81C8AEA90E00E9456
S11326106C1D81EA90E00E946C1D8E8990E00E94FE
S1132620B51C8AE00E946D1C88E990E00E946C1D34
S1132630888D90E00E94B51C8FE20E946D1C8F89EA
S113264090E00E94B51C8AE00E946D1C8FE890E027
S11326500E946C1D898D90E00E94B51C8AE00E9446
S11326606D1C86E890E00E946C1DC8010E94F71161
S11326700E94F81C8FE20E946D1CC8010E94DD11AB
S11326800E94F81C8AE00E946D1C81E001C080E079
S113269069960FB6F894DEBF0FBECDBFDF91CF9120
S11326A01F910F910895EF92FF920F931F93CF9371
S11326B0DF938B017A01E9010BC0B701CE010E94BF
S11326C0441E892B29F4C8010E94180E81E006C01B
S11326D0BE01C8010E94250E8111EFCFDF91CF9179
S11326E01F910F91FF90EF900895EF92FF920F9337
S11326F01F93CF93DF937C01062F462F50E060E0B9
S113270070E00E94321ED0E010E00150110926C092
S11327100E947E1DC82F883011F08F3789F4DD2385
S1132720E9F0D150F701ED0FF11D108288E00E940D
S11327306D1C80E20E946D1C88E00E946D1C0EC01E
S11327400E946D1CCA3029F4F701ED0FF11D1082AF
S11327500AC0F701ED0FF11DC083DF5F2D2F30E0BC
S113276020173107ACF28D2FDF91CF911F910F917C
S1132770FF90EF900895CF93DF93CDB7DEB7C158A4
S1132780D1090FB6F894DEBF0FBECDBF83B7817FEA
S113279083BF0E94611CCE01895A9F4FE1969FAF6F
S11327A08EAFE197FE0131966F0187E590E08C0FC3
S11327B09D1F0696EB969FAF8EAFEB97E7E5F0E093
S11327C0EC0FFD1F3796C158DF4FF983E883CF57CD
S11327D0D04087E590E08C0F9D1F0396E9969FAF4C
S11327E08EAFE997BC2C2D2C0E944D19811105C088
S11327F08EE792E00E946C1DF7CF84E792E00E947E
S11328006C1D00E026EE3AE144E35AE16AED79E119
S11328108AE998E10E948617E7969FAF8EAFE79703
S1132820892BB1F40FEF26EE3AE144E35AE16AED65
S113283079E18AE998E10E948617E7969FAF8EAF07
S1132840E797892B29F48AE592E00E946C1DCCCF8E
S1132850E7968EAD9FADE7970E949D07E3969FAFE5
S11328608EAFE397892B29F48FE392E00E946C1DCD
S1132870BBCFAE01445D5F4F6DE071E0E3968EAD7A
S11328809FADE3970E94F30EBE01645D7F4FE39614
S11328908EAD9FADE3970E94D40DE5969FAF8EAFAA
S11328A0E597892B29F480E292E00E946C1D9CCF6D
S11328B0E3968EAD9FADE3970E949012E0969FAC95
S11328C0E097E196AFACE1970F2EF3E23F2EF02DA7
S11328D0E7E5F0E0EC0FFD1F3496ED96FFAFEEAFA9
S11328E0ED978EE30E946D1C80E20E946D1C68E1EE
S11328F0892D9A2D0E947513882399F36BE172E058
S1132900892D9A2D0E94121E892B09F4BAC243E024
S113291050E067E172E0892D9A2D0E941B1E892BDD
S1132920D9F56B968FAD6B978823D9F22B2D322D69
S1132930E9964EAD5FADE997E5966EAD7FADE5974F
S1132940E3968EAD9FADE3970E9453138823B1F0B5
S11329506B2D722DE3968EAD9FADE3970E94D40D3F
S11329608C01892B59F0E5968EAD9FADE5970E94B9
S1132970120EE5961FAF0EAFE597B3CF81E092E05C
S11329800E946C1DE9968EAD9FADE9970E945D1D76
S11329908AE00E946D1CA5CF6EEF71E0892D9A2DFF
S11329A00E94121E892B61F137C0F60101900020AC
S11329B0E9F731978F010C191D09802E8B2D922D6B
S11329C00E945D1D89A184FD02C080E201C08FE2E6
S11329D00E946D1C132D101BF4E28F1639F080E257
S11329E00E946D1C812F11508111F9CF6CA17DA122
S11329F08EA19FA10E94F81C8AE00E946D1C04C055
S1132A00E596EEACFFACE5976B2D722DC7010E94E5
S1132A10250E8111CACF65CF44E050E069EF71E023
S1132A20892D9A2D0E941B1E892B09F077C06C9664
S1132A308FAD6C97882309F454CF2B2D322DED964E
S1132A404EAD5FADED97E5966EAD7FADE597E39640
S1132A508EAD9FADE3970E945313882371F06B2DC5
S1132A60722DE3968EAD9FADE3970E944809EF96D1
S1132A709FAF8EAFEF97892B69F58AEE91E00E94A4
S1132A806C1DED968EAD9FADED970E945D1D8AE0A5
S1132A900E946D1C26CFC301B2010E94A41C8AE3CC
S1132AA00E946D1C0B2D122DEC0CFD1C80E20E946B
S1132AB06D1CF80181918F010E947D1C0E151F056C
S1132AC0A9F78AE00E946D1CF8E04F0E511C611CAE
S1132AD0711C0DC0412C512C612C712CCF57DF4F30
S1132AE09882C158D040EF968EAC9FACEF9748E0E7
S1132AF050E06B2D722DC4010E9483097C011816CD
S1132B0019064CF2CF57DF4F9880C158D040EF964A
S1132B108EAD9FADEF970E947D09E3CE65EE71E027
S1132B20892D9A2D0E94121E892B69F4E3968EAD8D
S1132B309FADE3970E9490128111D3CE8CEC91E06B
S1132B400E946C1DCECE43E050E068EC71E0892D0C
S1132B509A2D0E941B1E892B81F56B968FAD6B9766
S1132B60882309F4BECE2B2D322DE9964EAD5FADF0
S1132B70E997E5966EAD7FADE597E3968EAD9FAD93
S1132B80E3970E945313882351F06B2D722DE39623
S1132B908EAD9FADE3970E94FF0F8111A2CE82EB11
S1132BA091E00E946C1DE9968EAD9FADE9970E945D
S1132BB05D1D8AE00E946D1C94CE46E050E06BEAF5
S1132BC071E0892D9A2D0E941B1E892B11F56E969A
S1132BD08FAD6E97882309F484CE4B2D522DEB963E
S1132BE06EAD7FADEB97E5968EAD9FADE5970E94F8
S1132BF09D0F811176CE85E991E00E946C1DEB96C4
S1132C008EAD9FADEB970E945D1D8AE00E946D1C06
S1132C1068CE43E050E061E971E0892D9A2D0E946D
S1132C201B1E892BA1F56B968FAD6B97882309F436
S1132C3058CE803209F438C1ED96EEADFFADED9774
S1132C408F018191803209F433C18111F9CF49CECA
S1132C5098012F5F3F4FE5964EAD5FADE5976B2D25
S1132C60722DE3968EAD9FADE3970E947E10811185
S1132C7038CE8DE791E00E946C1DE9968EAD9FAD34
S1132C80E9970E945D1D8AE00E946D1C2ACE46E0F1
S1132C9050E066E771E0892D9A2D0E941B1E892B56
S1132CA009F0A6C06E968FAD6E97882309F419CEED
S1132CB0803209F412C1C158DF4FE881F981CF573E
S1132CC0D0408F018191803209F40BC18111F9CF79
S1132CD008CE6B2D722DE3968EAD9FADE3970E94C7
S1132CE048097C01892B59F0F801418180ED840F5A
S1132CF08A3098F080E090E0A0E0B0E03CC087E645
S1132D0091E00E946C1DEB968EAD9FADEB970E94F7
S1132D105D1D8AE00E946D1CE4CDF801329680E0CE
S1132D2090E0A0E0B0E0242FAC01BD01440F551F9A
S1132D30661F771FDB01CA01880F991FAA1FBB1FDB
S1132D40880F991FAA1FBB1F840F951FA61FB71FAB
S1132D5030E0A90140535109052E000C660B770B96
S1132D60480F591F6A1F7B1F219180ED820F8A3003
S1132D70E8F2DB01CA0189839A83AB83BC8340E018
S1132D806B2D722DC7010E946F0D811111C085E555
S1132D9091E00E946C1DEB968EAD9FADEB970E9467
S1132DA05D1D8AE00E946D1CC7010E947D0999CDBA
S1132DB08CE30E946D1C80E20E946D1C68E1892DE9
S1132DC09A2D0E947513882379F0082F10E0A8012A
S1132DD0692D7A2DC7010E94A70A8017910741F334
S1132DE08EE391E00E946C1DC7010E947D0979CD9C
S1132DF046E050E067E371E0892D9A2D0E941B1E86
S1132E00892B11F56E968FAD6E97882309F469CDE1
S1132E104B2D522DEB966EAD7FADEB97E5968EADB7
S1132E209FADE5970E94091181115BCD8CE191E082
S1132E300E946C1DEB968EAD9FADEB970E945D1DBD
S1132E408AE00E946D1C4DCD67E171E0892D9A2DB9
S1132E500E94121E892B49F40E948018811141CDD1
S1132E6083E091E00E946C1D3CCD81EF90E00E94D4
S1132E706C1D892D9A2D0E945D1D8AE00E946D1C97
S1132E8030CDE5968EAD9FADE5970E94120EE39688
S1132E908EAD9FADE3970E944209E7968EAD9FAD3C
S1132EA0E7970E942A18A0CCE9960EAD1FADE997CA
S1132EB0F80110822B2D322DE9964EAD5FADE997C6
S1132EC0E5966EAD7FADE597E3968EAD9FADE39746
S1132ED00E9453138111BCCECCCEEB960EAD1FAD28
S1132EE0EB97F80110822B2D322DEB964EAD5FAD92
S1132EF0EB97E5966EAD7FADE597E3968EAD9FAD0E
S1132F00E3970E9453138111E4CEF9CE8F929F92DE
S1132F10AF92BF92CF92DF92EF92FF920F931F93E3
S1132F20CF93DF93CDB7DEB760970FB6F894DEBFCB
S1132F300FBECDBF009731F16115710531F1043039
S1132F403CF500230CF46DC049015A016B017C016E
S1132F5080E10802B001112462547E4F072E000C58
S1132F60880B990B20E130E0AE014F5F5F4FF70112
S1132F700995882381F08D8181113AC00FC081ECBD
S1132F8091E055C080E090E052C080E090E04FC0F6
S1132F9080E090E04CC080E090E049C080E090E0A8
S1132FA046C001EC11E081E1D8011D928A95E9F750
S1132FB0F801F182E082D382C282B582A482978230
S1132FC086828D818087CE0109960E947701D8017F
S1132FD019966D937D938D939C931C97CE010D96BA
S1132FE00E947701F801658776878787908BC7CF22
S1132FF08091C9018823A9F280E090E018C0E1EC37
S1133000F1E011E1DF011D921A95E9F791838083C4
S11330107383628355834483378326838FEF80874A
S1133020AECFE091C901EE2351F380E090E06096C9
S11330300FB6F894DEBF0FBECDBFDF91CF911F91C5
S11330400F91FF90EF90DF90CF90BF90AF909F9043
S11330508F900895009721F0FC01108681E0089577
S113306080E008958EBD0DB407FEFDCF8DB58F773A
S11330708DBD08958FEF8EBD0DB407FEFDCF8DB5C8
S11330808F778DBD8EB50895FF920F931F93CF93C5
S1133090DF93C82FD42F152F062FF72E0E943A182E
S11330A08C2F80640E9432188F2D0E943218802F3A
S11330B00E943218812F0E9432188D2F0E943218DC
S11330C0CC2319F0C83029F008C085E90E943218D1
S11330D00FC087E80E9432180BC08FEF0E9432188D
S11330E007C00E943A188F3F29F4C150D1F702C09B
S11330F0CAE0F7CFDF91CF911F910F91FF90089510
S11331008091D301811114C06091D4017091D501D3
S11331108091D6019091D70120E032E048ED51E052
S11331200E94341A882329F081E08093D301089502
S113313081E008952F923F924F925F926F927F9217
S11331408F929F92AF92BF92CF92DF92EF92FF92B3
S11331500F931F93CF93DF9300D000D0CDB7DEB78A
S11331604B015C015A8349837901232B09F47DC007
S113317008ED13E0140181E03822240135014218DE
S1133180530861087108C12C6894DD24D1F8C21871
S1133190D308EC14FD0408F467018091D4019091E4
S11331A0D501A091D601B091D701481659066A06F7
S11331B07B0609F440C00E948018882309F456C095
S11331C02A98B301A20181E10E944418882319F0CE
S11331D02A9A80E04BC00E943A188E3FE1F7E8ED4E
S11331E0F1E0FC83EB830E943A18EB81FC8181932C
S11331F0FC83EB83E017F107B1F74092D4015092BE
S1133200D5016092D6017092D701B10168527E4F08
S1133210A60189819A810E94291E89819A818C0D37
S11332209D1D9A8389830E943A180E943A182A9A0B
S11332300E943A180EC0B10168527E4FA6018981DE
S11332409A810E94291EE981FA81EC0DFD1DFA8301
S1133250E983EC18FD088C0C9D1CA11CB11CE11425
S1133260F10409F087CF81E001C081E00F900F9055
S11332700F900F90DF91CF911F910F91FF90EF90DE
S1133280DF90CF90BF90AF909F908F907F906F9082
S11332905F904F903F902F9008950F931F93CF937B
S11332A0DF93239A259A229A24982A9A83E58CBD3F
S11332B08DB58E7F8DBD1092D2011AE00E943A180E
S11332C01150E1F72A98C0E0D2E040E050E0BA01A2
S11332D080E00E944418813029F02197B1F72A9A9E
S11332E0012F62C040E050E0BA0187E30E94441815
S11332F040E050E0BA0189E20E94441882FD05C012
S11333008091D20181608093D201C0E0D0E88091A5
S1133310D201837069F040E050E0BA0187E30E9473
S1133320441840E050E0BA0189E20E94441806C003
S113333040E050E0BA0181E00E944418082F017077
S113334080FF05C0219719F72A9A012F2DC040E06C
S113335052E060E070E080E10E944418882311F09C
S11333602A9A22C02A9A8CB58C7F8CBD8DB5816037
S11333708DBD8FEF9FEFDC018093D4019093D50135
S1133380A093D601B093D70181E08093D30120E0CC
S113339032E048ED51E060E070E0CB010E949A1801
S11333A001E0811101C000E0802FDF91CF911F91D6
S11333B00F9108952F923F924F925F926F927F9256
S11333C08F929F92AF92BF92CF92DF92EF92FF9231
S11333D00F931F93CF93DF934B015C011A01E90113
S11333E0452B31F1209731F10217130728F1E1142D
S11333F0F10421F12901612C712C9E01A101C50167
S1133400B4010E949A188823E1F09601B501A40141
S1133410C101F7010995882399F0840C951CA61C19
S1133420B71C0C1B1D0B0C171D0738F781E009C0D6
S113343080E007C080E005C080E003C080E001C0F8
S113344081E0DF91CF911F910F91FF90EF90DF907A
S1133450CF90BF90AF909F908F907F906F905F9030
S11334604F903F902F9008952F923F924F925F92EA
S11334706F927F928F929F92AF92BF92CF92DF9280
S1133480EF92FF920F931F93CF93DF934B015C0155
S11334901A016901232B09F483C008ED13E0E40148
S11334A0D170240135014C1A5D0A61087108E12CC0
S11334B06894FF24F1F8EC1AFD0ACE14DF0408F432
S11334C076018091D4019091D501A091D601B0915B
S11334D0D701481659066A067B06F1F00E94801847
S11334E0882309F460C0209721F4E11482E0F806EF
S11334F058F420E032E048ED51E0C301B2010E94EB
S11335009A18882309F44FC04092D4015092D501EF
S11335106092D6017092D70188ED281681E03806B2
S113352061F0A701B101CE0188529E4F0E94291E6D
S11335301092D301CE14DF04A9F12A98B301A20199
S113354088E10E944418882319F02A9A80E02BC04D
S11335508EEF0E943218C8EDD1E089910E94321892
S1133560C017D107D1F78FEF0E9432188FEF0E9456
S113357032180E943A188F3FE1F70E943A182A9AAB
S11335802E0C3F1C8E0C9F1CA11CB11CCE18DF08F6
S113359081E08093D301C114D10409F080CF03C02A
S11335A081E001C081E0DF91CF911F910F91FF90E5
S11335B0EF90DF90CF90BF90AF909F908F907F90CF
S11335C06F905F904F903F902F9008954F925F922D
S11335D06F927F928F929F92AF92BF92CF92DF921F
S11335E0EF92FF920F931F93CF93DF934B015C01F4
S11335F06A0139012701452BF1F001151105E9F0A4
S1133600790111C0EC16FD06D0F09E01A601C5019A
S1133610B4010E94341A882361F18C0E9D1EA11CF2
S1133620B11CEC1AFD0A61147104C9F0E114F1042F
S113363061F481E01EC080E01CC080E01AC080E01C
S113364018C081E016C081E014C09201B501A40144
S1133650C601F8010995EC01892BA1F6F2CF92017C
S1133660B501A401C601F8010995EC01892B69F69D
S1133670EACFDF91CF911F910F91FF90EF90DF90F0
S1133680CF90BF90AF909F908F907F906F905F90FE
S11336904F9008958F929F92AF92BF92CF92DF92F4
S11336A0EF92FF920F931F93CF93DF93009709F448
S11336B0F9C07C0189E1F70111928A95E9F72A980A
S11336C040E050E0BA018AE00E944418C82E8823E2
S11336D019F02A9AC12CE7C00E943A188E3FE1F7EC
S11336E0E701219600E610E0DD24D39404C0D394CE
S11336F00850110921960E943A18EFEFED0D4E2F54
S113370050E04F305105C8F5FA01EC5CFF4F0C94C2
S1133710F21DF7018083EBCFFE01319780832DC02A
S113372088832BC0F7018287E2CF90E0A0E0B0E06D
S1133730002E04C0880F991FAA1FBB1F0A94D2F73A
S1133740F7014385548565857685842B952BA62BB7
S1133750B72B83879487A587B6870FC08295807F10
S1133760F7018787C4CF982F92959F70F70127851B
S1133770922B97878F70808BBACFF1E1FD1508F0FB
S1133780B6CF40E050E0BA0189E00E944418C82F47
S1133790882311F02A9A87C00E943A188E3FE1F7D5
S11337A0D1E0812C912C540110E000E0DD24D3946D
S11337B002C0CF5FDF5F0E943A18CC23D1F3CE3032
S11337C0B1F486FF02C0F701D58A85FF02C0F70174
S11337D0D68A84FF02C0F701D78A282F2C7030E0E4
S11337E03595279535952795F701208FE2CFC7307A
S11337F0C9F028F4C53049F0C63051F04CC0C93086
S113380071F1F0F0CA3079F146C0082F0F70D1CFB2
S1133810482F437050E060E070E08824942EA52E79
S1133820B62EC7CFB501A401482B4A015B01880C11
S1133830991CAA1CBB1C880C991CAA1CBB1CB9CFC4
S11338408295869586958370B501A401482B4A011B
S11338505B01FFEF8F1A9F0AAF0ABF0AAACF8370DA
S1133860182F110FA6CF881F8827881F182B802F89
S113387090E0810F911D0296A501940104C0220FCE
S1133880331F441F551F8A95D2F7F701218B328BC2
S1133890438B548B8ECFD23108F48BCF2A9ACC240D
S11338A0C39401C0C12C8C2DDF91CF911F910F9136
S11338B0FF90EF90DF90CF90BF90AF909F908F904C
S11338C008951092C50087E68093C40086E0809333
S11338D0C20088E98093C1000895CF93C82F8A302D
S11338E019F48DE00E946D1CE0ECF0E0908195FFEE
S11338F0FDCFC093C600CF910895CF93C82F829572
S11339008F708A3020F4805D0E946D1C03C0895A38
S11339100E946D1C8C2F8F70282F30E02A303105C7
S113392024F4805D0E946D1C03C0895A0E946D1CA2
S1133930CF910895CF93C82F892F0E947D1C8C2F7F
S11339400E947D1CCF910895CF92DF92EF92FF9257
S11339506B017C01C7010E949A1CC6010E949A1C3B
S1133960FF90EF90DF90CF900895CF92DF92EF9287
S1133970FF920F931F93CF93DF936C010F2EF5E00B
S1133980EF2EF12CF02D40E0C0E1D7E201E0C601BA
S1133990BE010E94A81D162F611105C0411103C06C
S11339A0C130D10529F480E3810F0E946D1C402FA2
S11339B01C9FC0011D9F900D1124C81AD90A9E0195
S11339C0ADECBCEC0E94F81DEC01D695C795D695DC
S11339D0C795D695C79581E0E81AF108C1F6DF913D
S11339E0CF911F910F91FF90EF90DF90CF900895AA
S11339F03F924F925F926F927F928F929F92AF927B
S1133A00BF92CF92DF92EF92FF920F931F93CF93C7
S1133A10DF934B015C010AE010E0D0E00F2EC12CD3
S1133A20FAECDF2EFAE9EF2EFBE3FF2EF02D332420
S1133A3033940F2EFAE04F2E512C612C712CF02D63
S1133A40C501B401A70196010E94D01DC22F211106
S1133A5008C0D11106C081E0C816D104E104F10404
S1133A6029F480E38C0F0E946D1CD32DAC2FB0E0A1
S1133A70A70196010E94071E861A970AA80AB90A86
S1133A80C701B601A30192010E94D01D69017A0108
S1133A9001501109A9F6DF91CF911F910F91FF9069
S1133AA0EF90DF90CF90BF90AF909F908F907F90DA
S1133AB06F905F904F903F900895CF93DF93EC0108
S1133AC08881882331F021960E946D1C899181118F
S1133AD0FBCFDF91CF910895CF93DF93EC01219633
S1133AE0FC018491882339F00E946D1CFE018491AD
S1133AF021968111F9CFDF91CF9108959FB77894E2
S1133B008091C000882364F0E0ECF0E083B781602A
S1133B1083BF889583B78E7F83BF80818823B4F762
S1133B209FBF8091C6008D3009F48AE008951895EE
S1133B30DB018F939F930E94071EBF91AF91A29FB9
S1133B40800D911DA39F900DB29F900D1124089597
S1133B50AA1BBB1B51E107C0AA1FBB1FA617B707AF
S1133B6010F0A61BB70B881F991F5A95A9F78095CB
S1133B709095BC01CD01089597FB072E16F400948F
S1133B8007D077FD09D00E94A81D07FC05D03EF49C
S1133B90909581959F4F0895709561957F4F0895F5
S1133BA0A1E21A2EAA1BBB1BFD010DC0AA1FBB1F3D
S1133BB0EE1FFF1FA217B307E407F50720F0A21BAF
S1133BC0B30BE40BF50B661F771F881F991F1A941C
S1133BD069F760957095809590959B01AC01BD0146
S1133BE0CF010895EE0FFF1F0590F491E02D099485
S1133BF0A29FB001B39FC001A39F700D811D11242A
S1133C00911DB29F700D811D1124911D08950E9474
S1133C10F81DA59F900DB49F900DA49F800D911D3C
S1133C2011240895FB01DC018D9105908019011088
S1133C30D9F3990B0895FB01DC014150504030F059
S1133C408D910590801919F40020B9F7881B990B00
S1133C500895FB01DC0102C001900D9241505040D7
S1133C60D8F70895DC0101C06D9341505040E0F74E
S1133C700895FC018191861721F08823D9F79927AB
S1133C8008953197CF010895FB01DC018D910190D6
S1133C9080190110D9F3990B0895FB01DC014150FF
S1133CA0504030F08D910190801919F40020B9F73B
S1133CB0881B990B0895FB01DC014150504048F0EA
S1133CC001900D920020C9F701C01D92415050404F
S1133CD0E0F70895FC0181E090E00190061609F4F4
S1113CE0CF010020D1F701970895F894FFCF8B
S1133CEE01030507090E10121416181C1E2F0000CE
S9030000FC
