S00B00007553442E737265630D
S11300000C94B3000C94D0000C94D0000C94D00049
S11300100C94D0000C94D0000C94D0000C94D0001C
S11300200C94D0000C94D0000C94D0000C94D0000C
S11300300C94D0000C94D0000C94D0000C94D000FC
S11300400C94D0000C94D0000C94EB1D0C94161E50
S11300500C94D0000C94D0000C94D0000C94D000DC
S11300600C94D0000C94D000646F6E650A00657225
S1130070726F722073796E63696E67206469736B43
S11300800A006572726F722077726974696E6720F4
S1130090746F2066696C650A0077726974696E67AB
S11300A02068617070656E73206E6F770A006572E8
S11300B0726F72207365656B696E67206F6E2000C6
S11300C06F70656E206572726F720A006572726F6E
S11300D072206372656174696E672066696C653A43
S11300E020006F70656E696E6720726F6F74206494
S11300F069726563746F7279206661696C65640AFC
S1130100006F70656E696E672066696C65737973DC
S113011074656D206661696C65640A006F70656E54
S1130120696E6720706172746974696F6E206661AC
S1130130696C65640A004D4D432F534420696E6910
S11301407469616C697A6174696F6E206661696C47
S113015065640A00676F696E6720696E746F206951
S11301606E69740A000011241FBECFEFD8E0DEBF11
S1130170CDBF11E0A0E0B1E0E8E3F0E402C00590F7
S11301800D92A437B107D9F724E0A4E7B1E001C088
S11301901D92A73BB207E1F70E94B6160C941A20F1
S11301A00C940000FC01218130E0322F2227808151
S11301B0A901482BCA010895FC0123816281862F7D
S11301C090E0A0E0B0E0DC0199278827B22B2081E1
S11301D0822B2181BC01CD01722B0895FC01718316
S11301E060830895FC01738362835183408308957F
S11301F08F929F92AF92BF92CF92DF92EF92FF9233
S11302000F931F93CF93DF9300D000D0CDB7DEB709
S1130210009709F485C0423051056105710508F461
S113022084C0FC01A081B18118968C9118978B3001
S113023009F040C04A015B01242F392D4A2D5B2D62
S113024060E070E080E090E002E00E94641FA2841D
S1130250B384C484D584E684F784008911890E9418
S11302609B1FED91FC916894EE24E2F8F12C8E0131
S11302700F5F1F4F09958823C1F0C980DA80EB8096
S1130280FC80C114D104E104F10479F0D701C60162
S1130290805F9F4FAF4FBF404097A105B10528F045
S11302A06C2D7D2D8E2D9F2D44C060E070E080E08C
S11302B090E03FC04A015B01242F392D4A2D5B2D6C
S11302C060E070E080E090E001E00E94641FA2849E
S11302D0B384C484D584E684F784008911890E9498
S11302E09B1FED91FC916894EE24E1F8F12C8E01B2
S11302F00F5F1F4F0995882371F089819A816C01E2
S1130300E12CF12C01978F3E9F4F28F46C2D7D2D0D
S11303108E2D9F2D0EC060E070E080E090E009C05B
S113032060E070E080E090E004C060E070E080E0B5
S113033090E00F900F900F900F90DF91CF911F914D
S11303400F91FF90EF90DF90CF90BF90AF909F9070
S11303508F9008952F923F924F925F926F927F9267
S11303608F929F92AF92BF92CF92DF92EF92FF92C1
S11303700F931F93CF93DF93CDB7DEB762970FB67A
S1130380F894DEBF0FBECDBF3C011A012B01892BAF
S113039009F4EBC0423051056105710508F4E7C06A
S11303A0D3011A96BC91BD83F301F385FE83D30177
S11303B01C96BC91BF83F301F585F887D3011E9683
S11303C0BC91B987F301F785FA87D3015096BC91A4
S11303D0BB87F301F189FC87D301ED91FC91808502
S11303E08B3039F0411551056105710509F05DC087
S11303F0B6C0452B462B472B19F451C014012501D7
S113040052014101222D392D4A2D5B2D60E070E00F
S113041080E090E002E00E94641FAD80BE80CF8047
S1130420D884E984FA840B851C850E949B1FD22EF4
S1130430C32E4D875E876F87788B898B9A8BD30108
S1130440ED91FC910190F081E02D6894EE24E2F8A6
S1130450F12C8E010F5F1F4F0995882309F42CC1DD
S113046089809A80AB80BC8081149104A104B1047A
S1130470C1F0D501C401805F9F4FAF4FBF400897C3
S1130480A105B10580F0D501C401885F9F4FAF4F2E
S1130490BF400897A105B10508F486C0ABC081E050
S11304A00BC181E009C180E007C1DB01CA014C0135
S11304B05D01282F392D4A2D5B2D60E070E080E02E
S11304C090E001E00E94641FAD80BE80CF80D8849C
S11304D0E984FA840B851C850E949B1F222E332EEF
S11304E0442E552ED62EC72EA82EB92ED301ED910B
S11304F0FC910190F081E02D6894EE24E1F8F12C58
S11305008E010F5F1F4F0995882309F4D5C0898098
S11305109A808114910429F1C4014096089718F136
S1130520B8EF8B16BFEF9B0608F06EC01A821982D3
S1130530D301ED91FC910480F581E02D222D332D22
S1130540442D552D6D2D7C2D8A2D9B2D0995C4018F
S1130550A0E0B0E00097A105B10509F0A8CF81E0C3
S1130560ABC081E0A9C080E0A7C080E0A5C080E066
S1130570A3C019821A821B821C82D301ED91FC91C3
S11305800480F581E02D6894EE24E2F8F12C8E01CC
S11305900F5F1F4F2D2D3C2D4D855E856F8578890E
S11305A089899A8909957BCFF30186A597A5A0A986
S11305B0B1A9892B8A2B8B2B09F45FC0DACF19825E
S11305C01A821B821C82D301ED91FC910480F58177
S11305D0E02D6894EE24E2F8F12C8E010F5F1F4F9A
S11305E02D2D3C2D4D855E856F85788989899A8965
S11305F0099504CFF30186A597A5A0A9B1A9892BD4
S11306008A2B8B2BD1F0DBCF1A821982D301ED9187
S1130610FC910480F581E02D6894EE24E1F8F12C3E
S11306208E010F5F1F4F222D332D442D552D6D2D1F
S11306307C2D8A2D9B2D099592CFF30126A637A6F2
S113064040AA51AA19821A821B821C820190F0814D
S1130650E02D0480F581E02D6894EE24E2F8F12C7D
S11306608E010F5F1F4F2D2D3C2D4D855E856F85AF
S1130670788989899A890995C1CE26A637A640AA80
S113068051AA19821A821B821C820190F081E02DEA
S11306900480F581E02D6894EE24E2F8F12C8E01BB
S11306A00F5F1F4F2D2D3C2D4D855E856F857889FD
S11306B089899A890995F3CE62960FB6F894DEBFBC
S11306C00FBECDBFDF91CF911F910F91FF90EF909F
S11306D0DF90CF90BF90AF909F908F907F906F905E
S11306E05F904F903F902F9008952F923F924F929A
S11306F05F926F927F928F929F92AF92BF92CF92AE
S1130700DF92EF92FF920F931F93CF93DF93CDB7B6
S1130710DEB7A9970FB6F894DEBF0FBECDBF9BA37B
S11307208AA34EA35FA368A779A70B871C872D878D
S11307303E87009709F41CC2DC01ED91FC911197EE
S1130740208131813D8F2C8F448155815DA34CA341
S11307501A965C911A975C8B1B968C911B978D8BC8
S11307601C969C911C979E8B1D96AC91AF8BAAA155
S1130770BBA11E96BC91B88FAAA1BBA11F96BC9128
S1130780B98FAAA1BBA15096BC91BA8FAAA1BBA153
S11307905196BC91BB8FAAA1BBA19E964D905D9032
S11307A06D907C90D197B1E0BB8B80858B3009F044
S11307B01B8AEB89EE23A9F0EAA1FBA18289938924
S11307C0A489B5899C01AD01569547953795279520
S11307D056954795379527952E8F3F8F48A359A354
S11307E010C0EAA1FBA182899389A489B5899C01DF
S11307F0AD0156954795379527952E8F3F8F48A382
S113080059A3AAA1BBA19E961D921D921D921C9252
S1130810D1972E8D3F8D48A159A121153105410550
S1130820510509F41FC12F83388749875A871F86CA
S1130830188A198A1A8A32E0431651046104710431
S113084080F08E8D9F8DA8A1B9A1481659066A061D
S11308507B0668F06894442441F8512C612C712C77
S113086006C06894442441F8512C612C712C9B8956
S1130870992361F153014201242D392D4A2D5B2D19
S113088060E070E080E090E002E00E94641FAC88C9
S1130890BD88CE88DF88E88CF98C0A8D1B8D0E9478
S11308A09B1FD22EC32EB42EA52E962E872E382E05
S11308B0292E6894EE24E2F8F12C8E010D5F1F4F6F
S11308C0EC8DFD8D0995811162C157C1530142011F
S11308D0242D392D4A2D5B2D60E070E080E090E0FE
S11308E001E00E94641FAC88BD88CE88DF88E88C54
S11308F0F98C0A8D1B8D0E949B1FD22EC32EB42E01
S1130900A52E962E872E382E292E6894EE24E1F8F3
S1130910F12C8E010F5F1F4FEC8DFD8D0995811118
S113092040C130C12B853C854D855E85232B242B0E
S1130930252B49F4AAA1BBA19E964D925D926D927E
S11309407C92D1979CC02F85388949895A89232B59
S1130950242B252B49F48FEF9FEFAFEFBFE08B8360
S11309609C83AD83BE8308C02F85388949895A8901
S11309702B833C834D835E836894EE24E2F8F12C50
S11309808E010D5F1F4F2D2D3C2D4B2D5A2D692DA2
S1130990782D832D922DECA1FDA10995811138C0EC
S11309A0DAC02B853C854D855E85232B242B252B96
S11309B049F4AAA1BBA19E964D925D926D927C9240
S11309C0D1975DC02F85388949895A89232B242BD7
S11309D0252B29F44FEF5FEF5A83498304C08F8599
S11309E098899A8389836894EE24E1F8F12C8E0126
S11309F00F5F1F4F2D2D3C2D4B2D5A2D692D782D1A
S1130A00832D922DECA1FDA10995882309F4A3C09F
S1130A102B853C854D855E8521503109410951095D
S1130A202B873C874D875E874F86588A698A7A8AE6
S1130A308F819885A985BA850197A109B1098F830A
S1130A409887A987BA879FEF491A590A690A790AC8
S1130A502F81388549855A85232B242B252B09F092
S1130A60EACE04C01F86188A198A1A8A8B859C8547
S1130A70AD85BE85892B8A2B8B2B09F06CC02EA1EA
S1130A803FA148A559A5223031054105510508F477
S1130A905DC03B89332379F18F859889A989BA8907
S1130AA08B839C83AD83BE832EA13FA148A559A50A
S1130AB049015A01392D4A2D5B2D60E070E080E038
S1130AC090E002E00E94641FAC88BD88CE88DF8875
S1130AD0E88CF98C0A8D1B8D0E949B1F6894EE2470
S1130AE0E2F8F12C8E010D5F1F4FECA1FDA10995D9
S1130AF0882389F12BC02F8538893A8329838EA1D5
S1130B009FA1A8A5B9A54C015D01282F392D4A2D17
S1130B105B2D60E070E080E090E001E00E94641FE3
S1130B20AC88BD88CE88DF88E88CF98C0A8D1B8D53
S1130B300E949B1F6894EE24E1F8F12C8E010F5F54
S1130B401F4FECA1FDA10995882329F06F857889B1
S1130B5089899A892CC04F85588969897A898AA19B
S1130B609BA10E94AA0160E070E080E090E01FC0B9
S1130B7060E070E080E090E01AC060E070E080E047
S1130B8090E015C060E070E080E090E010C08B81E0
S1130B909C81AD81BE81892B8A2B8B2B09F048CF98
S1130BA0C1CE89819A81892B09F042CFFACEA996C8
S1130BB00FB6F894DEBF0FBECDBFDF91CF911F916A
S1130BC00F91FF90EF90DF90CF90BF90AF909F90E8
S1130BD08F907F906F905F904F903F902F900895EB
S1130BE080E190E008952F923F924F925F926F922E
S1130BF07F928F929F92AF92BF92CF92DF92EF92A9
S1130C00FF920F931F93CF93DF93009759F14230D4
S1130C1051056105710578F1EC01425051096109F2
S1130C2071091A012B01088D198DA02EB12EC12C2A
S1130C30D12CE12CF12C00E010E0222D332D442D99
S1130C40552D60E070E080E090E00E940B1FAA8CBC
S1130C50BB8CCC8CDD8CEE8CFF8C08A119A10E947E
S1130C609B1F11C020E030E040E050E060E070E005
S1130C7080E090E008C020E030E040E050E060E038
S1130C8070E080E090E0DF91CF911F910F91FF9091
S1130C90EF90DF90CF90BF90AF909F908F907F9018
S1130CA06F905F904F903F902F900895AC01FC019E
S1130CB08191455F5F4F90E8899F90011124982F9F
S1130CC09695922B2191892F820FE417F50799F7B6
S1130CD00895AF92BF92CF92DF92EF92FF920F935B
S1130CE01F93CF93DF93CDB7DEB760970FB6F89419
S1130CF0DEBF0FBECDBF423051056105710500F165
S1130D007C010E94F3058E010F5F1F4FE0E1D801C3
S1130D101D92EA95E9F7D701ED91FC911197589648
S1130D20ED90FC9059970680F781E02DA12CB12C11
S1130D300F2EF0EFCF2EF5E0DF2EF02D099501C038
S1130D4080E060960FB6F894DEBF0FBECDBFDF9192
S1130D50CF911F910F91FF90EF90DF90CF90BF90B4
S1130D60AF9008952F923F924F925F926F927F922D
S1130D708F929F92AF92BF92CF92DF92EF92FF92A7
S1130D800F931F93CF93DF93CDB7DEB72D970FB695
S1130D90F894DEBF0FBECDBFF701A080B180A28161
S1130DA0B3819096B383A283DC01FC90B5EEFB166D
S1130DB011F0F11003C0148281E037C14501DC0158
S1130DC01B96FC90BFE0FB1248C0F480FF2029F082
S1130DD0DC011D96EC90FE14A9F00F2EF1E3FF2E1A
S1130DE0F02DD5011D92FA94E9F7DC011D96FC90D3
S1130DF0F482F50101A712A723A734A745A756A794
S1130E0067A770ABDC012C912F7330E021503109BE
S1130E104DE0429FB001439F700D11242DE0E0E0AE
S1130E20F1E0DE01119601900D922A95E1F76F3100
S1130E30710508F4DDC00FC021918C01020F111D52
S1130E40D8012C91D5012D935D01E617F70719F010
S1130E50E417F50789F781E0E8C07F01772E662E55
S1130E60552E442E332E222E6C01F50180818823C9
S1130E7049F0C6010E945606D70114969C91981712
S1130E8009F480C081E3F50111928A95E9F7D5014F
S1130E9099960C9399979A961C939A979B962C9251
S1130EA09B979C963C929C979D964C929D979E9660
S1130EB05C929E979F966C929F97D0967C92F60137
S1130EC08081803219F16A2D9601295F3F4F0A2DE6
S1130ED01B2D04C0319680818032C9F0D8018D93D6
S1130EE08D01D6011C969C9193FF0AC09081915468
S1130EF09A3130F4A80141505109805EDA018C9393
S1130F00902F961BE217F30729F701C090E0F50133
S1130F108081853011F485EE8083D60118968C91FA
S1130F201897803259F181E0890F2EE2F501E90F1B
S1130F30F11D2083F601389618962C912032D9F0B1
S1130F409C5F04C0319620812032B9F0A401480F7F
S1130F50511DDA012C93D6011C963C9134FF07C035
S1130F60308131543A3118F4205EDA012C938F5FCA
S1130F708913E8CF03C0982F01C0982FF501E90F1A
S1130F80F11D1082F6018385D50190968C93C601DC
S1130F904A960E94D200A0E0B0E0F50181A392A39A
S1130FA0A3A3B4A3C60144960E94D200A0E0B0E07B
S1130FB0DC0199278827F50141A152A163A174A1FD
S1130FC0842B952BA62BB72B81A392A3A3A3B4A305
S1130FD0C6014C960E94DC00D50195966D937D93D5
S1130FE08D939C93989781E0F701858380E01DC0E1
S1130FF02981FC01E20FF11D2081F501E60FF71FA5
S11310002083FE013296DB011196AA0EBB1E4FE12E
S113101050E0461B570B01E010E00C0F1D1F400F62
S1131020511FBE01625F7F4F13CF2D960FB6F89408
S1131030DEBF0FBECDBFDF91CF911F910F91FF9007
S1131040EF90DF90CF90BF90AF909F908F907F9064
S11310506F905F904F903F902F9008952F923F9202
S11310604F925F926F927F928F929F92AF92BF92B4
S1131070CF92DF92EF92FF920F931F93CF93DF9360
S1131080CDB7DEB7A0970FB6F894DEBF0FBECDBFC5
S1131090FC014B01892B09F4AAC14115510509F43E
S11310A0AFC1DA010D900020E9F79D01241B350B37
S11310B0255F3F4FA5ECBEE40E94F11E96958795EF
S11310C09695879501E0080F08A3D40193962D9176
S11310D03D914D915C9196972C8F3D8F4E8F5F8FF4
S11310E0A081B18118968C91232B242B252BE1F51B
S11310F08B30C9F402A513A524A535A50C8F1D8F2B
S11311002E8F3F8F1C8A1D8A1E8A1F8A188E198E65
S11311101A8E1B8E1A861B861C861D861E861F86AB
S1131120188A198A31C012A11A8723A12B8734A1E6
S11311303C8745A14D8756A15E8767A16F8770A53F
S1131140788B81A5898B928D9C8BA38DAD8BB48D6F
S1131150BE8B058D0F8B168D188F278D298F30A18F
S11311603A8F41A14B8F10C01C8A1D8A1E8A1F8A88
S1131170188E198E1A8E1B8E1A861B861C861D8647
S11311801E861F86188A198AFB8BEA8B4A845B8425
S11311906C847D848E849F84288839881A82242DC7
S11311A0352D462D572D682D792D822D932DAC8804
S11311B0BD88CE88DF88E88CF98C0A8D1B8D0E944F
S11311C0B91F09F0AEC06C8D7D8D8E8D9F8D672B00
S11311D0682B692B09F4F9C0682D792D822D932D84
S11311E0A0E00E94C21F09F46BC04C8D5D8D6E8D12
S11311F07F8D8A899B890E94F8006115710581059C
S1131200910509F059C001E010E020E030E04C8D78
S11312105D8D6E8D7F8D8A899B890E9475032B015C
S11312203C01611571058105910509F4CEC0DC010D
S1131230CB010297A109B1098C019D0140E050E066
S1131240BA018A831B832C833D834E835F83688723
S11312507987AA89BB8958962D913C915997890120
S1131260A02EB12EC12CD12CE12CF12C00E010E0E9
S11312702A813B814C815D8160E070E080E090E0F8
S11312800E940B1FEA89FB89A28CB38CC48CD58C79
S1131290E68CF78C00A111A10E949B1F2A873B8733
S11312A04C875D876E877F87888B998BB301A201FA
S11312B0CF010E94690692C06C8F7D8F8E8F9F8FA5
S11312C04C8D5D8D6E8D7F8D8A899B890E94F3057F
S11312D02A873B874C875D876E877F87888B998BAE
S11312E0AA89BB8958962D903C905997A22CB32C6F
S11312F0C12CD12CE12CF12C00E010E00E949B1FAA
S11313002C8B3D8B4E8B5F8B688F798F8A8F9B8F55
S11313104A845B846C847D848E849F842888398885
S11313201A82AA89BB89ED91FC910190F081E02D8C
S1131330EE24E394F12C8E010F5F1F4F242D352DE5
S1131340462D572D682D792D822D932D09958823AF
S1131350E1F18981853E11F081111AC0BA81BF5F24
S1131360BA83E8A1BE17D0F5242D352D462D572D6F
S1131370682D792D822D932DA0E20E94A41F422E68
S1131380532E642E752E862E972E282E392E07CF97
S1131390242D352D462D572D682D792D822D932DF5
S11313A0A0E20E94A41F2A873B874C875D876E8733
S11313B07F87888B998B422E532E642E752E862E12
S11313C0972E282E392E1A82EACE20E030E040E013
S11313D050E060E070E080E090E01AC02A853B8530
S11313E04C855D856E857F858889998911C020E04B
S11313F030E040E050E060E070E080E090E008C061
S113140020E030E040E050E060E070E080E090E018
S1131410A0960FB6F894DEBF0FBECDBFDF91CF917B
S11314201F910F91FF90EF90DF90CF90BF90AF90FE
S11314309F908F907F906F905F904F903F902F90F0
S113144008952F923F924F925F926F927F928F9264
S11314509F92AF92BF92CF92DF92EF92FF920F933F
S11314601F93CF93DF93CDB7DEB7A6970FB6F8944B
S1131470DEBF0FBECDBF009709F46EC161157105C3
S113148009F46CC16B01FC010190F081E02D8481B1
S113149095819BA38AA3DB0199969C9099979A9630
S11314A08C909A979B967C909B979C966C909C971B
S11314B09D965C909D979E964C909E979F963C908F
S11314C09F97D0962C907DA36CA3FB0101900020E4
S11314D0E9F731975F01A61AB70A1A2DC5019927B2
S11314E00C966DE070E00E94BB1E69A34BE050E0D7
S11314F060E270E0CE0101960E94D71F6EE270E0B8
S1131500C6010E940F200097D1F0FC012181222303
S1131510B1F0BC016F5F7F4FFB0101900020E9F740
S11315203197E61BF70BAA941A2D1E1BE43008F022
S1131530E3E04E2F50E0CE0109960E94CE1F1930F1
S1131540D0F4412F50E0B601CE0101960E94CE1F87
S1131550D6018C918E3261F511968C9111978E3251
S113156031F412968C91811123C019A221C08111EA
S11315701FC019A21DC088E0F601DE01119601907A
S11315800D928A95E1F7F60181A1803A28F4982F0B
S113159092959F70905D04C0982F92959F709F596B
S11315A09F838F708A3010F4805D01C08F598887C3
S11315B08981853E11F485E08983FE013C9685E1AD
S11315C0DF011D928A95E9F7F60180A18C8781A13C
S11315D092A1A3A1B4A1BD0188279927CE01459664
S11315E00E94EE00D60191966D917C919297CE0166
S11315F04B960E94EE00F60145A156A167A170A585
S1131600CE014D960E94F20029A1F0E22F9FA00185
S11316101124242F352F40E050E060E070E080E09A
S113162090E0A92CB82CC72CD62CE52CF42C032D37
S1131630122D0E949B1F6894EE24E5F8F12C8E0174
S11316400F5F1F4FEAA1FBA10995882309F48FC0FE
S1131650C8010E945606A82EF9A1FF2309F480C0F0
S1131660DF2E0F2EFEE0BF2EF02D0F2EFCE1CF2E2D
S1131670F02DF064FEA340E250E06FEF70E0CE0185
S113168001960E94D71F8D2D90E001972DE0289F91
S1131690F001299FF00D11248CA19DA1E80FF91FE1
S11316A081E0BF0101C0319691E0980FDB014D91BB
S11316B0BD0121E030E02C0F3D1F280F311DD90161
S11316C04C938E5F21E030E02C0F3D1F290F311D1C
S11316D0D9011C928B3009F445C08A3111F48C2D48
S11316E042C09081992311F08F31E8F2D982B9A1D7
S11316F0DB1202C0EEA1E983FFE0FC87AE861D8603
S11317001B8E1C8E6894EE24E5F8F12C8E010F5F7D
S11317101F4F292D382D472D562D652D742D832DC2
S1131720922DEAA1FBA10995292D382D472D562D7F
S1131730652D742D832D922DA0E20E94A41F922E5C
S1131740832E742E652E562E472E382E292EDA948B
S1131750D11091CF81E00BC080E009C080E007C0C8
S113176081E005C08B2D908191119DCFBFCFA696AE
S11317700FB6F894DEBF0FBECDBFDF91CF911F919E
S11317800F91FF90EF90DF90CF90BF90AF909F901C
S11317908F907F906F905F904F903F902F9008951F
S11317A02F923F924F925F926F927F928F929F926D
S11317B0AF92BF92CF92DF92EF92FF920F931F935B
S11317C0CF93DF93CDB7DEB7C655D1090FB6F894E2
S11317D0DEBF0FBECDBF009709F470C2DC011496C2
S11317E02D913C911597232B09F46BC216962D91DC
S11317F03C911797232B09F467C22091250230915D
S11318002602232B09F463C280E090E09CC2CE013F
S113181001960E94D2009AAF89AFCE0104960E942D
S1131820D2009CAF8BAFBB812496BFAF2497EE81CF
S11318302596EFAF2597CE0107960E94D2002F96EA
S11318409FAF8EAF2F97CE0109960E94D2007C01E4
S1131850CE010C960E94D20023969FAF8EAF2397A1
S1131860CE0146960E94DC005B016C01CE014A96D3
S11318700E94DC0021966CAF7DAF8EAF9FAF2197A5
S1131880CE0182960E94DC0067966CAF7DAF8EAF6E
S11318909FAF6797A114B104C104D10439F4E114D2
S11318A0F10409F447C25701C12CD12C2396EEACA4
S11318B0FFAC2397E114F10451F0870120E030E0FC
S11318C021960CAF1DAF2EAF3FAF21970BC02196D1
S11318D04CAD5DAD6EAD7FAD2197452B462B472BAF
S11318E009F428C225965FAD2597A52FB0E021966F
S11318F02CAD3DAD4EAD5FAD21970E94001F86011A
S113190075012BAD3CADE21AF30A01091109E61A7F
S1131910F70A080B190B2F968EAD9FAD2F97880FE2
S1131920991F82959295907F9827807F982749AD3B
S11319305AAD41505109840F951F69AD7AAD0E948B
S1131940A71EE61AF70A01091109C801B70124966E
S11319504FAD2497042F10E020E030E0A901980156
S11319600E94CF1E63962CAF3DAF4EAF5FAF63971F
S1131970DA01C901853F5FE09507A105B10508F4C7
S1131980D9C1853F9F4FA105B10528F486E0D20156
S113199018968C9303C08BE0F20180878CE2E7E217
S11319A0F2E0DF011D928A95E9F709AD1AAD7801DD
S11319B000E010E020E030E0A901E9AAFAAA0BABAC
S11319C01CAB2DAB3EAB4FAB58AF0F2EF5E28F2EB9
S11319D0F2E09F2EF02DA601950160E070E0CB01AE
S11319E02696AFAE269727963FAF279728964FAFF8
S11319F0289729965FAF29972A966FAF2A972B9637
S1131A007FAF2B972C968FAF2C972D969FAF2D974A
S1131A10AE2CBF2CC12CD12CE12CF12C00E010E019
S1131A2060E070E080E090E00E940B1FD401129609
S1131A302C93129713963C93139714964C931497E4
S1131A4015965C93159716966C93169717967C9338
S1131A50179718968C93189719969C93EBADFCAD39
S1131A60AF012E2F352F40E050E060E070E080E0C1
S1131A7090E00E940B1FA62CB72CCEA0DEA4EFA4EE
S1131A80F8A8022D132D0E949B1F722E632E4EA7C1
S1131A905FA768AB7BAF282E392ED4011A962C93FE
S1131AA01A971B963C931B971C964C931C971D9658
S1131AB05C931D971E966C931E971F967C931F979D
S1131AC050968C93509751969C9363966CAD7DADD4
S1131AD08EAD9FAD63976E5F7F4F8F4F9F4FF20127
S1131AE02085263029F024E030E040E050E004C0B6
S1131AF022E030E040E050E0E5E2F2E00E94971E90
S1131B00628B738B848B958BA9ACBAACB78AA68A8B
S1131B102496CFAC2497CA9CC001CB9C900D112471
S1131B20918F808FD20118968C91863009F063C012
S1131B302396EEADFFAD23978F01AE2EB12EC12CAF
S1131B40D12CE12CF12C00E010E029A93AA940E0C5
S1131B5050E060E070E080E090E00E940B1F25966A
S1131B60AFAC2597B12C0E940B1FA72CB62CCEA48A
S1131B70DFA4E8A8FBAC022D132D0E949B1F422E6C
S1131B80532E642E752E862E972EB82FA92FE5E29C
S1131B90F2E022A333A344A355A366A377A380A7AB
S1131BA091A72F962EAD3FAD2F9759013B2D40E0C5
S1131BB050E060E070E080E090E005E00E94641F87
S1131BC0A22EB32EC42ED52EE62EF72E082F192FB3
S1131BD0242D352D462D572D682D792D8B2F9A2F99
S1131BE00E949B1F228F338F448F558F668F778F70
S1131BF080A391A3A6C00F2EF5E28F2EF2E09F2EB4
S1131C00F02D2596AFAC2597B12CC12CD12CE12C0D
S1131C10F12C00E010E029A93AA940E050E060E08E
S1131C2070E080E090E00E940B1F2196CCACDDAC0C
S1131C30EEACFFAC219756016701E12CF12C870132
S1131C40AEA2BFA2C8A6D9A6EAA6FBA60CA71DA74A
S1131C50E12CF12C00E010E00E940B1FA72CB62C05
S1131C60CEA4DFA4E8A8FBAC022D132D0E949B1F79
S1131C70D4015A962C935A975B963C935B975C9647
S1131C804C935C975D965C935D975E966C935E97C0
S1131C905F967C935F9790968C93909791969C9384
S1131CA091976796ACACBDACCEACDFAC67979A9617
S1131CB0AD92BD92CD92DC929D9743C080E090E0BE
S1131CC042C080E090E03FC080E090E03CC02C0146
S1131CD0E5E2F2E082E3DF011D928A95E9F75182A1
S1131CE04082F20181849284A384B484282D392D06
S1131CF04A2D5B2D60E070E080E090E009E00E94F6
S1131D00641F622E732E4EA35EA76FA778AB282E96
S1131D10392EABE00E94A41F0190F081E02D0F2E1C
S1131D20F5E2EF2EF12CF02D8E010F5F1F4F099578
S1131D3081116DCD109226021092250280E090E070
S1131D4002C085E292E0CA5ADF4F0FB6F894DEBFB4
S1131D500FBECDBFDF91CF911F910F91FF90EF90F8
S1131D60DF90CF90BF90AF909F908F907F906F90B7
S1131D705F904F903F902F900895009719F0FC01C9
S1131D80118210820895009781F06115710581F028
S1131D90FB0120A124FD0FC02091E6013091E70151
S1131DA0232B61F080E090E0089580E090E00895B6
S1131DB080E090E0089580E090E0089521E3FB0145
S1131DC0A8EEB1E001900D922A95E1F7A6EEB1E0FC
S1131DD011969C938E93D3961C92D397D4961C926F
S1131DE0D497D5961C92D597D6961C92D697D7960B
S1131DF01C92D797D8961C92D897D9961C92D997AB
S1131E00DA961C92DA97FB0141A152A163A174A155
S1131E10DB964D935D936D937C93DE97CD0108958E
S1131E20009719F0FC011182108208952F923F92BD
S1131E304F925F926F927F928F929F92AF92BF92D6
S1131E40CF92DF92EF92FF920F931F93CF93DF9382
S1131E50CDB7DEB76B970FB6F894DEBF0FBECDBF1C
S1131E60998F888F7A8B698B5F8B4E8B009709F4DF
S1131E7003C2672B09F403C2452B09F403C2DC0136
S1131E80D396BC91B987FC01F4A9FA87DC01D596F5
S1131E90BC91BB87FC01F6A9FC87DC01D796BC91F9
S1131EA0BD87FC01F0ADFE87DC01D996BC91BF87EC
S1131EB0FC01F2ADF88BFC0187A190A5A1A5B2A508
S1131EC01C012D0129853A854B855C856D857E85B0
S1131ED08F859889A22CB32CC42CD52CE12CF12C01
S1131EE000E010E00E94B91F11F008F0CEC101908B
S1131EF0F081E02DE08CF18CFC8AEB8AA88DB98D01
S1131F00DB964D905D906D907C90DE97C7010197B4
S1131F10E984FA84E822F922FA82E982411451041C
S1131F206104710409F077C093964D905D906D90B3
S1131F307C909697411451046104710401F58F85D6
S1131F409889A0E00E94C21F09F0A2C101E010E03C
S1131F5020E030E040E050E0BA01CF010E94750378
S1131F602B013C01A88DB98D93966D937D938D9330
S1131F709C939697672B682B692B09F48CC1E88D89
S1131F80F98D13A9B4A905A9F6A867A970AD212FE5
S1131F903B2F402F5F2D81AD92ADA0E00E94C21F68
S1131FA0D1F1C12EDB2EE02E0B891C894801A12C16
S1131FB0B12C1F0129C0C818D908EA08FB08B301CD
S1131FC0A201D1018D919C910E94F80061157105C7
S1131FD081059105B9F4C114D104E104F10409F0B7
S1131FE05DC101E010E020E030E0B301A201F101A5
S1131FF0808191810E9475036115710581059105A8
S113200009F44FC12B013C01C814D904EA04FB04B0
S113201090F6398E288E2E883F88E88CF98CFB8EBA
S1132020EA8EAA8DBB8D0D911C91B301A201C8014A
S11320300E94F305A22EB32EC42ED52EE62EF72E23
S113204089879D8B8B889C88E981FA818E1A9F0AE7
S11320502814390408F44101D8010D90BC91A02D35
S1132060B98FA88FE981FA81AF012E2F352F40E077
S113207050E060E070E080E090E009851D890E94F6
S11320809B1FA88DB98D1496ED91FC911597740141
S113209009891A890995882309F48AC0E989FA8982
S11320A0E80DF91DFA8BE98B28183908A401282DAD
S11320B0352F40E050E060E070E080E090E0AA8DD1
S11320C0BB8DD396AC90D397D496BC90D497D59629
S11320D0CC90D597D696DC90D697D796EC90D79798
S11320E0D896FC90D897D9960C91D997DA961C91EA
S11320F0DA970E949B1FD3962C93D397D4963C9344
S1132100D497D5964C93D597D6965C93D697D79675
S11321106C93D797D8967C93D897D9968C93D99764
S1132120DA969C93DA97E981FA818E0E9F1EEB88EA
S1132130FC888E149F0478F1B301A2018D919C91C7
S11321400E94F800611571058105910501F52114BE
S11321503104A1F001E010E020E030E0B301A2017D
S1132160AA8DBB8D8D919C910E9475032B013C011E
S1132170611571058105910509F096C0EA8DFB8D05
S1132180F98FE88F13AE14AE15AE16AE15C02B0141
S11321903C0119821A82EA8DFB8D43AE54AE65AEC2
S11321A076AE2114310409F03CCFF98FE88F04C0D6
S11321B0EA8CFB8CF98EE88EE88DF98DB3A9A4A97D
S11321C085A896A867A970AD47A050A461A472A47D
S11321D08301720120E030E0A9014982FA820B8375
S11321E01C832D833E834F8358872B2F3A2F482DF2
S11321F0592D81AD92ADA42CBF2CC02ED12EE12C33
S1132200F12C00E010E00E94B91F89F180F1B7A31E
S1132210A0A781A692A6BF016E5F7F4F80819181A6
S11322200E94210A811123C0A88DB98DD3962D90C7
S11322303C90D49724183508E981D396EC93D3972E
S1132240FA81D496FC93D497EB80D596EC92D597EB
S1132250FC80D696FC92D697D7961C92D797D896A0
S11322601C92D897D9961C92D997DA961C928E898B
S11322709F898219930923C08FEF9FEF20C08FEFAE
S11322809FEF1DC08FEF9FEF1AC08FEF9FEF17C016
S11322908FEF9FEF14C080E090E011C08FEF9FEFAD
S11322A00EC080E090E00BC0AA8DBB8DDB966D93D1
S11322B07D938D939C93DE9719821A82B2CE6B968E
S11322C00FB6F894DEBF0FBECDBFDF91CF911F9143
S11322D00F91FF90EF90DF90CF90BF90AF909F90C1
S11322E08F907F906F905F904F903F902F900895C4
S11322F02F923F924F925F926F927F928F929F9212
S1132300AF92BF92CF92DF92EF92FF920F931F93FF
S1132310CF93DF93CDB7DEB764970FB6F894DEBFE3
S11323200FBECDBF009709F4A4C14D835E836F83B4
S113233078871C01DC0193962D913D914D915C9120
S113234096972D873E874F87588BED91FC91808D12
S1132350918D232B242B252B09F0CFC12D813E8178
S11323604F815885232B242B252B09F431C1B5C16A
S11323704D805E806F807884CD84DE84EF84F8881D
S1132380B701A601D1018D919C910E94F8006115BD
S113239071058105910561F0481859086A087B08A0
S11323A06B017C0184149504A604B70448F349C066
S11323B0CD86DE86EF86F88AC98ADA8AEB8AFC8AB9
S11323C084149504A604B70438F0C114D104E104BC
S11323D0F10409F456C135C0D501C4010197A1091E
S11323E0B109BC01CD01640D751D861D971DA501A4
S11323F094010E94CF1E89019A014D855E856F85E7
S11324007889F101808191810E9475036B017C01BF
S1132410672B682B692B09F42EC129893A894B89CA
S11324205C89232B242B252B41F4D1019396CD9247
S1132430DD92ED92FC92969704C0CD84DE84EF8405
S1132440F8882D813E814F815885D10197962D932F
S11324503D934D935C939A97232B242B252B09F0C2
S113246031C1F10113A214A215A216A2B1016E5F2B
S11324707F4F808191810E94210A882309F451C1F0
S1132480B701A601D1018D919C910E94AA01A0C01F
S113249084149504A604B70408F49AC0F10180805A
S11324A091808114910409F493C0F2E0CF16D10411
S11324B0E104F10408F48CC0B701A601C4010E9430
S11324C0F8002B013C01D401ED91FC9180858B3007
S11324D0E9F58FEF9FEFAFEFBFE089839A83AB837A
S11324E0BC83560167012A2D3B2D4C2D5D2D60E0E8
S11324F070E080E090E002E00E94641FD4011A962C
S1132500AC901A971B96BC901B971C96CC901C976A
S11325101D96DC901D971E96EC901E971F96FC90BE
S11325201F9750960C91509751961C910E949B1F97
S11325300480F581E02D6894EE24E2F8F12C8E01FC
S11325400F5F1F4F0995811139C042C08FEF9FEF74
S11325509A838983560167012A2D3B2D4C2D5D2DCD
S113256060E070E080E090E001E00E94641FD4012C
S11325701A96AC901A971B96BC901B971C96CC90FD
S11325801C971D96DC901D971E96EC901E971F9627
S1132590FC901F9750960C91509751961C910E9455
S11325A09B1F0480F581E02D6894EE24E1F8F12C62
S11325B08E010F5F1F4F0995882351F04114510478
S11325C06104710429F0B301A201C4010E94AA01AB
S11325D04D815E816F8178859A01AB0160E070E086
S11325E0CB012D833E834F83588769877A878B87F6
S11325F09C87D101D396AC90D397D496BC90D497B2
S1132600D596CC90D597D696DC90D697D796EC9065
S1132610D797D896FC90D897D9960C91D997DA96F3
S11326201C91DA9760E070E080E090E00E94B91FAE
S113263020F5D3962C93D397D4963C93D497D596E0
S11326404C93D597D6965C93D697D7961C92D797EA
S1132650D8961C92D897D9961C92D997DA961C9240
S1132660DA97DB961D921D921D921C92DE9781E0F3
S113267058C080E056C080E054C081E052C080E081
S113268050C0D501C4010197A109B109BC01CD0114
S1132690640D751D861D971DA50194010E94CF1E12
S11326A089019A0140E050E0BA01F10180819181F1
S11326B00E9475036B017C01672B682B692B09F061
S11326C0B4CEDDCFB1016E5F7F4FD1018D919C916E
S11326D00E94210A8111DCCE24C04C01A12CB12C12
S11326E02D813E814F81588582169306A406B50636
S11326F008F43ECE29013A01C4CF4C01A12CB12CDF
S11327004D815E816F81788584169506A606B7068D
S113271008F42ECE2A013B01CD84DE84EF84F888B0
S113272090CE64960FB6F894DEBF0FBECDBFDF9196
S1132730CF911F910F91FF90EF90DF90CF90BF90BA
S1132740AF909F908F907F906F905F904F903F904D
S11327502F900895AF92BF92CF92DF92EF92FF92A3
S11327600F931F93CF93DF93EC01892B09F455C08A
S11327706115710509F453C0EBA95CA93DA92EA903
S1132780413051F018F04230A9F04BC0FB01C08039
S1132790D180E280F3801BC08E2F952FA32FB22F00
S11327A0FB01C080D180E280F380C80ED91EEA1EEE
S11327B0FB1E0DC0FB01C080D180E280F3808FA19D
S11327C098A5A9A5BAA5C80ED91EEA1EFB1E5B01D1
S11327D08FA198A5A9A5BAA58C159D05AE05BF0521
S11327E038F4B701A601CE010E9478118823D1F0F4
S11327F097018601CBAA1CAB2DAB3EAB1FAA18AE2A
S113280019AE1AAE1BAE1CAE1DAE1EAEF501C082D3
S1132810D182E282F38281E005C080E003C080E0DF
S113282001C080E0DF91CF911F910F91FF90EF9055
S1132830DF90CF90BF90AF900895CF93DF93009730
S1132840B1F061157105B1F0FB0120A124FF15C0A1
S11328502091740130917501232B91F02091AD01E9
S11328603091AE01232B79F080E090E025C080E028
S113287090E022C080E090E01FC080E090E01CC0A7
S1132880C4E7D1E002C0CDEAD1E0DE01129621E333
S1132890FB0101900D922A95E1F799838883FB014E
S11328A081A192A1A3A1B4A18BAB9CABADABBEABF8
S11328B018AE1FAA8C2F9D2FDF91CF9108950097FA
S11328C019F0FC01118210820895FC01892B61F03A
S11328D083A194A1A5A1B6A183AB94ABA5ABB6ABE0
S11328E010AE17AA81E0089580E008952F923F92D8
S11328F04F925F926F927F928F929F92AF92BF920C
S1132900CF92DF92EF92FF920F931F93CF93DF93B7
S1132910CDB7DEB7E6970FB6F894DEBF0FBECDBFD6
S1132920009709F4F3C06115710509F4F1C09EAB79
S11329308DABFC0120803180F101608C718CFC0135
S113294023A934A945A956A929AB3AAB4BAB5CAB37
S113295047A850AC4614570420F00E94651410E0B8
S1132960DAC09E012F5F3F4F86E0F90111928A95EC
S1132970E9F781E3FB0111928A95E9F77A83698388
S113298029A93AA94BA95CA9232B242B252B09F0AF
S1132990A7C0D101ED91FC91119780858B3059F43A
S11329A09A962D913D914D915C919D9729AB3AABAF
S11329B04BAB5CAB95C0F101228D338D82A193A109
S11329C03901681A790A8CC093012419350938AB86
S11329D02FA7A20160E070E080E090E0DC014FA24C
S11329E058A769A77AA78BA79CA7ADA7BEA769A973
S11329F07AA98BA99CA9672B682B692B19F5242D1F
S1132A00352F40E050E060E070E080E090E0D101DC
S1132A109296AC9092979396BC9093979496CC9000
S1132A2094979596DC9095979696EC9096979796B2
S1132A30FC90979798960C91989799961C910E9460
S1132A409B1F11C049A95AA96BA97CA9C1010E9465
S1132A50F305AFA0B8A4C12CD12CE12CF12C00E0DB
S1132A6010E00E949B1F1C821B82D101ED91FC91FE
S1132A700280F381E02DDE0111964D010F2EF2EB61
S1132A80AF2EF6E0BF2EF02DCFA4D8A86894EE2484
S1132A90E5F8F12C8E01095F1F4F09958823D1F1C8
S1132AA08B819C81480E591E46145704C8F049A9CD
S1132AB05AA96BA97CA9C1010E94F80069AB7AAB41
S1132AC08BAB9CAB672B682B692B41F41E811111D6
S1132AD00BC08DA99EA90E9465141DC0412C512CC8
S1132AE08E81882309F470CF29A93AA94BA95CA93E
S1132AF0ADA9BEA9D3962D933D934D935C93D697E0
S1132B00D8965C924E92D7971E8105C010E003C000
S1132B1010E001C0182F812FE6960FB6F894DEBF9F
S1132B200FBECDBFDF91CF911F910F91FF90EF901A
S1132B30DF90CF90BF90AF909F908F907F906F90D9
S1132B405F904F903F902F9008954F925F926F92B5
S1132B507F928F929F92AF92BF92CF92DF92EF9229
S1132B60FF920F931F93CF93DF934C016B01EA0104
S1132B70892B09F476C06115710509F474C0FB0151
S1132B808081882309F471C0209709F470C08F32C2
S1132B9019F4FFEFCF1ADF0A81E3FE0111928A953F
S1132BA0E9F780E188A3F6018081882309F461C0F4
S1132BB0412C512CBE01C4010E941D148C01892B8F
S1132BC009F459C06FE270E0C6010E94DE1F00974D
S1132BD041F0E82EEC185C01FFEFAF1ABF0AF12CAC
S1132BE02DC0F60101900020E9F73197EC19FD0999
S1132BF0EE2E5601AE0EB11CF2CFFE010190002064
S1132C00E9F731973F016C1A7D0A6E147F04B1F421
S1132C10A301BE01C6010E94F21F892B79F4C801E9
S1132C200E945F14F601E60DF71D8081882329F1C7
S1132C3098A1892F807194FD08C020C0BE01C801ED
S1132C400E9476148111D9CF03C06501042D152D7E
S1132C50C8010E945F14F60180818111ABCF81E02D
S1132C600DC080E00BC080E009C080E007C080E0B8
S1132C7005C081E003C080E001C081E0DF91CF9115
S1132C801F910F91FF90EF90DF90CF90BF90AF9086
S1132C909F908F907F906F905F904F900895AF9228
S1132CA0BF92CF92DF92EF92FF921F93CF93DF9365
S1132CB0009709F449C06115710509F447C0FB0187
S1132CC02081222309F444C0EA017B016C0120978E
S1132CD009F440C0BE01C6010E947614182F88234F
S1132CE059F0BE01C7010E94E91F892B99F7C6015B
S1132CF00E94651412E02FC0F601A080B18081E328
S1132D00FE0111928A95E9F74FE150E0B701CE0137
S1132D100E940020AE01B601C5010E942E0829A719
S1132D203AA74BA75CA76DA77EA78FA798ABA0E097
S1132D300E94C21F81F0BE01C5010E94210A11E058
S1132D40811109C010E007C010E005C010E003C005
S1132D5010E001C010E0812FDF91CF911F91FF900F
S1132D60EF90DF90CF90BF90AF9008957F928F92B5
S1132D709F92AF92BF92CF92DF92EF92FF920F9306
S1132D801F93CF93DF93CDB7DEB7CF5DD1090FB6D5
S1132D90F894DEBF0FBECDBF83B7817F83BF87E6C4
S1132DA090E00E94401E78940F2EF5E19F2EF02DA6
S1132DB0712C812C84E591E00E94851E0E94501A9A
S1132DC0811104C086E391E00E94851E00E023E3A4
S1132DD03DE149EE5BE169E47BE186E199E10E9432
S1132DE0E4176C01892B91F40FEF23E33DE149EEE5
S1132DF05BE169E47BE186E199E10E94E4176C01FF
S1132E00892B21F48CE191E00E94851EC6010E9469
S1132E10D00B5C01892B21F481E091E00E94851E96
S1132E20AE014F575F4F6DE071E0C5010E94A515DB
S1132E30BE016F577F4FC5010E941D148C01892B61
S1132E4021F482EE90E00E94851EEFE0F1E0DE01C5
S1132E50A953BF4F892D01900D928A95E1F7AE01D8
S1132E60405B5F4FBE0169537F4FC8010E944F16FC
S1132E7081110CC08CEC90E00E94851ECE01895318
S1132E809F4F0E94761E8AE00E94591EEFE0F1E0F7
S1132E90DE01AE54BF4F892D01900D928A95E1F762
S1132EA016C0BE016E547F4FCE0101960E94E91FE9
S1132EB0892B69F4C8010E946514BE016F5F7F4FBE
S1132EC0C5010E94C30E7C01892B71F409C0BE01A7
S1132ED06F5F7F4FC8010E9476148111E2CF56C004
S1132EE080EC90E00E94851EC452DF4F1882198244
S1132EF01A821B82CC5DD04042E0BE0164527F4FF7
S1132F00C7010E94AA13811110C08EEA90E00E94AA
S1132F10851ECE018E549F4F0E94761E8AE00E9429
S1132F20591EC7010E94100F45CF8FE4E4E2F1E07F
S1132F30DE01119601900D928A95E1F789E990E0FE
S1132F400E94851E4FE450E0BE016F5F7F4FC701B2
S1132F500E94160F8F349105E1F4C7010E94100FEF
S1132F600E94EA18811104C08EE690E00E94851E3A
S1132F70C8010E945F14C5010E94BD0EC6010E94D3
S1132F80941888E690E00E94851EFFCFE72CF82C69
S1132F90A7CF82E890E00E94851E80E090E0C152B5
S1132FA0DF4F0FB6F894DEBF0FBECDBFDF91CF91D8
S1132FB01F910F91FF90EF90DF90CF90BF90AF9053
S1132FC09F908F907F9008956F927F928F929F929F
S1132FD0AF92BF92CF92DF92EF92FF920F931F9323
S1132FE0CF93DF93CDB7DEB760970FB6F894DEBF0B
S1132FF00FBECDBF009771F16115710571F10430F9
S11330007CF500230CF475C039014A015B016C01A5
S113301080E10802F0011124E254FE4F9F2F990F22
S1133020990B6894EE24E4F8F12C8E010F5F1F4F86
S11330302E2F3F2F492F592F692F792F892FF601D2
S11330400995882381F08D8181113AC00FC087E5ED
S113305092E055C080E090E052C080E090E04FC024
S113306080E090E04CC080E090E049C080E090E0D7
S113307046C007E512E081E1D8011D928A95E9F77F
S1133080F801D182C082B382A2829582848277823F
S113309066828D818087CE0109960E94DC00D8016A
S11330A019966D937D938D939C931C97CE010D96E9
S11330B00E94DC00F801658776878787908BC7CFED
S11330C080915F028823A9F280E090E018C0E7E5D0
S11330D0F2E011E1DF011D921A95E9F791838083F3
S11330E07383628355834483378326838FEF80877A
S11330F0AECFE0915F02EE2351F380E090E0609662
S11331000FB6F894DEBF0FBECDBFDF91CF911F91F4
S11331100F91FF90EF90DF90CF90BF90AF909F9072
S11331208F907F906F900895009721F0FC01108696
S113313081E0089580E008958EBD0DB407FEFDCFB3
S11331408DB58F778DBD08958FEF8EBD0DB407FEBD
S1133150FDCF8DB58F778DBD8EB50895FF920F93FA
S11331601F93CF93DF93C82FD42F152F062FF72E3D
S11331700E94A4188C2F80640E949C188F2D0E949A
S11331809C18802F0E949C18812F0E949C188D2FC0
S11331900E949C18CC2319F0C83029F008C085E996
S11331A00E949C180FC087E80E949C180BC08FEFE8
S11331B00E949C1807C00E94A4188F3F29F4C15094
S11331C0D1F702C0CAE0F7CFDF91CF911F910F91E1
S11331D0FF900895EF92FF920F931F9380916902DD
S11331E081111EC020916A0230916B0240916C02E1
S11331F050916D0260916E0270916F02E12C68949F
S1133200FF24F1F802E712E08091700290917102BC
S11332100E94E91B882329F081E08093690201C0A0
S113322081E01F910F91FF90EF9008952F923F92AC
S11332304F925F926F927F928F929F92AF92BF92C2
S1133240CF92DF92EF92FF920F931F93CF93DF936E
S1133250CDB7DEB76A970FB6F894DEBF0FBECDBF09
S113326029833A834B835C836D837E838F83988722
S11332701C8B0B8B2701EF2809F4F8C0612C689490
S1133280772471F80F2EF2E72F2EF4E03F2EF02D65
S11332907A8E698E89809A8021E09222940140E09E
S11332A050E060E070E0CB0189863A874B875C8709
S11332B06D877E878F87988B29813A814B815C81CA
S11332C06D817E818F819885A984BA84C12CD12C8B
S11332D0E12CF12C00E010E00E94B01F298B3A8B06
S11332E0642E752E6D8B7E8B8F8B988F498D5A8DA6
S11332F0481959095A8749874416550610F45A86BD
S11333004986A0906A02B0906B02C0906C02D09083
S11333106D02E0906E02F0906F02009170021091C5
S1133320710229893A89462D572D6D897E898F89A5
S1133330988D0E94B91F09F463C00E94EA1888237B
S113334009F495C02A988091680282FF10C02989E7
S11333503A89462D572D6D897E898F89988D09E08C
S11333600E947F1F642F752F422F532F04C0498959
S11333705A89662D772D81E10E94AE18882319F0B1
S11333802A9A80E074C00E94A4188E3FE1F702E7F5
S113339012E00E94A418F80181938F01E215F3054D
S11333A0C1F7F989F0936A022A8920936B0260922B
S11333B06C0270926D023D8930936E024E89409387
S11333C06F025F8950937002688D60937102B4013B
S11333D06E587D4F49855A858B899C890E94CE1FE2
S11333E08B899C89E985FA858E0F9F1F9C8B8B8B1B
S11333F00E94A4180E94A4182A9A0E94A41811C01A
S1133400B4016E587D4F49855A858B899C890E94E9
S1133410CE1F2B893C8949855A85240F351F3C8B47
S11334202B8B69857A85461A570A4B01262F392D2D
S113343040E050E060E070E080E090E0A980BA8075
S1133440CB80DC80ED80FE800F8118850E949B1F5D
S113345029833A834B835C836D837E838F83988730
S11334604114510409F016CF81E001C081E06A964D
S11334700FB6F894DEBF0FBECDBFDF91CF911F9181
S11334800F91FF90EF90DF90CF90BF90AF909F90FF
S11334908F907F906F905F904F903F902F90089502
S11334A09F92AF92BF92CF92DF92EF92FF920F93CF
S11334B01F93CF93DF93239A259A229A24982A9ACA
S11334C083E58CBD8DB58E7F8DBD109268021AE0A8
S11334D00E94A4181150E1F72A98C0E0D2E040E01D
S11334E050E0BA0180E00E94AE18813029F02197A3
S11334F0B1F72A9A012FC0C04AEA51E060E070E0B7
S113350088E00E94AE18C82FC47082FD1DC00E94BE
S1133510A4180E94A4180E94A418082F017080FF08
S1133520ABC00E94A4188A3A09F0A5C08091680231
S1133530826080936802C0E0D0E8912CA12CB12C69
S11335406894CC24C6F814C040E050E0BA0187E384
S11335500E94AE1840E050E0BA0189E20E94AE1821
S113356082FDE9CF80916802816080936802E3CF95
S113357080916802982F9370C9F081FF05C0D92CFF
S1133580EA2CFB2C0C2D04C0D12CE12CF12C00E0F6
S113359040E050E0BA0187E30E94AE184D2D5E2D45
S11335A06F2D702F89E20E94AE1806C040E050E0F3
S11335B0BA0181E00E94AE18082F017080FF05C097
S11335C02197B1F62A9A012F57C0C0916802C1FF12
S11335D017C040E050E0BA018AE30E94AE18882385
S11335E011F02A9A49C00E94A41886FF03C0C4603F
S11335F0C09368020E94A4180E94A4180E94A418F0
S113360040E052E060E070E080E10E94AE18882360
S113361011F02A9A31C02A9A8CB58C7F8CBD8DB555
S113362081608DBD8FEF80936A0280936B028093DB
S11336306C0280936D0280936E0280936F0280937C
S113364070028093710281E080936902E12C689496
S1133650FF24F1F802E712E020E030E040E050E01F
S113366060E070E080E090E00E94161901E08111B2
S113367003C000E001C00C2F802FDF91CF911F9178
S11336800F91FF90EF90DF90CF90BF90AF909F90FD
S113369008952F923F924F925F926F927F928F92F2
S11336A09F92AF92BF92CF92DF92EF92FF920F93CD
S11336B01F93CF93DF93CDB7DEB764970FB6F8941B
S11336C0DEBF0FBECDBF2F87388B498B5A8B362E6A
S11336D0272E8B8B9C8B1A83098337012601BC868A
S11336E0AB86012B09F453C0E114F10409F451C071
S11336F0CE14DF0408F44FC0AB2809F44EC0970180
S1133700EB823C839E868D86AF84B888C988DA882C
S11337109B888C88730109811A812A2D3B2D4C2D9D
S11337205D2D632D722D892D982D0E9416198823E5
S1133730B9F1ED84FE840A2D1B2D2C2D3D2D432D36
S1133740522D692D782D89819A81EB85FC85099507
S1133750882329F12B813C8140E050E060E070E057
S113376080E090E0E32CF22C092D182D0E949B1F81
S1133770A22EB32EC42ED52E362E272E982E892E69
S1133780461857084614570428F681E009C080E01B
S113379007C080E005C080E003C080E001C081E094
S11337A064960FB6F894DEBF0FBECDBFDF91CF9104
S11337B01F910F91FF90EF90DF90CF90BF90AF904B
S11337C09F908F907F906F905F904F903F902F903D
S11337D008952F923F924F925F926F927F928F92B1
S11337E09F92AF92BF92CF92DF92EF92FF920F938C
S11337F01F93CF93DF93CDB7DEB769970FB6F894D5
S1133800DEBF0FBECDBF29833A834B835C836D83B8
S11338107E838F83988738012701EF2809F407C135
S11338200F2EF2E72F2EF4E03F2EF02D29813A815E
S11338303170398F288F40E050E060E070E0CB01B8
S113384029873A874B875C876D877E878F87988B1C
S113385029813A814B815C816D817E818F8198853C
S1133860A984BA84C12CD12CE12CF12C00E010E005
S11338700E94B01F2987398B4A8B5B8B6C8B7D8BA5
S11338808E8B9F8B812C6894992491F8688D798D07
S1133890861A970A4814590408F44201A0906A024F
S11338A0B0906B02C0906C02D0906D02E0906E02FA
S11338B0F0906F020091700210917102298539898C
S11338C04A895B896C897D898E899F890E94B91F89
S11338D0C1F10E94EA18882309F4ACC0888D998D3F
S11338E0892B21F4811492E0990698F4E12C6894D0
S11338F0FF24F1F802E712E0298539894A895B89B6
S11339006C897D898E899F890E941619882309F400
S113391091C0E985E0936A02F989F0936B022A89E0
S113392020936C023B8930936D024C8940936E0264
S11339305D8950936F026E89609370027F897093E2
S1133940710282E7681682E0780671F0A401B3017F
S1133950888D998D8E589D4F0E94CE1F10926902BA
S11339604814590409F465C02A988091680282FFBA
S113397010C0298539894A895B896C897D898E893A
S11339809F8909E00E947F1F642F752F422F532FB8
S113399004C0498559896A897B8988E10E94AE18E7
S11339A0882319F02A9A80E045C08EEF0E949C1863
S11339B002E712E0F80181918F010E949C18021520
S11339C01305C1F78FEF0E949C188FEF0E949C187B
S11339D00E94A4188F3FE1F70E94A4182A9A680C49
S11339E0791C5401282D3B2D40E050E060E070E04C
S11339F080E090E0A980BA80CB80DC80ED80FE80FE
S1133A000F8118850E949B1F29833A834B835C8313
S1133A106D837E838F83988748185908F1E0F0936B
S1133A2069024114510409F001CF81E003C081E02F
S1133A3001C081E069960FB6F894DEBF0FBECDBF1A
S1133A40DF91CF911F910F91FF90EF90DF90CF9076
S1133A50BF90AF909F908F907F906F905F904F90AA
S1133A603F902F9008952F923F924F925F926F92C2
S1133A707F928F929F92AF92BF92CF92DF92EF92FA
S1133A80FF920F931F93CF93DF93CDB7DEB72897A1
S1133A900FB6F894DEBF0FBECDBF562E472E1A8345
S1133AA00983DC82CB82BE82AD82012B09F448C03B
S1133AB0CD2809F447C0F886EF82A22EB32EC42E77
S1133AC0D52E982E892E170132C08F8198858615A0
S1133AD09705D0F1730109811A812A2D3B2D4C2DB4
S1133AE05D2D652D742D892D982D0E94E91B882349
S1133AF009F458C0A301262D352F40E050E060E0C2
S1133B0070E080E090E0E52CF42C092D182D0E9443
S1133B109B1FA22EB32EC42ED52E562E472E982E82
S1133B20892EEF81F885E619F709F887EF832114C8
S1133B30310421F18F819885892B61F481E032C0B1
S1133B4080E030C080E02EC080E02CC081E02AC03C
S1133B5081E028C0ED80FE800A2D1B2D2C2D3D2DEB
S1133B60452D542D692D782D89819A81EB81FC8115
S1133B7009953C01892B09F0A8CFE8CFED80FE80A0
S1133B800A2D1B2D2C2D3D2D452D542D692D782DC1
S1133B9089819A81EB81FC8109953C01892B09F08B
S1133BA099CFD6CF28960FB6F894DEBF0FBECDBFFF
S1133BB0DF91CF911F910F91FF90EF90DF90CF9005
S1133BC0BF90AF909F908F907F906F905F904F9039
S1133BD03F902F9008951F920F920FB60F921124C9
S1133BE02F938F939F93EF93FF938091C000209125
S1133BF0C6008871E0917404EF5FEF7190917304D3
S1133C00E91739F0E0937404F0E0E958FB4F20839E
S1133C1001C082E080937204FF91EF919F918F9194
S1133C202F910F900FBE0F901F9018951F920F9217
S1133C300FB60F9211248F939F93EF93FF9390915C
S1133C40760480917504981769F0E0917504EF5F2C
S1133C50EF71E0937504F0E0E956FB4F80818093A7
S1133C60C60005C0E1ECF0E080818F7D8083FF9188
S1133C70EF919F918F910F900FBE0F901F90189509
S1133C8010927604109275041092740410927304C6
S1133C90992324F422E02093C0009F779093C500D9
S1133CA08093C40088E98093C10086E08093C200B9
S1133CB00895CF93C82F8A3019F48DE00E94591EBD
S1133CC0209176042F5F2F71909175042917E1F3E9
S1133CD0E22FF0E0E956FB4FC08320937604E1EC39
S1133CE0F0E0808180628083CF910895CF93DF9349
S1133CF0EC018881882331F021960E94591E899114
S1133D008111FBCFDF91CF910895CF93DF93EC0125
S1133D102196FC018491882339F00E94591EFE01EA
S1133D20849121968111F9CFDF91CF910895DB0120
S1133D308F939F930E94001FBF91AF91A29F800D0C
S1133D40911DA39F900DB29F900D11240895AA1B5D
S1133D50BB1B51E107C0AA1FBB1FA617B70710F072
S1133D60A61BB70B881F991F5A95A9F780959095A4
S1133D70BC01CD01089597FB072E16F4009407D0DB
S1133D8077FD09D00E94A71E07FC05D03EF490954C
S1133D9081959F4F0895709561957F4F0895A1E295
S1133DA01A2EAA1BBB1BFD010DC0AA1FBB1FEE1FB1
S1133DB0FF1FA217B307E407F50720F0A21BB30BFC
S1133DC0E40BF50B661F771F881F991F1A9469F778
S1133DD060957095809590959B01AC01BD01CF01D4
S1133DE00895A29FB001B39FC001A39F700D811DD0
S1133DF01124911DB29F700D811D1124911D0895F0
S1133E000E94F11EA59F900DB49F900DA49F800D5C
S1133E10911D11240895DF93CF931F930F939A9DBF
S1133E20F02D219FF00D8B9DF00D8A9DE02DF10D5D
S1133E30039FF00D029FE00DF11D4E9DE00DF11D5D
S1133E405E9DF00D4F9DF00D7F936F93BF92AF92E7
S1133E505F934F93D5010E94F11E8B01AC01D701F2
S1133E600E94F11EEB01E80FF91FD6010E945B1FAF
S1133E702F913F91D6010E94F11EC60FD71FE81F54
S1133E80F91FAF91BF910E945B1F2F913F910E9438
S1133E90F11EC60FD71FE81FF91FD6010E94F11E9D
S1133EA0E60FF71F9801BE01CF0111240F911F9156
S1133EB0CF91DF9108950E94F11E460F571FC81F2E
S1133EC0D91F08F4319608950F93083090F0982F75
S1133ED0872F762F652F542F432F322F22270850F8
S1133EE0F4CF220F331F441F551F661F771F881FEF
S1133EF0991F0A95B2F70F91089597FB10F816943D
S1133F0000080F93083098F00850232F342F452FC2
S1133F10562F672F782F892F902DF4CF05949795DE
S1133F2087957795679557954795379527950A957A
S1133F30AAF70F9108952A0D3B1D4C1D5D1D6E1DA2
S1133F407F1D801F911F08950024A7FD00942A0F50
S1133F50301D401D501D601D701D801D901D089555
S1133F602A193B094C095D096E097F09800B910BE5
S1133F7008952A153B054C055D056E057F058007F0
S1133F80910708950024A7FD00942A1730054005E1
S1133F90500560057005800590050895FB01DC015E
S1133FA002C001900D9241505040D8F70895DC01B1
S1133FB001C06D9341505040E0F70895FC01819198
S1133FC0861721F08823D9F7992708953197CF01CF
S1133FD00895FB01DC018D91019080190110D9F342
S1133FE0990B0895FB01DC014150504030F08D9154
S1133FF00190801919F40020B9F7881B990B0895D2
S1134000FB01DC014150504048F001900D9200202A
S1134010C9F701C01D9241505040E0F70895FC01DA
S113402081E090E00190061609F4CF010020D1F759
S10B403001970895F894FFCFF5
S113403801030507090E10121416181C1E2F00750B
S113404853445F566572696669636174696F6E2E5D
S113405874787400446576696365206973206361C4
S11340687061626C65206F662077726974696E6727
S113407820746F207468652075534420636F6E6ED6
S1134088656374656420746F2074686520535049AF
S113409820706F727473206F6E20746865204156A7
S10740A8522E000090
S9030000FC
