:100000000C94E2000C94FF000C94FF000C94FF0091
:100010000C94FF000C94FF000C94FF000C94FF0064
:100020000C94FF000C94FF000C94FF000C94FF0054
:100030000C94FF000C94FF000C94FF000C94FF0044
:100040000C94FF000C94FF000C9450200C94FF00C3
:100050000C94FF000C94FF000C94FF000C94FF0024
:100060000C94FF000C94FF00311E341E341E381E09
:10007000381E381E381E381E3A1E3D1E3D1E3D1EBF
:100080003D1E561E5B1E667265653A202020006686
:100090006F726D61743A200077722E70722E3A2062
:1000A00000636F70793A202020004D420A00736986
:1000B0007A653A20202000646174653A202020008F
:1000C00073657269616C3A203078007265763A2007
:1000D0002020200070726F643A202020006F656D30
:1000E0003A20202020006D616E75663A202030781D
:1000F00000646F6E650A006572726F7220777269B4
:1001000074696E6720746F2066696C650A00777287
:100110006974696E672068617070656E73206E6FB8
:10012000770A006572726F72207365656B696E671E
:10013000206F6E20006F70656E206572726F720A9C
:10014000006F70656E696E6720726F6F74206469EE
:10015000726563746F7279206661696C65640A0008
:100160006F70656E696E672066696C65737973740C
:10017000656D206661696C65640A006F70656E6903
:100180006E6720706172746974696F6E2066616950
:100190006C65640A004D4D432F534420696E6974A9
:1001A00069616C697A6174696F6E206661696C65FA
:1001B000640A00676F696E6720696E746F20696EEC
:1001C00069740A0011241FBECFEFD8E0DEBFCDBF97
:1001D00011E0A0E0B1E0EAE9F3E402C005900D927D
:1001E000A832B107D9F724E0A8E2B1E001C01D921E
:1001F000A632B207E1F70E9429160C94CB210C9489
:100200000000FC01218130E0322F22278081A901EA
:10021000482BCA010895FC0123816281862F90E05A
:10022000A0E0B0E0DC0199278827B22B2081822B47
:100230002181BC01CD01722B0895FC017183608383
:100240000895FC01738362835183408308958F92E4
:100250009F92AF92BF92CF92DF92EF92FF920F9355
:100260001F93CF93DF9300D000D0CDB7DEB70097B8
:1002700009F485C0423051056105710508F484C058
:10028000FC01A081B18118968C9118978B3009F0F0
:1002900040C04A015B01242F392D4A2D5B2D60E0BF
:1002A00070E080E090E002E00E942421A284B38408
:1002B000C484D584E684F784008911890E945B2177
:1002C000ED91FC916894EE24E2F8F12C8E010F5F21
:1002D0001F4F09958823C1F0C980DA80EB80FC802C
:1002E000C114D104E104F10479F0D701C601805FA3
:1002F0009F4FAF4FBF404097A105B10528F06C2D2F
:100300007D2D8E2D9F2D44C060E070E080E090E058
:100310003FC04A015B01242F392D4A2D5B2D60E03F
:1003200070E080E090E001E00E942421A284B38488
:10033000C484D584E684F784008911890E945B21F6
:10034000ED91FC916894EE24E1F8F12C8E010F5FA1
:100350001F4F0995882371F089819A816C01E12CE6
:10036000F12C01978F3E9F4F28F46C2D7D2D8E2D03
:100370009F2D0EC060E070E080E090E009C060E07A
:1003800070E080E090E004C060E070E080E090E029
:100390000F900F900F900F90DF91CF911F910F91C1
:1003A000FF90EF90DF90CF90BF90AF909F908F9095
:1003B00008952F923F924F925F926F927F928F9209
:1003C0009F92AF92BF92CF92DF92EF92FF920F93E4
:1003D0001F93CF93DF93CDB7DEB762970FB6F89434
:1003E000DEBF0FBECDBF3C011A012B01892B09F4E2
:1003F000EBC0423051056105710508F4E7C0D30137
:100400001A96BC91BD83F301F385FE83D3011C963C
:10041000BC91BF83F301F585F887D3011E96BC918B
:10042000B987F301F785FA87D3015096BC91BB8752
:10043000F301F189FC87D301ED91FC9180858B302C
:1004400039F0411551056105710509F05DC0B6C06F
:10045000452B462B472B19F451C01401250152019D
:100460004101222D392D4A2D5B2D60E070E080E0A6
:1004700090E002E00E942421AD80BE80CF80D8842D
:10048000E984FA840B851C850E945B21D22EC32E41
:100490004D875E876F87788B898B9A8BD301ED911F
:1004A000FC910190F081E02D6894EE24E2F8F12CAB
:1004B0008E010F5F1F4F0995882309F42CC1898095
:1004C0009A80AB80BC8081149104A104B104C1F076
:1004D000D501C401805F9F4FAF4FBF400897A10572
:1004E000B10580F0D501C401885F9F4FAF4FBF4079
:1004F0000897A105B10508F486C0ABC081E00BC127
:1005000081E009C180E007C1DB01CA014C015D0146
:10051000282F392D4A2D5B2D60E070E080E090E0BF
:1005200001E00E942421AD80BE80CF80D884E98480
:10053000FA840B851C850E945B21222E332E442ECB
:10054000552ED62EC72EA82EB92ED301ED91FC9193
:100550000190F081E02D6894EE24E1F8F12C8E01F9
:100560000F5F1F4F0995882309F4D5C089809A80B1
:100570008114910429F1C4014096089718F1B8EF4D
:100580008B16BFEF9B0608F06EC01A821982D3014A
:10059000ED91FC910480F581E02D222D332D442D29
:1005A000552D6D2D7C2D8A2D9B2D0995C401A0E024
:1005B000B0E00097A105B10509F0A8CF81E0ABC07C
:1005C00081E0A9C080E0A7C080E0A5C080E0A3C012
:1005D00019821A821B821C82D301ED91FC91048046
:1005E000F581E02D6894EE24E2F8F12C8E010F5F86
:1005F0001F4F2D2D3C2D4D855E856F85788989890E
:100600009A8909957BCFF30186A597A5A0A9B1A9E1
:10061000892B8A2B8B2B09F45FC0DACF19821A82BF
:100620001B821C82D301ED91FC910480F581E02DA9
:100630006894EE24E2F8F12C8E010F5F1F4F2D2DF0
:100640003C2D4D855E856F85788989899A890995C4
:1006500004CFF30186A597A5A0A9B1A9892B8A2B60
:100660008B2BD1F0DBCF1A821982D301ED91FC9153
:100670000480F581E02D6894EE24E1F8F12C8E01E0
:100680000F5F1F4F222D332D442D552D6D2D7C2DA9
:100690008A2D9B2D099592CFF30126A637A640AA55
:1006A00051AA19821A821B821C820190F081E02DCE
:1006B0000480F581E02D6894EE24E2F8F12C8E019F
:1006C0000F5F1F4F2D2D3C2D4D855E856F857889E1
:1006D00089899A890995C1CE26A637A640AA51AA2A
:1006E00019821A821B821C820190F081E02D048005
:1006F000F581E02D6894EE24E2F8F12C8E010F5F75
:100700001F4F2D2D3C2D4D855E856F8578898989FC
:100710009A890995F3CE62960FB6F894DEBF0FBEA4
:10072000CDBFDF91CF911F910F91FF90EF90DF90A0
:10073000CF90BF90AF909F908F907F906F905F9081
:100740004F903F902F9008952F923F924F925F923B
:100750006F927F928F929F92AF92BF92CF92DF92D1
:10076000EF92FF920F931F93CF93DF93CDB7DEB736
:10077000A9970FB6F894DEBF0FBECDBF9BA38AA387
:100780004EA35FA368A779A70B871C872D873E8799
:10079000009709F41CC2DC01ED91FC9111972081B6
:1007A00031813D8F2C8F448155815DA34CA31A96D6
:1007B0005C911A975C8B1B968C911B978D8B1C966A
:1007C0009C911C979E8B1D96AC91AF8BAAA1BBA14F
:1007D0001E96BC91B88FAAA1BBA11F96BC91B98FE0
:1007E000AAA1BBA15096BC91BA8FAAA1BBA1519658
:1007F000BC91BB8FAAA1BBA19E964D905D906D90C0
:100800007C90D197B1E0BB8B80858B3009F01B8A3F
:10081000EB89EE23A9F0EAA1FBA182899389A4893F
:10082000B5899C01AD015695479537952795569505
:100830004795379527952E8F3F8F48A359A310C012
:10084000EAA1FBA182899389A489B5899C01AD01A4
:1008500056954795379527952E8F3F8F48A359A3D7
:10086000AAA1BBA19E961D921D921D921C92D1978A
:100870002E8D3F8D48A159A1211531054105510506
:1008800009F41FC12F83388749875A871F86188A22
:10089000198A1A8A32E0431651046104710480F007
:1008A0008E8D9F8DA8A1B9A1481659066A067B06B0
:1008B00068F06894442441F8512C612C712C06C0D6
:1008C0006894442441F8512C612C712C9B89992304
:1008D00061F153014201242D392D4A2D5B2D60E039
:1008E00070E080E090E002E00E942421AC88BD88A6
:1008F000CE88DF88E88CF98C0A8D1B8D0E945B21E5
:10090000D22EC32EB42EA52E962E872E382E292E0B
:100910006894EE24E2F8F12C8E010D5F1F4FEC8DF0
:10092000FD8D0995811162C157C153014201242DEA
:10093000392D4A2D5B2D60E070E080E090E001E011
:100940000E942421AC88BD88CE88DF88E88CF98C91
:100950000A8D1B8D0E945B21D22EC32EB42EA52E94
:10096000962E872E382E292E6894EE24E1F8F12C4D
:100970008E010F5F1F4FEC8DFD8D0995811140C1D8
:1009800030C12B853C854D855E85232B242B252B63
:1009900049F4AAA1BBA19E964D925D926D927C9264
:1009A000D1979CC02F85388949895A89232B242BBC
:1009B000252B49F48FEF9FEFAFEFBFE08B839C8334
:1009C000AD83BE8308C02F85388949895A892B8316
:1009D0003C834D835E836894EE24E2F8F12C8E0113
:1009E0000D5F1F4F2D2D3C2D4B2D5A2D692D782D30
:1009F000832D922DECA1FDA10995811138C0DAC09B
:100A00002B853C854D855E85232B242B252B49F496
:100A1000AAA1BBA19E964D925D926D927C92D197B8
:100A20005DC02F85388949895A89232B242B252B92
:100A300029F44FEF5FEF5A83498304C08F8598896B
:100A40009A8389836894EE24E1F8F12C8E010F5F7C
:100A50001F4F2D2D3C2D4B2D5A2D692D782D832D7B
:100A6000922DECA1FDA10995882309F4A3C02B8543
:100A70003C854D855E8521503109410951092B87FF
:100A80003C874D875E874F86588A698A7A8A8F812C
:100A90009885A985BA850197A109B1098F8398879F
:100AA000A987BA879FEF491A590A690A790A2F81DB
:100AB000388549855A85232B242B252B09F0EACE2E
:100AC00004C01F86188A198A1A8A8B859C85AD8571
:100AD000BE85892B8A2B8B2B09F06CC02EA13FA1E0
:100AE00048A559A5223031054105510508F45DC0DE
:100AF0003B89332379F18F859889A989BA898B83BA
:100B00009C83AD83BE832EA13FA148A559A5490171
:100B10005A01392D4A2D5B2D60E070E080E090E0B5
:100B200002E00E942421AC88BD88CE88DF88E88C52
:100B3000F98C0A8D1B8D0E945B216894EE24E2F8EB
:100B4000F12C8E010D5F1F4FECA1FDA109958823AB
:100B500089F12BC02F8538893A8329838EA19FA1E3
:100B6000A8A5B9A54C015D01282F392D4A2D5B2D73
:100B700060E070E080E090E001E00E942421AC8819
:100B8000BD88CE88DF88E88CF98C0A8D1B8D0E9489
:100B90005B216894EE24E1F8F12C8E010F5F1F4F6A
:100BA000ECA1FDA10995882329F06F8578898989B1
:100BB0009A892CC04F85588969897A898AA19BA115
:100BC0000E94D90160E070E080E090E01FC060E02A
:100BD00070E080E090E01AC060E070E080E090E0BB
:100BE00015C060E070E080E090E010C08B819C81D7
:100BF000AD81BE81892B8A2B8B2B09F048CFC1CECA
:100C000089819A81892B09F042CFFACEA9960FB635
:100C1000F894DEBF0FBECDBFDF91CF911F910F9132
:100C2000FF90EF90DF90CF90BF90AF909F908F900C
:100C30007F906F905F904F903F902F9008952F92EC
:100C40003F924F925F926F927F928F929F92AF925C
:100C5000BF92CF92DF92EF92FF920F931F93CF93A9
:100C6000DF93009759F1423051056105710578F124
:100C7000EC0142505109610971091A012B01088DDB
:100C8000198DA02EB12EC12CD12CE12CF12C00E01D
:100C900010E0222D332D442D552D60E070E080E0D2
:100CA00090E00E94CB20AA8CBB8CCC8CDD8CEE8C8F
:100CB000FF8C08A119A10E945B2111C020E030E047
:100CC00040E050E060E070E080E090E008C020E0AC
:100CD00030E040E050E060E070E080E090E0DF91E4
:100CE000CF911F910F91FF90EF90DF90CF90BF9029
:100CF000AF909F908F907F906F905F904F903F90BC
:100D00002F900895AC01FC018191455F5F4F90E801
:100D1000899F90011124982F9695922B2191892FCC
:100D2000820FE417F50799F70895CF92DF92EF92BB
:100D3000FF920F931F93CF93DF93F701C480D58069
:100D4000C114D104D1F08C01C0E0D0E0C8018C0FF7
:100D50009D1F0E940101892B61F4F701808191811F
:100D6000A281B3810196A11DB11D80839183A283CD
:100D7000B3832296CC15DD0548F381E0DF91CF9156
:100D80001F910F91FF90EF90DF90CF9008952F92D9
:100D90003F924F925F926F927F928F929F92AF920B
:100DA000BF92CF92DF92EF92FF920F931F93CF9358
:100DB000DF93CDB7DEB72D970FB6F894DEBF0FBE29
:100DC000CDBFF701A080B180A281B3819096B3839B
:100DD000A283DC01FC90B5EEFB1611F0F11003C00C
:100DE000148281E037C14501DC011B96FC90BFE015
:100DF000FB1248C0F480FF2029F0DC011D96EC9026
:100E0000FE14A9F00F2EF1E3FF2EF02DD5011D9257
:100E1000FA94E9F7DC011D96FC90F482F50101A734
:100E200012A723A734A745A756A767A770ABDC0175
:100E30002C912F7330E0215031094DE0429FB001D9
:100E4000439F700D11242DE0E0E0F1E0DE011196EA
:100E500001900D922A95E1F76F31710508F4DDC01C
:100E60000FC021918C01020F111DD8012C91D501C9
:100E70002D935D01E617F70719F0E417F50789F7D9
:100E800081E0E8C07F01772E662E552E442E332E4A
:100E9000222E6C01F5018081882349F0C6010E9451
:100EA0008206D70114969C91981709F480C081E3BB
:100EB000F50111928A95E9F7D50199960C939997C6
:100EC0009A961C939A979B962C929B979C963C92F1
:100ED0009C979D964C929D979E965C929E979F960E
:100EE0006C929F97D0967C92F6018081803219F1A6
:100EF0006A2D9601295F3F4F0A2D1B2D04C03196A4
:100F000080818032C9F0D8018D938D01D6011C9665
:100F10009C9193FF0AC0908191549A3130F4A801BA
:100F200041505109805EDA018C93902F961BE21795
:100F3000F30729F701C090E0F5018081853011F4B5
:100F400085EE8083D60118968C911897803259F1DE
:100F500081E0890F2EE2F501E90FF11D2083F601F2
:100F6000389618962C912032D9F09C5F04C03196A7
:100F700020812032B9F0A401480F511DDA012C93D1
:100F8000D6011C963C9134FF07C0308131543A3170
:100F900018F4205EDA012C938F5F8913E8CF03C029
:100FA000982F01C0982FF501E90FF11D1082F6016D
:100FB0008385D50190968C93C6014A960E940101C3
:100FC000A0E0B0E0F50181A392A3A3A3B4A3C6015E
:100FD00044960E940101A0E0B0E0DC019927882737
:100FE000F50141A152A163A174A1842B952BA62BDD
:100FF000B72B81A392A3A3A3B4A3C6014C960E94CE
:101000000B01D50195966D937D938D939C93989745
:1010100081E0F701858380E01DC02981FC01E20F9A
:10102000F11D2081F501E60FF71F2083FE013296A6
:10103000DB011196AA0EBB1E4FE150E0461B570B79
:1010400001E010E00C0F1D1F400F511FBE01625F39
:101050007F4F13CF2D960FB6F894DEBF0FBECDBFD6
:10106000DF91CF911F910F91FF90EF90DF90CF9084
:10107000BF90AF909F908F907F906F905F904F90B8
:101080003F902F900895CF92DF92EF92FF920F93AF
:101090001F93CF93DF93F701C480D580C114D1048F
:1010A000E1F08C01C0E0D0E0C8018C0F9D1F0E94D0
:1010B0000B01672B682B692B61F4F701808191810B
:1010C000A281B3810196A11DB11D80839183A2836A
:1010D000B3832496CC15DD0538F381E0DF91CF9101
:1010E0001F910F91FF90EF90DF90CF9008952F9276
:1010F0003F924F925F926F927F928F929F92AF92A8
:10110000BF92CF92DF92EF92FF920F931F93CF93F4
:10111000DF93CDB7DEB7A6970FB6F894DEBF0FBE4C
:10112000CDBF009709F46EC16115710509F46CC15A
:101130006B01FC010190F081E02D848195819BA3DE
:101140008AA3DB0199969C9099979A968C909A978E
:101150009B967C909B979C966C909C979D965C90A0
:101160009D979E964C909E979F963C909F97D09669
:101170002C907DA36CA3FB0101900020E9F731972F
:101180005F01A61AB70A1A2DC50199270C966DE0C2
:1011900070E00E94752069A34BE050E060E270E0CF
:1011A000CE0101960E9497216EE270E0C6010E9476
:1011B000C0210097D1F0FC0121812223B1F0BC01B4
:1011C0006F5F7F4FFB0101900020E9F73197E61B2D
:1011D000F70BAA941A2D1E1BE43008F0E3E04E2F03
:1011E00050E0CE0109960E948E211930D0F4412F93
:1011F00050E0B601CE0101960E948E21D6018C915D
:101200008E3261F511968C9111978E3231F41296CF
:101210008C91811123C019A221C081111FC019A274
:101220001DC088E0F601DE01119601900D928A95AD
:10123000E1F7F60181A1803A28F4982F92959F70EA
:10124000905D04C0982F92959F709F599F838F70D7
:101250008A3010F4805D01C08F5988878981853E6E
:1012600011F485E08983FE013C9685E1DF011D9242
:101270008A95E9F7F60180A18C8781A192A1A3A1AB
:10128000B4A1BD0188279927CE0145960E941D0172
:10129000D60191966D917C919297CE014B960E94CA
:1012A0001D01F60145A156A167A170A5CE014D967D
:1012B0000E94210129A1F0E22F9FA0011124242FD7
:1012C000352F40E050E060E070E080E090E0A92C35
:1012D000B82CC72CD62CE52CF42C032D122D0E94F3
:1012E0005B216894EE24E5F8F12C8E010F5F1F4F0F
:1012F000EAA1FBA10995882309F48FC0C8010E94C7
:101300008206A82EF9A1FF2309F480C0DF2E0F2E3C
:10131000FEE0BF2EF02D0F2EFCE1CF2EF02DF0645D
:10132000FEA340E250E06FEF70E0CE0101960E9414
:1013300097218D2D90E001972DE0289FF001299FA6
:10134000F00D11248CA19DA1E80FF91F81E0BF01D0
:1013500001C0319691E0980FDB014D91BD0121E074
:1013600030E02C0F3D1F280F311DD9014C938E5FAB
:1013700021E030E02C0F3D1F290F311DD9011C92B7
:101380008B3009F445C08A3111F48C2D42C0908114
:10139000992311F08F31E8F2D982B9A1DB1202C092
:1013A000EEA1E983FFE0FC87AE861D861B8E1C8EB6
:1013B0006894EE24E5F8F12C8E010F5F1F4F292D64
:1013C000382D472D562D652D742D832D922DEAA194
:1013D000FBA10995292D382D472D562D652D742DEE
:1013E000832D922DA0E20E946421922E832E742ED2
:1013F000652E562E472E382E292EDA94D11091CFF5
:1014000081E00BC080E009C080E007C081E005C03A
:101410008B2D908191119DCFBFCFA6960FB6F894DA
:10142000DEBF0FBECDBFDF91CF911F910F91FF9017
:10143000EF90DF90CF90BF90AF909F908F907F9074
:101440006F905F904F903F902F9008952F923F9212
:101450004F925F926F927F928F929F92AF92BF92C4
:10146000CF92DF92EF92FF920F931F93CF93DF9370
:10147000CDB7DEB7C655D1090FB6F894DEBF0FBEA3
:10148000CDBF009709F470C2DC0114962D913C91F8
:101490001597232B09F46BC216962D913C91179743
:1014A000232B09F467C22091D9013091DA01232B53
:1014B00009F463C280E090E09CC2CE0101960E94D4
:1014C00001019AAF89AFCE0104960E9401019CAF41
:1014D0008BAFBB812496BFAF2497EE812596EFAFEB
:1014E0002597CE0107960E9401012F969FAF8EAFE0
:1014F0002F97CE0109960E9401017C01CE010C9626
:101500000E94010123969FAF8EAF2397CE0146968E
:101510000E940B015B016C01CE014A960E940B01F7
:1015200021966CAF7DAF8EAF9FAF2197CE01829693
:101530000E940B0167966CAF7DAF8EAF9FAF679730
:10154000A114B104C104D10439F4E114F10409F483
:1015500047C25701C12CD12C2396EEACFFAC239788
:10156000E114F10451F0870120E030E021960CAF46
:101570001DAF2EAF3FAF21970BC021964CAD5DAD97
:101580006EAD7FAD2197452B462B472B09F428C222
:1015900025965FAD2597A52FB0E021962CAD3DADEA
:1015A0004EAD5FAD21970E94C020860175012BAD25
:1015B0003CADE21AF30A01091109E61AF70A080B11
:1015C000190B2F968EAD9FAD2F97880F991F82957F
:1015D0009295907F9827807F982749AD5AAD4150CA
:1015E0005109840F951F69AD7AAD0E946120E61AFA
:1015F000F70A01091109C801B70124964FAD2497D4
:10160000042F10E020E030E0A90198010E94892019
:1016100063962CAF3DAF4EAF5FAF6397DA01C90160
:10162000853F5FE09507A105B10508F4D9C1853F65
:101630009F4FA105B10528F486E0D20118968C933E
:1016400003C08BE0F20180878CE2EBEDF1E0DF017B
:101650001D928A95E9F709AD1AAD780100E010E016
:1016600020E030E0A901E9AAFAAA0BAB1CAB2DAB34
:101670003EAB4FAB58AF0F2EF9ED8F2EF1E09F2E02
:10168000F02DA601950160E070E0CB012696AFAE8B
:10169000269727963FAF279728964FAF28972996EA
:1016A0005FAF29972A966FAF2A972B967FAF2B971C
:1016B0002C968FAF2C972D969FAF2D97AE2CBF2CCD
:1016C000C12CD12CE12CF12C00E010E060E070E0A6
:1016D00080E090E00E94CB20D40112962C931297C8
:1016E00013963C93139714964C93149715965C930A
:1016F000159716966C93169717967C9317971896CE
:101700008C93189719969C93EBADFCADAF012E2FDF
:10171000352F40E050E060E070E080E090E00E9413
:10172000CB20A62CB72CCEA0DEA4EFA4F8A8022DC7
:10173000132D0E945B21722E632E4EA75FA768AB0C
:101740007BAF282E392ED4011A962C931A971B960C
:101750003C931B971C964C931C971D965C931D976E
:101760001E966C931E971F967C931F9750968C9392
:10177000509751969C9363966CAD7DAD8EAD9FADA9
:1017800063976E5F7F4F8F4F9F4FF201208526300A
:1017900029F024E030E040E050E004C022E030E0F6
:1017A00040E050E0E9EDF1E00E945120628B738B44
:1017B000848B958BA9ACBAACB78AA68A2496CFAC99
:1017C0002497CA9CC001CB9C900D1124918F808FCF
:1017D000D20118968C91863009F063C02396EEAD45
:1017E000FFAD23978F01AE2EB12EC12CD12CE12C51
:1017F000F12C00E010E029A93AA940E050E060E0B7
:1018000070E080E090E00E94CB202596AFAC259759
:10181000B12C0E94CB20A72CB62CCEA4DFA4E8A824
:10182000FBAC022D132D0E945B21422E532E642E01
:10183000752E862E972EB82FA92FE9EDF1E022A361
:1018400033A344A355A366A377A380A791A72F969C
:101850002EAD3FAD2F9759013B2D40E050E060E0A9
:1018600070E080E090E005E00E942421A22EB32EDB
:10187000C42ED52EE62EF72E082F192F242D352D08
:10188000462D572D682D792D8B2F9A2F0E945B2185
:10189000228F338F448F558F668F778F80A391A3CC
:1018A000A6C00F2EF9ED8F2EF1E09F2EF02D25967C
:1018B000AFAC2597B12CC12CD12CE12CF12C00E040
:1018C00010E029A93AA940E050E060E070E080E033
:1018D00090E00E94CB202196CCACDDACEEACFFAC0E
:1018E000219756016701E12CF12C8701AEA2BFA21E
:1018F000C8A6D9A6EAA6FBA60CA71DA7E12CF12C29
:1019000000E010E00E94CB20A72CB62CCEA4DFA4D0
:10191000E8A8FBAC022D132D0E945B21D4015A963E
:101920002C935A975B963C935B975C964C935C9791
:101930005D965C935D975E966C935E975F967C93E5
:101940005F9790968C93909791969C9391976796BA
:10195000ACACBDACCEACDFAC67979A96AD92BD9205
:10196000CD92DC929D9743C080E090E042C080E041
:1019700090E03FC080E090E03CC02C01E9EDF1E058
:1019800082E3DF011D928A95E9F751824082F201DC
:1019900081849284A384B484282D392D4A2D5B2D13
:1019A00060E070E080E090E009E00E942421622E77
:1019B000732E4EA35EA76FA778AB282E392EABE00F
:1019C0000E9464210190F081E02D0F2EF5E2EF2EB0
:1019D000F12CF02D8E010F5F1F4F099581116DCDF8
:1019E0001092DA011092D90180E090E002C089EDF6
:1019F00091E0CA5ADF4F0FB6F894DEBF0FBECDBFDD
:101A0000DF91CF911F910F91FF90EF90DF90CF90DA
:101A1000BF90AF909F908F907F906F905F904F900E
:101A20003F902F900895009719F0FC0111821082C9
:101A30000895009781F06115710581F0FB0120A1E7
:101A400024FD0FC020919A0130919B01232B61F05E
:101A500080E090E0089580E090E0089580E090E0DC
:101A6000089580E090E0089521E3FB01ACE9B1E046
:101A700001900D922A95E1F7AAE9B1E011969C93A5
:101A80008E93D3961C92D397D4961C92D497D596C6
:101A90001C92D597D6961C92D697D7961C92D7971C
:101AA000D8961C92D897D9961C92D997DA961C9200
:101AB000DA97FB0141A152A163A174A1DB964D937A
:101AC0005D936D937C93DE97CD010895009719F097
:101AD000FC011182108208952F923F924F925F92E3
:101AE0006F927F928F929F92AF92BF92CF92DF922E
:101AF000EF92FF920F931F93CF93DF93CDB7DEB793
:101B00006B970FB6F894DEBF0FBECDBF998F888F4D
:101B10007A8B698B5F8B4E8B009709F403C2672B1E
:101B200009F403C2452B09F403C2DC01D396BC912E
:101B3000B987FC01F4A9FA87DC01D596BC91BB8773
:101B4000FC01F6A9FC87DC01D796BC91BD87FC019E
:101B5000F0ADFE87DC01D996BC91BF87FC01F2ADE8
:101B6000F88BFC0187A190A5A1A5B2A51C012D01B0
:101B700029853A854B855C856D857E858F8598891D
:101B8000A22CB32CC42CD52CE12CF12C00E010E0BD
:101B90000E94792111F008F0CEC10190F081E02D72
:101BA000E08CF18CFC8AEB8AA88DB98DDB964D9088
:101BB0005D906D907C90DE97C7010197E984FA846F
:101BC000E822F922FA82E982411451046104710485
:101BD00009F077C093964D905D906D907C909697AC
:101BE000411451046104710401F58F859889A0E0C6
:101BF0000E94822109F0A2C101E010E020E030E063
:101C000040E050E0BA01CF010E94A4032B013C0147
:101C1000A88DB98D93966D937D938D939C93969794
:101C2000672B682B692B09F48CC1E88DF98D13A9FA
:101C3000B4A905A9F6A867A970AD212F3B2F402FA5
:101C40005F2D81AD92ADA0E00E948221D1F1C12E25
:101C5000DB2EE02E0B891C894801A12CB12C1F0121
:101C600029C0C818D908EA08FB08B301A201D101AC
:101C70008D919C910E942701611571058105910547
:101C8000B9F4C114D104E104F10409F05DC101E02B
:101C900010E020E030E0B301A201F10180819181E8
:101CA0000E94A403611571058105910509F44FC1D6
:101CB0002B013C01C814D904EA04FB0490F6398EC8
:101CC000288E2E883F88E88CF98CFB8EEA8EAA8DB0
:101CD000BB8D0D911C91B301A201C8010E941F068A
:101CE000A22EB32EC42ED52EE62EF72E89879D8BDD
:101CF0008B889C88E981FA818E1A9F0A28143904FE
:101D000008F44101D8010D90BC91A02DB98FA88F86
:101D1000E981FA81AF012E2F352F40E050E060E0DD
:101D200070E080E090E009851D890E945B21A88D0C
:101D3000B98D1496ED91FC911597740109891A8952
:101D40000995882309F48AC0E989FA89E80DF91D03
:101D5000FA8BE98B28183908A401282D352F40E08B
:101D600050E060E070E080E090E0AA8DBB8DD396FB
:101D7000AC90D397D496BC90D497D596CC90D59769
:101D8000D696DC90D697D796EC90D797D896FC90BD
:101D9000D897D9960C91D997DA961C91DA970E9428
:101DA0005B21D3962C93D397D4963C93D497D59616
:101DB0004C93D597D6965C93D697D7966C93D79736
:101DC000D8967C93D897D9968C93D997DA969C938A
:101DD000DA97E981FA818E0E9F1EEB88FC888E14BB
:101DE0009F0478F1B301A2018D919C910E9427017B
:101DF000611571058105910501F521143104A1F0EA
:101E000001E010E020E030E0B301A201AA8DBB8D1B
:101E10008D919C910E94A4032B013C0161157105D9
:101E20008105910509F096C0EA8DFB8DF98FE88F49
:101E300013AE14AE15AE16AE15C02B013C011982BF
:101E40001A82EA8DFB8D43AE54AE65AE76AE211498
:101E5000310409F03CCFF98FE88F04C0EA8CFB8C89
:101E6000F98EE88EE88DF98DB3A9A4A985A896A866
:101E700067A970AD47A050A461A472A48301720148
:101E800020E030E0A9014982FA820B831C832D8374
:101E90003E834F8358872B2F3A2F482D592D81ADE4
:101EA00092ADA42CBF2CC02ED12EE12CF12C00E041
:101EB00010E00E94792189F180F1B7A3A0A781A643
:101EC00092A6BF016E5F7F4F808191810E9477084B
:101ED000811123C0A88DB98DD3962D903C90D497B5
:101EE00024183508E981D396EC93D397FA81D496D8
:101EF000FC93D497EB80D596EC92D597FC80D69640
:101F0000FC92D697D7961C92D797D8961C92D897C2
:101F1000D9961C92D997DA961C928E899F8982193C
:101F2000930923C08FEF9FEF20C08FEF9FEF1DC05D
:101F30008FEF9FEF1AC08FEF9FEF17C08FEF9FEFCC
:101F400014C080E090E011C08FEF9FEF0EC080E0E2
:101F500090E00BC0AA8DBB8DDB966D937D938D9326
:101F60009C93DE9719821A82B2CE6B960FB6F894C4
:101F7000DEBF0FBECDBFDF91CF911F910F91FF90BC
:101F8000EF90DF90CF90BF90AF909F908F907F9019
:101F90006F905F904F903F902F9008952F923F92B7
:101FA0004F925F926F927F928F929F92AF92BF9269
:101FB000CF92DF92EF92FF920F931F93CF93DF9315
:101FC000CDB7DEB764970FB6F894DEBF0FBECDBFB6
:101FD000009709F4A4C14D835E836F8378871C0149
:101FE000DC0193962D913D914D915C9196972D87B3
:101FF0003E874F87588BED91FC91808D918D232BDF
:10200000242B252B09F0CFC12D813E814F8158858E
:10201000232B242B252B09F431C1B5C14D805E80C3
:102020006F807884CD84DE84EF84F888B701A601C0
:10203000D1018D919C910E94270161157105810547
:10204000910561F0481859086A087B086B017C010A
:1020500084149504A604B70448F349C0CD86DE86EF
:10206000EF86F88AC98ADA8AEB8AFC8A8414950496
:10207000A604B70438F0C114D104E104F10409F452
:1020800056C135C0D501C4010197A109B109BC01F0
:10209000CD01640D751D861D971DA50194010E943B
:1020A000892089019A014D855E856F857889F101C6
:1020B000808191810E94A4036B017C01672B682BB6
:1020C000692B09F42EC129893A894B895C89232B14
:1020D000242B252B41F4D1019396CD92DD92ED92E4
:1020E000FC92969704C0CD84DE84EF84F8882D811D
:1020F0003E814F815885D10197962D933D934D9305
:102100005C939A97232B242B252B09F031C1F101E5
:1021100013A214A215A216A2B1016E5F7F4F808197
:1021200091810E947708882309F451C1B701A60163
:10213000D1018D919C910E94D901A0C08414950475
:10214000A604B70408F49AC0F1018080918081143C
:10215000910409F493C0F2E0CF16D104E104F10434
:1021600008F48CC0B701A601C4010E9427012B010D
:102170003C01D401ED91FC9180858B30E9F58FEF26
:102180009FEFAFEFBFE089839A83AB83BC83560197
:1021900067012A2D3B2D4C2D5D2D60E070E080E025
:1021A00090E002E00E942421D4011A96AC901A9784
:1021B0001B96BC901B971C96CC901C971D96DC9090
:1021C0001D971E96EC901E971F96FC901F97509699
:1021D0000C91509751961C910E945B210480F581CF
:1021E000E02D6894EE24E2F8F12C8E010F5F1F4F72
:1021F0000995811139C042C08FEF9FEF9A8389837F
:10220000560167012A2D3B2D4C2D5D2D60E070E0BD
:1022100080E090E001E00E942421D4011A96AC9065
:102220001A971B96BC901B971C96CC901C971D96DA
:10223000DC901D971E96EC901E971F96FC901F97A2
:1022400050960C91509751961C910E945B210480EE
:10225000F581E02D6894EE24E1F8F12C8E010F5FFA
:102260001F4F0995882351F04114510461047104F2
:1022700029F0B301A201C4010E94D9014D815E8100
:102280006F8178859A01AB0160E070E0CB012D830E
:102290003E834F83588769877A878B879C87D101D4
:1022A000D396AC90D397D496BC90D497D596CC9037
:1022B000D597D696DC90D697D796EC90D797D896A8
:1022C000FC90D897D9960C91D997DA961C91DA9709
:1022D00060E070E080E090E00E94792120F5D396E4
:1022E0002C93D397D4963C93D497D5964C93D5976B
:1022F000D6965C93D697D7961C92D797D8961C9271
:10230000D897D9961C92D997DA961C92DA97DB96D1
:102310001D921D921D921C92DE9781E058C080E0B4
:1023200056C080E054C081E052C080E050C0D5016A
:10233000C4010197A109B109BC01CD01640D751D4E
:10234000861D971DA50194010E94892089019A018B
:1023500040E050E0BA01F101808191810E94A40324
:102360006B017C01672B682B692B09F0B4CEDDCFA4
:10237000B1016E5F7F4FD1018D919C910E947708D2
:102380008111DCCE24C04C01A12CB12C2D813E81C9
:102390004F81588582169306A406B50608F43ECEF2
:1023A00029013A01C4CF4C01A12CB12C4D815E8191
:1023B0006F81788584169506A606B70608F42ECE9A
:1023C0002A013B01CD84DE84EF84F88890CE6496A8
:1023D0000FB6F894DEBF0FBECDBFDF91CF911F9136
:1023E0000F91FF90EF90DF90CF90BF90AF909F90B4
:1023F0008F907F906F905F904F903F902F900895B7
:10240000AF92BF92CF92DF92EF92FF920F931F9302
:10241000CF93DF93EC01892B09F455C06115710549
:1024200009F453C0EBA95CA93DA92EA9413051F094
:1024300018F04230A9F04BC0FB01C080D180E2808F
:10244000F3801BC08E2F952FA32FB22FFB01C080CE
:10245000D180E280F380C80ED91EEA1EFB1E0DC09B
:10246000FB01C080D180E280F3808FA198A5A9A54F
:10247000BAA5C80ED91EEA1EFB1E5B018FA198A546
:10248000A9A5BAA58C159D05AE05BF0538F4B70101
:10249000A601CE010E94CE0F8823D1F097018601BC
:1024A000CBAA1CAB2DAB3EAB1FAA18AE19AE1AAE11
:1024B0001BAE1CAE1DAE1EAEF501C082D182E28203
:1024C000F38281E005C080E003C080E001C080E0CD
:1024D000DF91CF911F910F91FF90EF90DF90CF9000
:1024E000BF90AF900895CF93DF930097B1F061153F
:1024F0007105B1F0FB0120A124FF15C02091280136
:1025000030912901232B91F02091610130916201DA
:10251000232B79F080E090E025C080E090E022C09D
:1025200080E090E01FC080E090E01CC0C8E2D1E0F5
:1025300002C0C1E6D1E0DE01129621E3FB01019069
:102540000D922A95E1F799838883FB0181A192A1DD
:10255000A3A1B4A18BAB9CABADABBEAB18AE1FAA15
:102560008C2F9D2FDF91CF910895009719F0FC01DA
:10257000118210820895FC01892B61F083A194A13E
:10258000A5A1B6A183AB94ABA5ABB6AB10AE17AA11
:1025900081E0089580E008952F923F924F925F92DC
:1025A0006F927F928F929F92AF92BF92CF92DF9263
:1025B000EF92FF920F931F93CF93DF93CDB7DEB7C8
:1025C000E6970FB6F894DEBF0FBECDBF009709F4B3
:1025D000F3C06115710509F4F1C09EAB8DABFC0130
:1025E00020803180F101608C718CFC0123A934A919
:1025F00045A956A929AB3AAB4BAB5CAB47A850AC4D
:102600004614570420F00E94BB1210E0DAC09E016D
:102610002F5F3F4F86E0F90111928A95E9F781E338
:10262000FB0111928A95E9F77A83698329A93AA96E
:102630004BA95CA9232B242B252B09F0A7C0D10182
:10264000ED91FC91119780858B3059F49A962D91DC
:102650003D914D915C919D9729AB3AAB4BAB5CABF7
:1026600095C0F101228D338D82A193A13901681AA1
:10267000790A8CC093012419350938AB2FA7A20120
:1026800060E070E080E090E0DC014FA258A769A70D
:102690007AA78BA79CA7ADA7BEA769A97AA98BA982
:1026A0009CA9672B682B692B19F5242D352F40E049
:1026B00050E060E070E080E090E0D1019296AC9054
:1026C00092979396BC9093979496CC909497959666
:1026D000DC9095979696EC9096979796FC909797A6
:1026E00098960C91989799961C910E945B2111C025
:1026F00049A95AA96BA97CA9C1010E941F06AFA0D4
:10270000B8A4C12CD12CE12CF12C00E010E00E94E7
:102710005B211C821B82D101ED91FC910280F3812F
:10272000E02DDE0111964D010F2EF7ECAF2EF6E0F5
:10273000BF2EF02DCFA4D8A86894EE24E5F8F12C94
:102740008E01095F1F4F09958823D1F18B819C81F0
:10275000480E591E46145704C8F049A95AA96BA936
:102760007CA9C1010E94270169AB7AAB8BAB9CAB02
:10277000672B682B692B41F41E8111110BC08DA9A9
:102780009EA90E94BB121DC0412C512C8E81882312
:1027900009F470CF29A93AA94BA95CA9ADA9BEA992
:1027A000D3962D933D934D935C93D697D8965C9298
:1027B0004E92D7971E8105C010E003C010E001C003
:1027C000182F812FE6960FB6F894DEBF0FBECDBF4F
:1027D000DF91CF911F910F91FF90EF90DF90CF90FD
:1027E000BF90AF909F908F907F906F905F904F9031
:1027F0003F902F9008954F925F926F927F928F92A9
:102800009F92AF92BF92CF92DF92EF92FF920F937F
:102810001F93CF93DF934C016B01EA01892B09F4DD
:1028200076C06115710509F474C0FB0180818823AD
:1028300009F471C0209709F470C08F3219F4FFEFCA
:10284000CF1ADF0A81E3FE0111928A95E9F780E150
:1028500088A3F6018081882309F461C0412C512CA2
:10286000BE01C4010E9473128C01892B09F459C066
:102870006FE270E0C6010E949E21009741F0E82EB1
:10288000EC185C01FFEFAF1ABF0AF12C2DC0F60166
:1028900001900020E9F73197EC19FD09EE2E560161
:1028A000AE0EB11CF2CFFE0101900020E9F7319786
:1028B0003F016C1A7D0A6E147F04B1F4A301BE01BE
:1028C000C6010E94B221892B79F4C8010E94B51279
:1028D000F601E60DF71D8081882329F198A1892F43
:1028E000807194FD08C020C0BE01C8010E94CC12B6
:1028F0008111D9CF03C06501042D152DC8010E9497
:10290000B512F60180818111ABCF81E00DC080E06E
:102910000BC080E009C080E007C080E005C081E016
:1029200003C080E001C081E0DF91CF911F910F9142
:10293000FF90EF90DF90CF90BF90AF909F908F90DF
:102940007F906F905F904F9008952F923F924F929B
:102950005F926F927F928F929F92AF92BF92CF922F
:10296000DF92EF92FF920F931F93CF93DF93009725
:1029700009F454C0AC01DC01ED91FC911197808504
:102980008B3049F552968D919D910D90BC91A02D63
:10299000B695A79597958795B695A7959795879599
:1029A0000297A109B1091C012D01FA01008D118DB9
:1029B000A02EB12EC12CD12CE12CF12C00E010E086
:1029C000282F332D442D552D60E070E080E090E0FD
:1029D0000E94CB202BC0FA0182899389A489B589F2
:1029E000B695A795979587950297A109B1091C01FE
:1029F0002D01008D118DA02EB12EC12CD12CE12CDA
:102A0000F12C00E010E0282F332D442D552D60E0EF
:102A100070E080E090E00E94CB2008C020E030E031
:102A200040E050E060E070E080E090E0DF91CF9126
:102A30001F910F91FF90EF90DF90CF90BF90AF90DC
:102A40009F908F907F906F905F904F903F902F90CE
:102A500008952F923F924F925F926F927F928F9242
:102A60009F92AF92BF92CF92DF92EF92FF920F931D
:102A70001F93CF93DF93CDB7DEB7E0970FB6F894EF
:102A8000DEBF0FBECDBF009709F4B9C098AB8FA7CA
:102A900019A21AA21BA21CA280E290E09EA38DA301
:102AA000AFA5B8A91A96BC91BFA3EFA5F8A9F38565
:102AB000F8A7AFA5B8A91C96BC91B9A7EFA5F8A92E
:102AC000F585FAA7AFA5B8A91E96BC91BBA7EFA53F
:102AD000F8A9F785FCA7AFA5B8A95096BC91BDA7EA
:102AE000EFA5F8A9F189FEA7AFA5B8A952962D9038
:102AF0003D904D905C905597211431044104510450
:102B000009F460C032012101BEEF4B16BFEF5B0636
:102B10006104710410F4120106C00F2EFEEF2F2E77
:102B2000F02D33243A94EFA5F8A9A081B181129633
:102B3000ED91FC91139718968C91863031F083E4D7
:102B400098E0A82EDC01BB2E05C085E996E0A82EF2
:102B5000DC01BB2ECE0181964C0161016894EE240C
:102B6000E5F8F12C8E010F5F1F4F2FA138A549A565
:102B70005AA56BA57CA58DA59EA50995882309F46A
:102B800047C04101222D392D40E050E060E070E067
:102B900080E090E0AFA0B8A4C9A4DAA4EBA4FCA4A0
:102BA0000DA51EA50E945B212FA338A749A75AA7F0
:102BB0006BA77CA78DA79EA74218530861087108D0
:102BC00009F0A2CFAFA5B8A958962D903C9059977F
:102BD00009A11AA12BA13CA1A02EB12EC22ED32E49
:102BE000E12CF12C00E010E0222D332D40E050E0EC
:102BF00060E070E080E090E00E94CB2011C020E017
:102C000030E040E050E060E070E080E090E008C03C
:102C100020E030E040E050E060E070E080E090E0F4
:102C2000E0960FB6F894DEBF0FBECDBFDF91CF9117
:102C30001F910F91FF90EF90DF90CF90BF90AF90DA
:102C40009F908F907F906F905F904F903F902F90CC
:102C500008959F92AF92BF92CF92DF92EF92FF9230
:102C60000F931F93CF93DF93CDB7DEB7C457D1092E
:102C70000FB6F894DEBF0FBECDBF83B7817F83BF91
:102C80000E94331F78940F2EFEE09F2EF02D83EBD1
:102C900091E00E943E200E94581A811104C085E9EB
:102CA00091E00E943E2000E02BE33DE141EF5BE13B
:102CB00061E57BE18EE199E10E94EC175C01892BD3
:102CC00091F40FEF2BE33DE141EF5BE161E57BE147
:102CD0008EE199E10E94EC175C01892B21F48BE7CE
:102CE00091E00E943E20C5010E94260A6C010097D7
:102CF00009F03BC180E691E00E943E20AE014E5CAF
:102D00005F4F6DE071E080E090E00E94FB13BE0138
:102D10006E5C7F4F80E090E00E9473127C01892BF3
:102D200009F0AEC038C1CE0101960E94F31D882380
:102D300009F4A6C086EE90E00E943E2089810E94A0
:102D40004F1F8AE00E943F1F8DED90E00E943E20C1
:102D5000CE0102960E942F208AE00E943F1F84ED40
:102D600090E00E943E20CE0105960E942F208AE02E
:102D70000E943F1F8BEC90E00E943E208B850E94BA
:102D80004F1F8AE00E943F1F80EC90E00E943E208F
:102D90006C857D858E859F850E94761F8AE00E94C6
:102DA0003F1F87EB90E00E943E20898990E00E94BF
:102DB000871F8FE20E943F1F888990E00E94871F33
:102DC0008AE00E943F1F8EEA90E00E943E202A89FE
:102DD0003B894C895D896E897F89888D998D04E155
:102DE0000E943F21622F732F842F952F0E94CA1FAC
:102DF0008AEA90E00E943E2081EA90E00E943E2014
:102E00008A8D90E00E94871F8AE00E943F1F88E918
:102E100090E00E943E208C8D90E00E94871F8FE200
:102E20000E943F1F8B8D90E00E94871F8AE00E94C6
:102E30003F1F8FE890E00E943E208D8D90E00E9421
:102E4000871F8AE00E943F1F86E890E00E943E2094
:102E5000C6010E942915622F732F842F952F0E947F
:102E6000CA1F8FE20E943F1FC6010E94A514622F55
:102E7000732F842F952F0E94CA1F8AE00E943F1F44
:102E8000EFE0F1E0DE01AD59BF4F892D01900D92C9
:102E90008A95E1F716C0BE016D597F4FCE010196AC
:102EA0000E94A921892B69F4C7010E94BB12BE01AF
:102EB0006F5F7F4FC6010E94190D8C01892B71F441
:102EC00009C0BE016F5F7F4FC7010E94CC12811104
:102ED000E2CF66C085E391E00E943E20E5961CAEFD
:102EE0001DAE1EAE1FAEE59742E0BE016F587F4F8C
:102EF000C8010E940012811110C083E291E00E947B
:102F00003E20CE018D599F4F0E942F208AE00E94C3
:102F10003F1FC8010E94660DBACE8BE0EDE1F1E0E3
:102F2000DE01119601900D928A95E1F78EE091E015
:102F30000E943E204BE050E0BE016F5F7F4FC80112
:102F40000E946C0D0B9779F5C8010E94660DC701B0
:102F50000E94B512C6010E94130DC5010E949C1863
:102F600081EF90E00E943E20FFCFAE014E5C5F4FAC
:102F70006DE071E00E94FB13BE016E5C7F4FC601E5
:102F80000E9473127C01892B09F0CDCE81E491E07F
:102F90000E943E20C8CE81E491E00E943E2070CF86
:102FA00000E010E097CF87EF90E00E943E2080E0A5
:102FB00090E0CC58DF4F0FB6F894DEBF0FBECDBF08
:102FC000DF91CF911F910F91FF90EF90DF90CF9005
:102FD000BF90AF909F9008956F927F928F929F9233
:102FE000AF92BF92CF92DF92EF92FF920F931F9317
:102FF000CF93DF93CDB7DEB760970FB6F894DEBFFF
:103000000FBECDBF009771F16115710571F10430EC
:103010007CF500230CF475C039014A015B016C0199
:1030200080E10802F0011124E254FE4F9F2F990F16
:10303000990B6894EE24E4F8F12C8E010F5F1F4F7A
:103040002E2F3F2F492F592F692F792F892FF601C6
:103050000995882381F08D8181113AC00FC08BE0E2
:1030600092E055C080E090E052C080E090E04FC018
:1030700080E090E04CC080E090E049C080E090E0CB
:1030800046C00BE012E081E1D8011D928A95E9F774
:10309000F801D182C082B382A28295828482778233
:1030A00066828D818087CE0109960E940B01D8012E
:1030B00019966D937D938D939C931C97CE010D96DD
:1030C0000E940B01F801658776878787908BC7CFB1
:1030D000809113028823A9F280E090E018C0EBE011
:1030E000F2E011E1DF011D921A95E9F791838083E7
:1030F0007383628355834483378326838FEF80876E
:10310000AECFE0911302EE2351F380E090E06096A1
:103110000FB6F894DEBF0FBECDBFDF91CF911F91E8
:103120000F91FF90EF90DF90CF90BF90AF909F9066
:103130008F907F906F900895009721F0FC0110868A
:1031400081E0089580E008958EBD0DB407FEFDCFA7
:103150008DB58F778DBD08958FEF8EBD0DB407FEB1
:10316000FDCF8DB58F778DBD8EB50895FF920F93EE
:103170001F93CF93DF93C82FD42F152F062FF72E31
:103180000E94AC188C2F80640E94A4188F2D0E947E
:10319000A418802F0E94A418812F0E94A4188D2F9C
:1031A0000E94A418CC2319F0C83029F008C085E982
:1031B0000E94A4180FC087E80E94A4180BC08FEFCC
:1031C0000E94A41807C00E94AC188F3F29F4C15078
:1031D000D1F702C0CAE0F7CFDF91CF911F910F91D5
:1031E000FF900895EF92FF920F931F9380911D021D
:1031F00081111EC020911E0230911F0240912002B9
:10320000509121026091220270912302E12C689476
:10321000FF24F1F806E212E0809124029091250249
:103220000E94F11B882329F081E080931D0201C0D8
:1032300081E01F910F91FF90EF9008952F923F92A0
:103240004F925F926F927F928F929F92AF92BF92B6
:10325000CF92DF92EF92FF920F931F93CF93DF9362
:10326000CDB7DEB76A970FB6F894DEBF0FBECDBFFD
:1032700029833A834B835C836D837E838F83988716
:103280001C8B0B8B2701EF2809F4F8C0612C689484
:10329000772471F80F2EF6E22F2EF4E03F2EF02D5A
:1032A0007A8E698E89809A8021E09222940140E092
:1032B00050E060E070E0CB0189863A874B875C87FD
:1032C0006D877E878F87988B29813A814B815C81BE
:1032D0006D817E818F819885A984BA84C12CD12C7F
:1032E000E12CF12C00E010E00E947021298B3A8B38
:1032F000642E752E6D8B7E8B8F8B988F498D5A8D9A
:10330000481959095A8749874416550610F45A86B0
:103310004986A0901E02B0901F02C0902002D0905B
:103320002102E0902202F0902302009124021091E9
:10333000250229893A89462D572D6D897E898F89E5
:10334000988D0E94792109F463C00E94F2188823A5
:1033500009F495C02A9880911C0282FF10C0298927
:103360003A89462D572D6D897E898F89988D09E080
:103370000E943F21642F752F422F532F04C049898B
:103380005A89662D772D81E10E94B618882319F09D
:103390002A9A80E074C00E94AC188E3FE1F706E2E2
:1033A00012E00E94AC18F80181938F01E215F30539
:1033B000C1F7F989F0931E022A8920931F026092B7
:1033C0002002709221023D89309322024E8940935F
:1033D00023025F8950932402688D60932502B40113
:1033E0006A5D7D4F49855A858B899C890E948E2113
:1033F0008B899C89E985FA858E0F9F1F9C8B8B8B0F
:103400000E94AC180E94AC182A9A0E94AC1811C0F5
:10341000B4016A5D7D4F49855A858B899C890E94DC
:103420008E212B893C8949855A85240F351F3C8B79
:103430002B8B69857A85461A570A4B01262F392D21
:1034400040E050E060E070E080E090E0A980BA8069
:10345000CB80DC80ED80FE800F8118850E945B218F
:1034600029833A834B835C836D837E838F83988724
:103470004114510409F016CF81E001C081E06A9641
:103480000FB6F894DEBF0FBECDBFDF91CF911F9175
:103490000F91FF90EF90DF90CF90BF90AF909F90F3
:1034A0008F907F906F905F904F903F902F900895F6
:1034B0009F92AF92BF92CF92DF92EF92FF920F93C3
:1034C0001F93CF93DF93239A259A229A24982A9ABE
:1034D00083E58CBD8DB58E7F8DBD10921C021AE0E8
:1034E0000E94AC181150E1F72A98C0E0D2E040E009
:1034F00050E0BA0180E00E94B618813029F021978F
:10350000B1F72A9A012FC0C04AEA51E060E070E0AA
:1035100088E00E94B618C82FC47082FD1DC00E94AA
:10352000AC180E94AC180E94AC18082F017080FFE4
:10353000ABC00E94AC188A3A09F0A5C080911C0269
:10354000826080931C02C0E0D0E8912CA12CB12CA9
:103550006894CC24C6F814C040E050E0BA0187E378
:103560000E94B61840E050E0BA0189E20E94B61805
:1035700082FDE9CF80911C02816080931C02E3CF21
:1035800080911C02982F9370C9F081FF05C0D92C3F
:10359000EA2CFB2C0C2D04C0D12CE12CF12C00E0EA
:1035A00040E050E0BA0187E30E94B6184D2D5E2D31
:1035B0006F2D702F89E20E94B61806C040E050E0DF
:1035C000BA0181E00E94B618082F017080FF05C083
:1035D0002197B1F62A9A012F57C0C0911C02C1FF52
:1035E00017C040E050E0BA018AE30E94B618882371
:1035F00011F02A9A49C00E94AC1886FF03C0C4602B
:10360000C0931C020E94AC180E94AC180E94AC1817
:1036100040E052E060E070E080E10E94B61888234C
:1036200011F02A9A31C02A9A8CB58C7F8CBD8DB549
:1036300081608DBD8FEF80931E0280931F02809367
:1036400020028093210280932202809323028093A0
:1036500024028093250281E080931D02E12C68946E
:10366000FF24F1F806E212E020E030E040E050E014
:1036700060E070E080E090E00E941E1901E081119E
:1036800003C000E001C00C2F802FDF91CF911F916C
:103690000F91FF90EF90DF90CF90BF90AF909F90F1
:1036A00008952F923F924F925F926F927F928F92E6
:1036B0009F92AF92BF92CF92DF92EF92FF920F93C1
:1036C0001F93CF93DF93CDB7DEB764970FB6F8940F
:1036D000DEBF0FBECDBF2F87388B498B5A8B362E5E
:1036E000272E8B8B9C8B1A83098337012601BC867E
:1036F000AB86012B09F453C0E114F10409F451C065
:10370000CE14DF0408F44FC0AB2809F44EC0970173
:10371000EB823C839E868D86AF84B888C988DA8820
:103720009B888C88730109811A812A2D3B2D4C2D91
:103730005D2D632D722D892D982D0E941E198823D1
:10374000B9F1ED84FE840A2D1B2D2C2D3D2D432D2A
:10375000522D692D782D89819A81EB85FC850995FB
:10376000882329F12B813C8140E050E060E070E04B
:1037700080E090E0E32CF22C092D182D0E945B21B3
:10378000A22EB32EC42ED52E362E272E982E892E5D
:10379000461857084614570428F681E009C080E00F
:1037A00007C080E005C080E003C080E001C081E088
:1037B00064960FB6F894DEBF0FBECDBFDF91CF91F8
:1037C0001F910F91FF90EF90DF90CF90BF90AF903F
:1037D0009F908F907F906F905F904F903F902F9031
:1037E00008952F923F924F925F926F927F928F92A5
:1037F0009F92AF92BF92CF92DF92EF92FF920F9380
:103800001F93CF93DF93CDB7DEB769970FB6F894C8
:10381000DEBF0FBECDBF29833A834B835C836D83AC
:103820007E838F83988738012701EF2809F407C129
:103830000F2EF6E22F2EF4E03F2EF02D29813A8153
:103840003170398F288F40E050E060E070E0CB01AC
:1038500029873A874B875C876D877E878F87988B10
:1038600029813A814B815C816D817E818F81988530
:10387000A984BA84C12CD12CE12CF12C00E010E0F9
:103880000E9470212987398B4A8B5B8B6C8B7D8BD7
:103890008E8B9F8B812C6894992491F8688D798DFB
:1038A000861A970A4814590408F44201A0901E028F
:1038B000B0901F02C0902002D0902102E09022021E
:1038C000F090230200912402109125022985398964
:1038D0004A895B896C897D898E899F890E947921BB
:1038E000C1F10E94F218882309F4ACC0888D998D2B
:1038F000892B21F4811492E0990698F4E12C6894C4
:10390000FF24F1F806E212E0298539894A895B89AA
:103910006C897D898E899F890E941E19882309F4EC
:1039200091C0E985E0931E02F989F0931F022A896C
:10393000209320023B89309321024C89409322023C
:103940005D89509323026E89609324027F8970936E
:10395000250286E2681682E0780671F0A401B301C0
:10396000888D998D8A5D9D4F0E948E2110921D0237
:103970004814590409F465C02A9880911C0282FFFA
:1039800010C0298539894A895B896C897D898E892E
:103990009F8909E00E943F21642F752F422F532FEA
:1039A00004C0498559896A897B8988E10E94B618D3
:1039B000882319F02A9A80E045C08EEF0E94A4184F
:1039C00006E212E0F80181918F010E94A41802150D
:1039D0001305C1F78FEF0E94A4188FEF0E94A4185F
:1039E0000E94AC188F3FE1F70E94AC182A9A680C2D
:1039F000791C5401282D3B2D40E050E060E070E040
:103A000080E090E0A980BA80CB80DC80ED80FE80F1
:103A10000F8118850E945B2129833A834B835C8345
:103A20006D837E838F83988748185908F1E0F0935F
:103A30001D024114510409F001CF81E003C081E06F
:103A400001C081E069960FB6F894DEBF0FBECDBF0E
:103A5000DF91CF911F910F91FF90EF90DF90CF906A
:103A6000BF90AF909F908F907F906F905F904F909E
:103A70003F902F9008952F923F924F925F926F92B6
:103A80007F928F929F92AF92BF92CF92DF92EF92EE
:103A9000FF920F931F93CF93DF93CDB7DEB7289795
:103AA0000FB6F894DEBF0FBECDBF562E472E1A8339
:103AB0000983DC82CB82BE82AD82012B09F448C02F
:103AC000CD2809F447C0F886EF82A22EB32EC42E6B
:103AD000D52E982E892E170132C08F819885861594
:103AE0009705D0F1730109811A812A2D3B2D4C2DA8
:103AF0005D2D652D742D892D982D0E94F11B882335
:103B000009F458C0A301262D352F40E050E060E0B5
:103B100070E080E090E0E52CF42C092D182D0E9437
:103B20005B21A22EB32EC42ED52E562E472E982EB4
:103B3000892EEF81F885E619F709F887EF832114BC
:103B4000310421F18F819885892B61F481E032C0A5
:103B500080E030C080E02EC080E02CC081E02AC030
:103B600081E028C0ED80FE800A2D1B2D2C2D3D2DDF
:103B7000452D542D692D782D89819A81EB81FC8109
:103B800009953C01892B09F0A8CFE8CFED80FE8094
:103B90000A2D1B2D2C2D3D2D452D542D692D782DB5
:103BA00089819A81EB81FC8109953C01892B09F07F
:103BB00099CFD6CF28960FB6F894DEBF0FBECDBFF3
:103BC000DF91CF911F910F91FF90EF90DF90CF90F9
:103BD000BF90AF909F908F907F906F905F904F902D
:103BE0003F902F9008959F92AF92BF92CF92DF9215
:103BF000EF92FF920F931F93CF93DF93009709F4F7
:103C000024C17C018DE1F70111928A95E9F72A9888
:103C100040E050E0BA018AE00E94B618C82E88231E
:103C200019F02A9AC12C12C10E94AC188E3FE1F7FC
:103C3000E701219600E610E0DD24D39404C0D3947C
:103C40000850110921960E94AC18EFEFED0D4E2F90
:103C500050E04F305105C8F5FA01EC5CFF4F0C9471
:103C6000AB20F7018083EBCFFE01319780832DC01D
:103C700088832BC0F7018287E2CF90E0A0E0B0E01C
:103C8000002E04C0880F991FAA1FBB1F0A94D2F7E9
:103C9000F7014385548565857685842B952BA62B66
:103CA000B72B83879487A587B6870FC08295807FBF
:103CB000F7018787C4CF982F92959F70F7012785CA
:103CC000922B97878F70808BBACFF1E1FD1508F0AA
:103CD000B6CF40E050E0BA0189E00E94B618C82F84
:103CE000882311F02A9AB2C00E94AC188E3FE1F7E7
:103CF000D1E010E0C12CD12CB12CA12C99249394AB
:103D000002C0CF5FDF5F0E94AC18C11106C0182F40
:103D10001295169516951370F4CFCE30B1F486FF38
:103D200002C0F701918E85FF02C0F701928E84FFD9
:103D300002C0F701938E482F4C7050E0559547957F
:103D400055954795F701448FDCCF113039F5C730D1
:103D500021F040F0CA3010F005C08F733C2D2227AF
:103D60006901C82AC93009F069C0FFEFCF1ADF0A1C
:103D7000A6012C2D352F40E050E060E070E080E09F
:103D800090E003E10E942421F701218B328B438BC9
:103D9000548B658B768B878B908FB3CF11114EC070
:103DA000C730A9F028F4C53049F0C63051F046C0FC
:103DB000C93001F1A0F0CA3009F140C08F70A82EBF
:103DC000A0CF8370282F30E0D22ECC249ACF96013A
:103DD000282B6901CC0CDD1CCC0CDD1C92CF82950C
:103DE0008695869583709601282B6901FFEFCF1A7F
:103DF000DF0A87CF8370B82EBB0C83CF881F88273C
:103E0000881FB82AC601A0E0B0E06A2D70E06B0DF3
:103E1000711D6E5F7F4F04C0880F991FAA1FBB1FC3
:103E20006A95D2F79C01AD01F701218B328B438B50
:103E3000548B158A168A178A108E63CFD23108F4F4
:103E400060CF2A9ACC24C39401C0C12C8C2DDF9161
:103E5000CF911F910F91FF90EF90DF90CF90BF9087
:103E6000AF909F9008951092C50087E68093C4009C
:103E700086E08093C20088E98093C1000895CF93C3
:103E8000C82F8A3019F48DE00E943F1FE0ECF0E06B
:103E9000908195FFFDCFC093C600CF910895CF9339
:103EA000C82F82958F708A3020F4805D0E943F1F5A
:103EB00003C0895A0E943F1F8C2F8F70282F30E03B
:103EC0002A30310524F4805D0E943F1F03C0895AC7
:103ED0000E943F1FCF910895CF93C82F892F0E9432
:103EE0004F1F8C2F0E944F1FCF910895CF92DF92CA
:103EF000EF92FF926B017C01C7010E946C1FC6010B
:103F00000E946C1FFF90EF90DF90CF900895CF92AA
:103F1000DF92EF92FF920F931F93CF93DF936C0189
:103F20000F2EF5E0EF2EF12CF02D40E0C0E1D7E2AE
:103F300001E0C601BE010E946120162F611105C07B
:103F4000411103C0C130D10529F480E3810F0E94E3
:103F50003F1F402F1C9FC0011D9F900D1124C81AA8
:103F6000D90A9E01ADECBCEC0E94B120EC01D695C3
:103F7000C795D695C795D695C79581E0E81AF108FB
:103F8000C1F6DF91CF911F910F91FF90EF90DF90DD
:103F9000CF9008953F924F925F926F927F928F924F
:103FA0009F92AF92BF92CF92DF92EF92FF920F93C8
:103FB0001F93CF93DF934B015C010AE010E0D0E048
:103FC0000F2EC12CFAECDF2EFAE9EF2EFBE3FF2EC9
:103FD000F02D332433940F2EFAE04F2E512C612C08
:103FE000712CF02DC501B401A70196010E94892012
:103FF000C22F211108C0D11106C081E0C816D1041A
:10400000E104F10429F480E38C0F0E943F1FD32DBB
:10401000AC2FB0E0A70196010E94C020861A970A33
:10402000A80AB90AC701B601A30192010E9489201A
:1040300069017A0101501109A9F6DF91CF911F9111
:104040000F91FF90EF90DF90CF90BF90AF909F9037
:104050008F907F906F905F904F903F900895CF9397
:10406000DF93EC018881882331F021960E943F1F65
:1040700089918111FBCFDF91CF910895CF93DF9389
:10408000EC012196FC018491882339F00E943F1FA6
:10409000FE01849121968111F9CFDF91CF9108958E
:1040A0001895DB018F939F930E94C020BF91AF9121
:1040B000A29F800D911DA39F900DB29F900D112482
:1040C0000895AA1BBB1B51E107C0AA1FBB1FA6175F
:1040D000B70710F0A61BB70B881F991F5A95A9F7B1
:1040E00080959095BC01CD01089597FB072E16F49D
:1040F000009407D077FD09D00E94612007FC05D00D
:104100003EF4909581959F4F0895709561957F4FEE
:104110000895A1E21A2EAA1BBB1BFD010DC0AA1F08
:10412000BB1FEE1FFF1FA217B307E407F50720F020
:10413000A21BB30BE40BF50B661F771F881F991F9B
:104140001A9469F760957095809590959B01AC01E4
:10415000BD01CF010895EE0FFF1F0590F491E02DF2
:104160000994A29FB001B39FC001A39F700D811D50
:104170001124911DB29F700D811D1124911D089570
:104180000E94B120A59F900DB49F900DA49F800D1B
:10419000911D11240895DF93CF931F930F939A9D40
:1041A000F02D219FF00D8B9DF00D8A9DE02DF10DDE
:1041B000039FF00D029FE00DF11D4E9DE00DF11DDE
:1041C0005E9DF00D4F9DF00D7F936F93BF92AF9268
:1041D0005F934F93D5010E94B1208B01AC01D701B1
:1041E0000E94B120EB01E80FF91FD6010E941B21AC
:1041F0002F913F91D6010E94B120C60FD71FE81F13
:10420000F91FAF91BF910E941B212F913F910E94F6
:10421000B120C60FD71FE81FF91FD6010E94B12099
:10422000E60FF71F9801BE01CF0111240F911F91D6
:10423000CF91DF9108950E94B120460F571FC81FEC
:10424000D91F08F4319608950F93083090F0982FF5
:10425000872F762F652F542F432F322F2227085078
:10426000F4CF220F331F441F551F661F771F881F6F
:10427000991F0A95B2F70F91089597FB10F81694BD
:1042800000080F93083098F00850232F342F452F43
:10429000562F672F782F892F902DF4CF059497955F
:1042A00087957795679557954795379527950A95FB
:1042B000AAF70F9108952A0D3B1D4C1D5D1D6E1D23
:1042C0007F1D801F911F08950024A7FD00942A0FD1
:1042D000301D401D501D601D701D801D901D0895D6
:1042E0002A193B094C095D096E097F09800B910B66
:1042F00008952A153B054C055D056E057F05800771
:10430000910708950024A7FD00942A173005400561
:10431000500560057005800590050895FB01DC01DE
:1043200002C001900D9241505040D8F70895DC0131
:1043300001C06D9341505040E0F70895FC01819118
:10434000861721F08823D9F7992708953197CF014F
:104350000895FB01DC018D91019080190110D9F3C2
:10436000990B0895FB01DC014150504030F08D91D4
:104370000190801919F40020B9F7881B990B089552
:10438000FC0181E090E00190061609F4CF010020C5
:0A439000D1F701970895F894FFCFCC
:10439A0001030507090E10121416181C1E2F0074AB
:1043AA0065737477726974652E74787400546869D9
:0843BA007369737465787400E7
:00000001FF
