:100000000C94C8000C94E5000C94E5000C94E500F9
:100010000C94E5000C94E5000C94E5000C94E500CC
:100020000C94E5000C94E5000C94E5000C94E500BC
:100030000C94E5000C94E5000C94E5000C94E500AC
:100040000C94E5000C94E5000C94B9060C94E406BD
:100050000C94E5000C94E5000C94E5000C94E5008C
:100060000C94E5000C94E500084AD73B3BCE016EAA
:1000700084BCBFFDC12F3D6C74319ABD56833DDAFF
:100080003D00C77F11BED9E4BB4C3E916BAAAABE0E
:10009000000000803F0000407A10F35A00A0724E2A
:1000A00018090010A5D4E80000E87648170000E41D
:1000B0000B54020000CA9A3B000000E1F505000065
:1000C00080969800000040420F000000A0860100CA
:1000D0000000102700000000E8030000000064009A
:1000E000000000000A000000000001000000000005
:1000F0002C76D888DC674F0823DFC1DFAE59E1B129
:10010000B796E5E3E453C63AE651997696E8E6C237
:100110008426EB898C9B62ED407C6FFCEFBC9C9F3E
:1001200040F2BAA56FA5F490055A2AF75C936B6C60
:10013000F9676DC11BFCE0E40D47FEF520E6B50054
:10014000D0ED902E0300943577050080841E0800C2
:1001500000204E0A000000C80C333333330F986E72
:1001600012831141EF8D2114893BE65516CFFEE62F
:10017000DB18D1844B381BF77C1D901DA4BBE424F5
:10018000203284725E228100C9F124ECA1E53D2772
:1001900011241FBECFEFD8E0DEBFCDBF11E0A0E03D
:1001A000B1E0E0E6F9E102C005900D92A430B1079C
:1001B000D9F721E0A4E0B1E001C01D92A735B20754
:1001C000E1F70E9419030C94AE0C0C9400001092FD
:1001D000B9008CE08093B800089594EA9093BC0035
:1001E0004FEF50E060E070E0ECEBF0E0908199239D
:1001F00034F04150510961097109C0F704C0452B21
:10020000462B472B41F19091B900987F983011F01F
:10021000903119F58093BB0084E88093BC008FEF88
:1002200090E0A0E0B0E0ECEBF0E0208122232CF0A5
:100230000197A109B109C8F704C0892B8A2B8B2B20
:1002400071F09091B900987F983159F081E0903425
:1002500049F480E0089581E0089581E0089581E007
:10026000089580E0089584E98093BC0080E090E0E8
:10027000ECEBF0E0208124FF05C00196811521E020
:100280009207C1F708958093BB0084E88093BC0077
:100290008FEF90E0A0E0B0E0ECEBF0E020812223D3
:1002A0002CF00197A109B109C8F704C0892B8A2B4A
:1002B0008B2B41F09091B900987F81E0983219F42E
:1002C00080E0089581E0089584EC8093BC008FEF76
:1002D00090E0A0E0B0E0ECEBF0E0208122232CF0F5
:1002E0000197A109B109C8F704C0892B8A2B8B2B70
:1002F00019F08091BB00089580E0089584E8809310
:10030000BC008FEF90E0A0E0B0E0ECEBF0E02081EB
:1003100022232CF00197A109B109C8F704C0892B49
:100320008A2B8B2B19F08091BB00089580E00895F3
:100330002F923F924F925F926F927F928F929F92F5
:10034000AF92BF92CF92DF92EF92FF920F931F93E3
:10035000CF93DF93CDB7DEB72A970FB6F894DEBF01
:100360000FBECDBF9A8789871B012D833E834F83A4
:10037000588727013801CA01B9010E940C0A698314
:100380007A838B839C83C601B5010E940C0A6B01A2
:100390007C01A701960169817A818B819C810E94F1
:1003A0004C070E94CC099B01AC01C301B2010E9421
:1003B000CB07E985FA856083718382839383C301C8
:1003C000B2010E940C0A4B015C01A5019401C70116
:1003D000B6010E944C070E94CC099B01AC016D81C3
:1003E0007E818F8198850E94CB07DC01CB01B058BC
:1003F000F10180839183A283B3832A960FB6F89488
:10040000DEBF0FBECDBFDF91CF911F910F91FF9047
:10041000EF90DF90CF90BF90AF909F908F907F90A4
:100420006F905F904F903F902F9008954F925F9202
:100430006F927F928F929F92AF92BF92CF92DF92F4
:10044000EF92FF920F931F93CF93DF9300D000D0D2
:1004500000D0CDB7DEB78C01CB01BA013E832D832E
:10046000F9014080518062807380C480D580E6802D
:10047000F78020E030E04EE952E40E942A084B0168
:100480005C01A7019601C701B6010E944C07ED81EE
:10049000FE8120853185428553850E944C07698302
:1004A0007A838B839C83A3019201C301B2010E94D2
:1004B0004C079B01AC0169817A818B819C810E94F0
:1004C0004C07A50194010E944C0720E030E040EC6D
:1004D00050E40E942A089B01AC01F80160817181FF
:1004E000828193810E944C07F8016083718382832B
:1004F0009383ED81FE81C086D186E286F3864482B5
:1005000055826682778280829182A282B382269609
:100510000FB6F894DEBF0FBECDBFDF91CF911F9114
:100520000F91FF90EF90DF90CF90BF90AF909F9092
:100530008F907F906F905F904F9008958F929F92D1
:10054000AF92BF92CF92DF92EF92FF920F931F93E1
:10055000CF93DF934C015B016A01E90126EC3CED8E
:1005600045EB5CE3FC0160817181828193810E9493
:100570004B07F40160837183828393832BE236EF10
:1005800047E15DE3F50160817181828193810E9481
:100590004B07F501608371838283938327E53BE5F5
:1005A00041EB5DE3F60160817181828193810E945C
:1005B0004C07F601608371838283938327E230EADC
:1005C00049E05CE3688179818A819B810E944B07C5
:1005D000688379838A839B8329E23DEE45EA5FE362
:1005E000F80160817181828193810E944B07F8013B
:1005F000608371838283938325E733E940EA5FE375
:10060000F70160817181828193810E944B07F7011C
:100610006083718382839383DF91CF911F910F91C8
:10062000FF90EF90DF90CF90BF90AF909F908F9012
:100630000895CF93DF93CDB7DEB7C656D1090FB675
:10064000F894DEBF0FBECDBF1A8219821C821B82B6
:100650001E821D8218861F821A8619861C861B869A
:100660001D861E861F86188A198A1A8A1B8A1C8A6A
:100670001D8A1E8A1F8A188E198E1A8E1B8E1C8E3A
:100680001D8E1E8E1F8E18A219A21AA21BA21CA2BA
:100690001DA21EA21FA218A619A61AA61BA61CA65A
:1006A0001DA61EA61FA618AA19AA1AAA1BAA1CAA2A
:1006B0001DAA1EAA1FAA18AE19AE1AAE1BAE1CAEFA
:1006C00021961CAE1DAE1EAE1FAE219725961CAE08
:1006D0001DAE1EAE1FAE259729961CAE1DAE1EAEDA
:1006E0001FAE29972D961CAE1DAE1EAE1FAE2D97C8
:1006F00061961CAE1DAE1EAE1FAE619765961CAE18
:100700001DAE1EAE1FAE659769961CAE1DAE1EAE29
:100710001FAE69976D961CAE1DAE1EAE1FAE6D97D7
:1007200089E190E00E940E0778940E946E052FEFF9
:1007300080E792E0215080409040E1F700C0000047
:10074000CE010B967C018E01075F1F4F9E01295F32
:100750003F4FAE014B5F5F4FBE016D5F7F4F0A970A
:100760000E94A205CE0181967C010C5E1F4F9E0166
:10077000275E3F4FAE014B5E5F4FBE016F5E7F4F06
:1007800044970E94F005C7019E01275E3F4FAE01CE
:100790004B5E5F4FBE016F5E7F4F44970E949E028B
:1007A000498D5A8D6B8D7C8D9E012F5C3F4FCE0104
:1007B00085960E9416024D8D5E8D6F8D78A19E01EB
:1007C000235C3F4FCE0189960E94160249A15AA18F
:1007D0006BA17CA19E01275B3F4FCE018D960E94AD
:1007E0001602AD88BE88CF88D88CE988FA880B8934
:1007F0001C892D853E854F855889BE01675A7F4FDC
:10080000CE018B5A9F4F0E9498016D857E858F8502
:1008100098898E01035A1F4F25E043E00E94250A64
:10082000C8010E943C0780E20E94270769897A89F3
:100830008B899C8925E043E00E94250AC8010E941B
:100840003C0780E20E9427076D897E898F89988DF9
:1008500025E043E00E94250AC8010E943C0780E28F
:100860000E942707698D7A8D8B8D9C8D25E043E052
:100870000E94250AC8010E943C0780E20E942707C7
:100880006D8D7E8D8F8D98A125E043E00E94250A15
:10089000C8010E943C0780E20E94270769A17AA153
:1008A0008BA19CA125E043E00E94250AC8010E947B
:1008B0003C0780E20E94270780E091E00E943C070D
:1008C0008FE39CE90197F1F700C0000039CFAF92A8
:1008D000BF92CF92DF92FF920F931F93CF93DF933C
:1008E0006623B9F1C52FD42FF62E182F80ED0E9464
:1008F000ED00812F0E94430185E38A95F1F7000006
:1009000081ED0E94ED000D2F1C2FCC24CA94CF0C3A
:10091000D12CEFEFCE1ADE0AC0E0D0E0AF2CB12C24
:10092000F1E0AF1AB108AC16BD0629F40E947E01B1
:10093000F801808304C00E946401F801808321963D
:100940000F5F1F4FCC15DD0571F7CF2D0E943301CE
:1009500001C0C0E08C2FDF91CF911F910F91FF90CC
:10096000DF90CF90BF90AF900895AB0161E00E94FF
:1009700067040895EF92FF920F931F93CF93DF9335
:100980006623D1F07A01162FC82F80ED0E94ED006A
:100990008C2F0E944301E7016FEF610F062F10E0DB
:1009A0000F5F1F4F0E0D1F1D89910E944301C0173D
:1009B000D107D1F70E943301DF91CF911F910F91A1
:1009C000FF90EF900895CF93DF931F92CDB7DEB7DE
:1009D0006983AE014F5F5F4F61E00E94BA040F90E0
:1009E000DF91CF910895EF92FF920F931F93CF93D2
:1009F000DF931F92CDB7DEB7442389F1F22E142F77
:100A0000062FE82E1982BE016F5F7F4F0E94B5044A
:100A1000882329F1402F50E0411B51094F5F5F4F60
:100A200081E090E002C0880F991F1A95E2F70197C4
:100A3000042E02C0880F991F0A94E2F72F2D30E090
:100A400002C0220F331F4A95E2F7682F6095998103
:100A500069238223682B69838E2D0E94E3040F9003
:100A6000DF91CF911F910F91FF90EF900895FF922A
:100A70000F931F93CF93DF931F92CDB7DEB7182F3D
:100A8000062FF42EBE016F5F7F4F0E94B504FF203A
:100A900051F061E070E002C0660F771F0A95E2F73F
:100AA0008981682B0AC061E070E002C0660F771F81
:100AB0000A95E2F76095898168236983812F0E94F6
:100AC000E3040F90DF91CF911F910F91FF90089554
:100AD00040E066E08BE60E94370508950E94E7003B
:100AE00025E32A95F1F700008FEF91EE24E0815085
:100AF00090402040E1F700C000000E9468058FE3AD
:100B00009CE90197F1F700C0000021E043E062E0BA
:100B10008BE60E94F30423E043E062E08AE10E9456
:100B2000F30464E089E10E94E30420E042E064E031
:100B30008BE10E94F30421E042E064E08CE10E943A
:100B4000F30408958F929F92AF92BF92CF92DF925B
:100B5000EF92FF920F931F93CF93DF934C015B01B2
:100B60006A01E90149E451E06EE08BE30E94670409
:100B7000E9E4F1E02081818190E0922BD4018D9312
:100B80009C932281838190E0922BD5018D939C933D
:100B90002481858190E0922BD6018D939C932085B2
:100BA000818590E0922B998388832285838590E0CC
:100BB000922BD8018D939C932485858590E0922B70
:100BC000F70191838083DF91CF911F910F91FF9067
:100BD000EF90DF90CF90BF90AF909F908F9008954F
:100BE0002F923F924F925F926F927F928F929F923D
:100BF000AF92BF92CF92DF92EF92FF920F931F932B
:100C0000CF93DF93CDB7DEB72C970FB6F894DEBF46
:100C10000FBECDBF3C014B015A01690128011701EC
:100C20001A8219821C821B821E821D8218861F82D4
:100C30001A8619861C861B86CE010B967C018E01B6
:100C4000075F1F4F9E01295F3F4FAE014B5F5F4F14
:100C5000BE016D5F7F4F0A970E94A20569817A816C
:100C6000072E000C880B990B0E949E0820E030E0B4
:100C700040E059E30E945909F30160837183828344
:100C800093836B817C81072E000C880B990B0E944B
:100C90009E0820E030E040E059E30E945909F40149
:100CA00060837183828393836D817E81072E000C24
:100CB000880B990B0E949E0820E030E040E059E349
:100CC0000E945909F50160837183828393836F8148
:100CD0007885072E000C880B990B0E949E0820E057
:100CE00030E043E053E40E942A08F60160837183F8
:100CF0008283938369857A85072E000C880B990B74
:100D00000E949E0820E030E043E053E40E942A085D
:100D1000F20160837183828393836B857C85072EC8
:100D2000000C880B990B0E949E0820E030E043E005
:100D300053E40E942A08F1016083718382839383C4
:100D40002C960FB6F894DEBF0FBECDBFDF91CF91CA
:100D50001F910F91FF90EF90DF90CF90BF90AF90D9
:100D60009F908F907F906F905F904F903F902F90CB
:100D700008951F920F920FB60F9211242F938F9305
:100D80009F93EF93FF938091C0002091C6008871DC
:100D9000E0910601EF5FEF7190910501E91739F0DD
:100DA000E0930601F0E0E75FFE4F208301C082E0A0
:100DB00080930401FF91EF919F918F912F910F905C
:100DC0000FBE0F901F9018951F920F920FB60F92A3
:100DD00011248F939F93EF93FF939091080180913B
:100DE0000701981769F0E0910701EF5FEF71E09359
:100DF0000701F0E0E75DFE4F80818093C60005C0EB
:100E0000E1ECF0E080818F7D8083FF91EF919F91F5
:100E10008F910F900FBE0F901F90189510920801A0
:100E2000109207011092060110920501992324F4F3
:100E300022E02093C0009F779093C5008093C40068
:100E400088E98093C10086E08093C20008952091D4
:100E500008012F5F2F71909107012917E1F3E22F0D
:100E6000F0E0E75DFE4F808320930801E1ECF0E0C5
:100E70008081806280830895CF93DF93EC01888125
:100E8000882331F021960E94270789918111FBCF99
:100E9000DF91CF9108955058BB27AA270E9463077E
:100EA0000C9417090E94090938F00E94100920F0DB
:100EB00039F49F3F19F426F40C94DF080EF4E09502
:100EC000E7FB0C94D908E92F0E94280958F3BA17B8
:100ED000620773078407950720F079F4A6F50C9450
:100EE0004A090EF4E0950B2EBA2FA02D0B01B90183
:100EF00090010C01CA01A0011124FF27591B99F090
:100F0000593F50F4503E68F11A16F040A22F232F9B
:100F1000342F4427585FF3CF469537952795A795EB
:100F2000F0405395C9F77EF41F16BA0B620B730B92
:100F3000840BBAF09150A1F0FF0FBB1F661F771F03
:100F4000881FC2F70EC0BA0F621F731F841F48F4B8
:100F5000879577956795B795F7959E3F08F0B0CF41
:100F60009395880F08F09927EE0F97958795089528
:100F70000E94090960F080E891E009F49EEF0E9468
:100F8000100928F040E851E071F45EEF0CC00C94B9
:100F9000DF080C944A09E92FE0780E94280940F301
:100FA000092E052AB1F3261737074807590738F0E5
:100FB0000E2E07F8E02569F0E025E0640AC0EF6333
:100FC00007F8009407FADB01B9019D01DC01CA01B1
:100FD000AD01EF930E9441080E9417090E94FB0790
:100FE0005F91552339F02BED3FE049E450FD49EC8A
:100FF0000C944C070895DF93DD27B92FBF7740E8A5
:101000005FE31616170648075B0718F4D92F0E94EE
:1010100051099F938F937F936F930E940C0AE8E688
:10102000F0E00E94E2080E9417092F913F914F9132
:101030005F910E946C09DD2351F09058A2EA2AEDDD
:101040003FE049EC5FE3D0785D270E946307DF91C2
:101050000C9417090E943E080C9417090E9410096D
:1010600058F00E94090940F029F45F3F29F00C94E0
:10107000D90851110C944B090C94DF080E942809DF
:1010800068F39923B1F3552391F3951B550BBB27B7
:10109000AA2762177307840738F09F5F5F4F220FFC
:1010A000331F441FAA1FA9F335D00E2E3AF0E0E8F3
:1010B00032D091505040E695001CCAF72BD0FE2F3D
:1010C00029D0660F771F881FBB1F261737074807D1
:1010D000AB07B0E809F0BB0B802DBF01FF27935889
:1010E0005F4F3AF09E3F510578F00C94D9080C946C
:1010F0004B095F3FE4F3983ED4F386957795679567
:10110000B795F7959F5FC9F7880F911D96958795BD
:1011100097F90895E1E0660F771F881FBB1F6217DC
:1011200073078407BA0720F0621B730B840BBA0B9A
:10113000EE1F88F7E0950895E89409C097FB3EF408
:1011400090958095709561957F4F8F4F9F4F992314
:10115000A9F0F92F96E9BB279395F6958795779592
:101160006795B795F111F8CFFAF4BB0F11F460FF52
:101170001BC06F5F7F4F8F4F9F4F16C0882311F0AA
:1011800096E911C0772321F09EE8872F762F05C0BE
:10119000662371F096E8862F70E060E02AF09A9559
:1011A000660F771F881FDAF7880F9695879597F94E
:1011B000089597F99F6780E870E060E008959FEFD9
:1011C00080EC0895DF93CF931F930F93FF92EF92DC
:1011D000DF927B018C01689406C0DA2EEF010E9439
:1011E0006C09FE01E894A5912591359145915591A1
:1011F000A6F3EF010E946307FE019701A801DA94AC
:1012000069F7DF90EF90FF900F911F91CF91DF91E1
:10121000089500240A94161617061806090608955C
:1012200000240A9412161306140605060895092EC2
:101230000394000C11F4882352F0BB0F40F4BF2B31
:1012400011F460FF04C06F5F7F4F8F4F9F4F089571
:1012500057FD9058440F551F59F05F3F71F0479567
:10126000880F97FB991F61F09F3F79F0879508954C
:10127000121613061406551FF2CF4695F1DF08C06B
:10128000161617061806991FF1CF86957105610588
:1012900008940895E894BB2766277727CB0197F930
:1012A00008959B01AC0160E070E080E89FE30C943E
:1012B0002A080E946C090C9417090E94090938F049
:1012C0000E94100920F0952311F00C94D9080C9479
:1012D000DF0811240C944B090E94280970F3959F94
:1012E000C1F3950F50E0551F629FF001729FBB271D
:1012F000F00DB11D639FAA27F00DB11DAA1F649FB9
:101300006627B00DA11D661F829F2227B00DA11D6B
:10131000621F739FB00DA11D621F839FA00D611DF1
:10132000221F749F3327A00D611D231F849F600D12
:10133000211D822F762F6A2F11249F5750409AF03B
:10134000F1F088234AF0EE0FFF1FBB1F661F771FC7
:10135000881F91505040A9F79E3F510580F00C9492
:10136000D9080C944B095F3FE4F3983ED4F386957B
:1013700077956795B795F795E7959F5FC1F7FE2B32
:10138000880F911D9695879597F9089519F416F48D
:101390000C94DF080C94100A0E943009B8F39923CA
:1013A000C9F3B6F39F57550B87FF0E941E0A00240E
:1013B000A0E640EA900180585695979528F4805C05
:1013C000660F771F881F20F026173707480730F46D
:1013D000621B730B840B202931294A2BA695179485
:1013E0000794202531254A2758F7660F771F881F55
:1013F00020F026173707480730F4620B730B840B75
:10140000200D311D411DA09581F7B901842F915800
:10141000880F9695879508959B01AC010C94590906
:101420009F3F31F0915020F4879577956795B79558
:10143000880F911D9695879597F908959150504082
:10144000660F771F881FD2F70895EF920F931F93AF
:10145000CF93DF93E80147FD02C034E001C034E1DF
:10146000042E000C550B57FF03C0519541955109AF
:10147000E32E022F242FAE010E94450ACE01DF91F8
:10148000CF911F910F91EF900895A9E0B0E0EBE4A8
:10149000FAE00C947D0C6A01122FB02E2BE320177A
:1014A00020F0FF24F394F00E02C02CE3F22E0F2D57
:1014B00027E0AE014F5F5F4F0E949F0BBC01498147
:1014C000842F8970813031F0E1FC06C0E0FE06C057
:1014D00090E205C09DE203C09BE201C090E05E2D5A
:1014E000507143FF3CC0911102C083E001C084E011
:1014F000811718F4212F281B01C020E051110BC0C7
:10150000F601822F30E2882319F031938150FBCF0E
:10151000C20ED11C20E0992329F0D6019C93F6013C
:1015200031966F01C6010396E2FE0AC03EE4D60181
:101530003C9341E411964C93119712963C9306C04C
:101540003EE6F601308341E641833283FC01322FCF
:1015500040E2332309F442C041933150FACF42FFB5
:1015600044C0911102C083E001C084E0811718F4E7
:10157000212F281B01C020E051110BC0F601822F42
:1015800030E2882319F031938150FBCFC20ED11C79
:1015900020E0992329F0D6019C93F60131966F0142
:1015A000C6010396E2FE0BC039E4D6013C933EE44B
:1015B00011963C93119736E412963C9307C039E696
:1015C000F60130833EE6318336E63283FC01322F6A
:1015D00040E2332319F041933150FBCFFC01E20F7D
:1015E000F11D10828EEF9FEFA6C021E030E0911137
:1015F00002C020E030E0161617061CF4FB013196FD
:1016000002C0E1E0F0E02E0F3F1FBB2021F0EB2DE8
:10161000F0E0319602C0E0E0F0E02E0F3F1FE12F36
:10162000F0E02E173F071CF4121B212F01C020E011
:101630008E2D887159F4F601822F30E2882319F03B
:1016400031938150FBCFC20ED11C20E0992329F0A9
:10165000D6019C93F60131966F0151110BC0F60132
:10166000822F90E3882319F091938150FBCFC20E13
:10167000D11C20E00F2D060F9A81342F307144FFCA
:1016800003C0913309F40150101624F4093018F006
:1016900008E001C001E0AB0177FF02C040E050E08C
:1016A000FB01E41BF50BA1E0B0E0AC0FBD1FEA0F9E
:1016B000FB1F8EE2A82E4B01801A91080B2D10E023
:1016C0001195019511094F3FBFEF5B0721F4D6013A
:1016D000AC9211966D01641775072CF0841695066F
:1016E00014F4818101C080E3415051093196D60143
:1016F00011967D014017510724F0D6018C936701A4
:10170000E2CF6417750739F4963320F4953319F452
:10171000311101C081E3F6018083F701822F90E24D
:10172000882319F091938150FBCFF701E20FF11D4F
:10173000108280E090E02996ECE00C94990C28301F
:1017400008F027E03327DA01990F311D87FD9160FA
:1017500000966105710539F432602E5F3D9330E3E8
:101760002A95E1F708959F3F30F0803871056105B3
:1017700009F03C5F3C5F3D93913008F08068911D1B
:10178000DF93CF931F930F93FF92EF92192F987FC0
:101790009695E92F96959695E90FFF27E051FF4F13
:1017A00099273327EE24FF24A701E7010590089429
:1017B000079428F4360FE71EF81E491F511D660FC7
:1017C000771F881F991F0694A1F70590079428F4A6
:1017D000E70EF81E491F561FC11D770F881F991F5E
:1017E000661F0694A1F70590079428F4F80E491F88
:1017F000561FC71FD11D880F991F661F771F06949C
:10180000A1F70590079420F4490F561FC71FD81F52
:10181000990F661F771F881F0694A9F7849110956A
:10182000177041F0D695C79557954795F794E7946B
:101830001A95C1F7E6E9F0E0689415901591359195
:101840006591959105907FE27395E118F10A430B3C
:10185000560BC90BD009C0F7E10CF11E431F561FF0
:10186000C91FD01D7EF4703311F48A95E6CFE89439
:10187000015030F0080F0AF40027021708F4202F57
:101880002395022F7A3328F079E37D932A95E9F79F
:1018900010C07D932A9589F606949795679537959C
:1018A00017951794E118F10A430B560BC90BD00991
:1018B00098F023957E9173957A3308F070E37C93CA
:1018C0002013B8F77E9170617D9330F0839571E3BA
:1018D0007D9370E32A95E1F71124EF90FF900F912B
:1018E0001F91CF91DF91992787FD909508952F92B1
:1018F0003F924F925F926F927F928F929F92AF92A0
:10190000BF92CF92DF92EF92FF920F931F93CF93EC
:10191000DF93CDB7DEB7CA1BDB0B0FB6F894DEBF83
:101920000FBECDBF09942A88398848885F846E84A9
:101930007D848C849B84AA84B984C884DF80EE80F3
:10194000FD800C811B81AA81B981CE0FD11D0FB6FC
:10195000F894DEBF0FBECDBFED010895F894FFCF20
:041960000D0A00006C
:00000001FF
