S01200006D70755F6D616E75616C2E73726563E3
S11300000C94E6000C9403010C9403010C9403017A
S11300100C9403010C9403010C9403010C9403014C
S11300200C9403010C9403010C9403010C9403013C
S11300300C9403010C9403010C9403010C9403012C
S11300400C94CB090C9403010C94E60B0C94110C46
S11300500C9403010C9403010C9403010C9403010C
S11300600C9403010C940301036EDB363D9A9999B9
S1130070993DABAAAA2A3E000000803F084AD73B1C
S11300803BCE016E84BCBFFDC12F3D6C74319ABD63
S113009056833DDA3D00C77F11BED9E4BB4C3E9187
S11300A06BAAAABE000000803F072C7AA5BA6CC5D3
S11300B090DA3B9365FC8BBC53F810FD3C5692835D
S11300C04DBD879D3AB63DCBC9BF5BBE73DA0FC940
S11300D03F0000407A10F35A00A0724E1809001035
S11300E0A5D4E80000E87648170000E40B540200A9
S11300F000CA9A3B000000E1F505000080969800D4
S1130100000040420F000000A086010000001027FC
S113011000000000E803000000006400000000008C
S11301200A00000000000100000000002C76D888BE
S1130130DC674F0823DFC1DFAE59E1B1B796E5E3D1
S1130140E453C63AE651997696E8E6C28426EB89EA
S11301508C9B62ED407C6FFCEFBC9C9F40F2BAA587
S11301606FA5F490055A2AF75C936B6CF9676DC11F
S11301701BFCE0E40D47FEF520E6B500D0ED902E23
S11301800300943577050080841E080000204E0A81
S1130190000000C80C333333330F986E12831141BF
S11301A0EF8D2114893BE65516CFFEE6DB18D1848A
S11301B04B381BF77C1D901DA4BBE42420328472B1
S11301C05E228100C9F124ECA1E53D2711241FBE64
S11301D0CFEFD8E0DEBFCDBF11E0A0E0B1E0EAEAA6
S11301E0F4E202C005900D92A830B107D9F721E0DE
S11301F0A8E0B1E001C01D92A337B207E1F70E9465
S1130200B6010C9453120C9400001092B90082E0D1
S11302108093B800089594EA9093BC004FEF50E0A7
S113022060E070E0ECEBF0E09081992334F0415011
S1130230510961097109C0F704C0452B462B472BAE
S113024041F19091B900987F983011F0903119F5EF
S11302508093BB0084E88093BC008FEF90E0A0E023
S1130260B0E0ECEBF0E0208122232CF00197A1090F
S1130270B109C8F704C0892B8A2B8B2B71F090919C
S1130280B900987F983159F081E0903449F480E0C6
S1130290089581E0089581E0089581E0089580E063
S11302A0089584E98093BC0080E090E0ECEBF0E0FA
S11302B0208124FF05C00196811521E09207C1F732
S11302C008958093BB0084E88093BC008FEF90E096
S11302D0A0E0B0E0ECEBF0E0208122232CF00197C9
S11302E0A109B109C8F704C0892B8A2B8B2B41F0D3
S11302F09091B900987F81E0983219F480E00895D4
S113030081E0089584EC8093BC008FEF90E0A0E03E
S1130310B0E0ECEBF0E0208122232CF00197A1095E
S1130320B109C8F704C0892B8A2B8B2B19F0809153
S1130330BB00089580E0089584E88093BC008FEFAB
S113034090E0A0E0B0E0ECEBF0E0208122232CF080
S11303500197A109B109C8F704C0892B8A2B8B2BFB
S113036019F08091BB00089580E00895CF93DF9346
S1130370CDB7DEB7A6970FB6F894DEBF0FBECDBFDC
S113038080E090E0A0E8BFE389839A83AB83BC83D9
S11303901D821E821F82188619861A861B861C8659
S11303A01D861E861F86188A198A1A8A1B8A1C8A29
S11303B01D8A1E8A1F8A188E198E1A8E1B8E1C8EF9
S11303C083E390E00E943B0C78940E94A0032FE703
S11303D088E391E0215080409040E1F700C00000A4
S11303E09E01235F3F4FAE01475F5F4FBE016B5FCE
S11303F07F4FCE0101960E94EF09AE01475E5F4F29
S1130400BE016B5E7F4FCE0141960E942C0A8FE1A4
S11304109EE40197F1F700C0000020E030E044E3DF
S113042053E46D897E898F89988D0E94FE0E26E59E
S11304303EE049E450E40E94770D4B015C0120E06A
S113044030E044E353E4698D7A8D8B8D9C8D0E945A
S1130450FE0E26E53EE049E450E40E94770D6B0170
S11304607C0120E030E044E353E469897A898B8994
S11304709C890E94FE0E26E53EE049E450E40E9479
S1130480770D8E01035E1F4F25E043E00E94CA0FE3
S1130490C8010E94690C80E20E94540C25E043E0EC
S11304A0C501B4010E94CA0FC8010E94690C80E210
S11304B00E94540C25E043E0C701B6010E94CA0F14
S11304C0C8010E94690C80E20E94540C84E091E00F
S11304D00E94690C84E091E00E94690C9FEF29E678
S11304E088E1915020408040E1F700C0000078CFBF
S11304F0AF92BF92CF92DF92FF920F931F93CF934D
S1130500DF936623B9F1C52FD42FF62E182F80ED73
S11305100E940B01812F0E9461018AE18A95F1F703
S113052000C081ED0E940B010D2F1C2FCC24CA9416
S1130530CF0CD12CEFEFCE1ADE0AC0E0D0E0AF2C06
S1130540B12CF1E0AF1AB108AC16BD0629F40E9433
S11305509C01F801808304C00E948201F801808319
S113056021960F5F1F4FCC15DD0571F7CF2D0E942B
S1130570510101C0C0E08C2FDF91CF911F910F91E9
S1130580FF90DF90CF90BF90AF900895AB0161E0F2
S11305900E9478020895EF92FF920F931F93CF93D6
S11305A0DF936623D1F07A01162FC82F80ED0E94C5
S11305B00B018C2F0E946101E7016FEF610F062F81
S11305C010E00F5F1F4F0E0D1F1D89910E946101E6
S11305D0C017D107D1F70E945101DF91CF911F912C
S11305E00F91FF90EF900895CF93DF931F92CDB7B3
S11305F0DEB76983AE014F5F5F4F61E00E94CB02BB
S11306000F90DF91CF910895FF920F931F93CF9393
S1130610DF931F92CDB7DEB7F62E8A01BE016F5F5E
S11306207F4F0E94C60221E030E002C0220F331F38
S1130630FA94E2F799812923F80120830F90DF913E
S1130640CF911F910F91FF900895EF92FF920F9316
S11306501F93CF93DF931F92CDB7DEB7442389F165
S1130660F22E142F062FE82E1982BE016F5F7F4FE2
S11306700E94C602882329F1402F50E0411B5109F2
S11306804F5F5F4F81E090E002C0880F991F1A9579
S1130690E2F70197042E02C0880F991F0A94E2F72B
S11306A02F2D30E002C0220F331F4A95E2F7682F46
S11306B06095998169238223682B69838E2D0E941A
S11306C0F4020F90DF91CF911F910F91FF90EF9063
S11306D00895FF920F931F93CF93DF931F92CDB78B
S11306E0DEB7182F062FF42EBE016F5F7F4F0E94D6
S11306F0C602FF2051F061E070E002C0660F771F70
S11307000A95E2F78981682B0AC061E070E002C0B3
S1130710660F771F0A95E2F76095898168236983DC
S1130720812F0E94F4020F90DF91CF911F910F91BE
S1130730FF90089540E066E08BE60E946903089507
S11307400E9405012AE12A95F1F700C08FEF90E796
S113075022E0815090402040E1F700C000000E9458
S11307609A038FE19EE40197F1F700C0000021E0B5
S113077043E062E08BE60E94250323E043E062E06D
S11307808AE10E94250364E089E10E94F40221E0E9
S113079042E064E08BE10E94250320E042E064E053
S11307A08CE10E94250385B5856085BDEEE6F0E009
S11307B080818160808308954F925F926F927F92CF
S11307C08F929F92AF92BF92CF92DF92EF92FF925D
S11307D00F931F93CF93DF93CDB7DEB7A4970FB6D4
S11307E0F894DEBF0FBECDBF6D877E878F87988B51
S11307F0298B3A8B4B8B5C8BED8AFE8A0F8B188F7F
S113080020E030E0A901C601B5010E94720D8111FA
S113081017C020E030E0A9016FA978AD89AD9AAD89
S11308200E94720D81110CC020E030E0A9016BAD73
S11308307CAD8DAD9EAD0E94720D882309F41AC261
S1130840A6019501C601B5010E94FE0E2B013C01D3
S11308502FA938AD49AD5AADCA01B9010E94FE0EA7
S113086069837A838B839C839B01AC01C301B201AE
S11308700E94790C6D8F7E8F8F8F98A32BAD3CAD2A
S11308804DAD5EADCA01B9010E94FE0E698F7A8F2B
S11308908B8F9C8F29813A814B815C81C301B2018A
S11308A00E94790C2B013C01298D3A8D4B8D5C8D76
S11308B0C301B2010E94790C0E94710F2B013C010B
S11308C09B01AC01C601B5010E94770D69837A834F
S11308D08B839C83A30192016FA978AD89AD9AADF6
S11308E00E94770D6D837E838F839887A301920185
S11308F06BAD7CAD8DAD9EAD0E94770D69877A8717
S11309008B879C8760911C0170911D0180911E0151
S113091090911F012091140130911501409116010D
S1130920509117018090000190900101A090020164
S1130930B0900301409018015090190160901A0181
S113094070901B010E94FE0E6B017C01A3019201B9
S1130950C501B4010E94FE0E9B01AC01C701B601A2
S11309600E94780C698F7A8F8B8F9C8F6091000125
S113097070910101809102019091030120911C0169
S113098030911D0140911E0150911F01809018016A
S113099090901901A0901A01B0901B01409014018D
S11309A05090150160901601709017010E94FE0E80
S11309B06B017C01A3019201C501B4010E94FE0EEA
S11309C09B01AC01C701B6010E94790C6D8F7E8F2B
S11309D08F8F98A3609100017091010180910201B1
S11309E09091030120910001309101014091020195
S11309F0509103018090140190901501A09016016C
S1130A00B0901701409014015090150160901601A8
S1130A10709017010E94FE0E20E030E040E05FE39A
S1130A200E94780C6B017C01A3019201C501B40101
S1130A300E94FE0E9B01AC01C701B6010E94790C15
S1130A406B017C019B01AC016D817E818F81988556
S1130A500E94FE0E4B015C012D8D3E8D4F8D58A1E1
S1130A6069857A858B859C850E94FE0E9B01AC016D
S1130A70C501B4010E94780C69A37AA38BA39CA33B
S1130A80298D3A8D4B8D5C8D69857A858B859C8506
S1130A900E94FE0E4B015C01A701960169817A81D7
S1130AA08B819C810E94FE0E9B01AC01C501B401A7
S1130AB00E94780C2B013C012D8D3E8D4F8D58A149
S1130AC069817A818B819C810E94FE0E6B017C017D
S1130AD0298D3A8D4B8D5C8D6D817E818F819885BA
S1130AE00E94FE0E9B01AC01C701B6010E94780C66
S1130AF04B015C01C0901001D0901101E0901201F3
S1130B00F09013012DEC3CEC4CE45EE369A17AA176
S1130B108BA19CA10E94FE0E2AE83BE446E85CE31C
S1130B200E94FE0EA70196010E94790C60931001A9
S1130B30709311018093120190931301C0900C01E2
S1130B40D0900D01E0900E01F0900F012DEC3CECE3
S1130B504CE45EE3C301B2010E94FE0E2AE83BE4CA
S1130B6046E85CE30E94FE0EA70196010E94790C00
S1130B7060930C0170930D0180930E0190930F010B
S1130B80C0900801D0900901E0900A01F0900B0197
S1130B902DEC3CEC4CE45EE3C501B4010E94FE0E76
S1130BA02AE83BE446E85CE30E94FE0EA7019601B6
S1130BB00E94790C609308017093090180930A01E3
S1130BC090930B0120911001309111014091120179
S1130BD0509113016D857E858F8598890E94790CCB
S1130BE06D837E838F83988720910C0130910D0152
S1130BF040910E0150910F0169897A898B899C89F2
S1130C000E94790C6B017C0120910801309109014B
S1130C1040910A0150910B016D897E898F89988DCD
S1130C200E94790C69877A878B879C872D813E8106
S1130C304F81588569A17AA18BA19CA10E94790C4E
S1130C406D877E878F87988BA7019601C301B201B8
S1130C500E94790C698B7A8B8B8B9C8B29853A85C6
S1130C604B855C85C501B4010E94790C6D8B7E8B2C
S1130C708F8B988F2AE83BE446E05CE36D857E85A4
S1130C808F8598890E94FE0E6D837E838F8398875B
S1130C902AE83BE446E05CE369897A898B899C898C
S1130CA00E94FE0E69877A878B879C872AE83BE43B
S1130CB046E05CE36D897E898F89988D0E94FE0EE3
S1130CC06D877E878F87988B8091000190910101B9
S1130CD0A0910201B0910301898B9A8BAB8BBC8BE1
S1130CE080901C0190901D01A0901E01B0901F01E6
S1130CF08091180190911901A0911A01B0911B01E2
S1130D008D8B9E8BAF8BB88F409014015090150142
S1130D106090160170901701C0900001D0900101FD
S1130D20E0900201F0900301C501B40190582D81B7
S1130D303E814F8158850E94FE0E69837A838B839E
S1130D409C832D893E894F89588D69857A858B8549
S1130D509C850E94FE0E9B01AC0169817A818B8186
S1130D609C810E94780C69837A838B839C83A30182
S1130D7092016D857E858F8598890E94FE0E9B0168
S1130D80AC0169817A818B819C810E94780CA701D6
S1130D9096010E94790C6093000170930101809385
S1130DA0020190930301409014015090150160904A
S1130DB0160170901701C0901C01D0901D01E090A5
S1130DC01E01F0901F0129893A894B895C896D8144
S1130DD07E818F8198850E94FE0E69837A838B833E
S1130DE09C832D893E894F89588D6D857E858F859D
S1130DF098890E94FE0E9B01AC0169817A818B81E6
S1130E009C810E94790C69837A838B839C83A301E0
S1130E10920169857A858B859C850E94FE0E9B01D3
S1130E20AC0169817A818B819C810E94780CA70135
S1130E3096010E94790C60931C0170931D018093AC
S1130E401E0190931F014090140150901501609071
S1130E50160170901701C0901801D0901901E0900C
S1130E601A01F0901B0129893A894B895C896985AB
S1130E707A858B859C850E94FE0E69837A838B8399
S1130E809C83A50194016D857E858F8598890E9438
S1130E90FE0E9B01AC0169817A818B819C810E9449
S1130EA0780C69837A838B839C83A30192016D817F
S1130EB07E818F8198850E94FE0E9B01AC01698121
S1130EC07A818B819C810E94790CA70196010E94F2
S1130ED0790C609318017093190180931A0190930F
S1130EE01B01C0901401D0901501E0901601F09000
S1130EF0170129893A894B895C896D857E858F859F
S1130F0098890E94FE0E2B013C01A501940169857C
S1130F107A858B859C850E94FE0E9B01AC01C301E2
S1130F20B2010E94790C4B015C012D893E894F89E5
S1130F30588D6D817E818F8198850E94FE0E9B0164
S1130F40AC01C501B4010E94780CA70196010E946E
S1130F50790C60931401709315018093160190939A
S1130F601701C0900001D0900101E0900201F090BF
S1130F7003018090000190900101A0900201B090C3
S1130F80030180911C0190911D01A0911E01B0915B
S1130F901F018D839E83AF83B88780911C0190913C
S1130FA01D01A0911E01B0911F0189879A87AB870B
S1130FB0BC878091180190911901A0911A01B091F8
S1130FC01B018D879E87AF87B88B80911801909104
S1130FD01901A0911A01B0911B01898B9A8BAB8BDB
S1130FE0BC8B4090140150901501609016017090D4
S1130FF017018091140190911501A0911601B091EF
S113100017018D8B9E8BAF8BB88FA5019401C701FF
S1131010B6010E94FE0E69837A838B839C832985A3
S11310203A854B855C856D817E818F8198850E9490
S1131030FE0E9B01AC0169817A818B819C810E94A7
S1131040790C69837A838B839C8329893A894B89B8
S11310505C896D857E858F8598890E94FE0E9B0133
S1131060AC0169817A818B819C810E94790C6983AE
S11310707A838B839C83A5019401C701B6010E94E6
S1131080FE0E6B017C0129853A854B855C856D815B
S11310907E818F8198850E94FE0E9B01AC01C70161
S11310A0B6010E94790C6B017C0129893A894B892C
S11310B05C896D857E858F8598890E94FE0E9B01D3
S11310C0AC01C701B6010E94790C6B017C012D892A
S11310D03E894F89588DC301B2010E94FE0E9B01C7
S11310E0AC01C701B6010E94790C0E94710F6B011B
S11310F07C01609100017091010180910201909145
S11311000301A70196010E94770D6093000170937B
S11311100101809302019093030160911C0170917D
S11311201D0180911E0190911F01A70196010E944B
S1131130770D60931C0170931D0180931E019093A1
S11311401F01609118017091190180911A01909109
S11311501B01A70196010E94770D609318017093FB
S1131160190180931A0190931B01609114017091ED
S113117015018091160190911701A70196010E9413
S1131180770D609314017093150180931601909369
S11311901701A4960FB6F894DEBF0FBECDBFDF9142
S11311A0CF911F910F91FF90EF90DF90CF90BF9060
S11311B0AF909F908F907F906F905F904F90089525
S11311C04F925F926F927F92AF92BF92CF92DF92D3
S11311D0EF92FF920F931F93CF93DF93CDB7DEB7B8
S11311E02B970FB6F894DEBF0FBECDBF45E651E096
S11311F060E08AE30E94040380916501811105C0C7
S11312002AE12A95F1F700C0F1CF45E651E06EE0FE
S11312108BE30E947802E5E6F1E08081618102813E
S113122033813987148195819A87608471845284CB
S11312304384E484F58470E0782B072E000C880B3B
S1131240990B0E94EB0D20E030E040E858E30E9447
S1131250FE0E5B016C016F2D70E07E29635E7F4F93
S1131260072E000C880B990B0E94EB0D23E333E34C
S113127043E851E40E94770D24E33AEF4EE85CE33F
S11312800E94FE0E69837A838B839C83642D70E0B5
S1131290752969507109072E000C880B990B0E945F
S11312A0EB0D23E333E343E851E40E94770D24E399
S11312B03AEF4EE85CE30E94FE0E6D837E838F83DB
S11312C09887672D70E07629665D7F4F072E000CA6
S11312D0880B990B0E94EB0D23E333E343E851E4BD
S11312E00E94770D24E33AEF4EE85CE30E94FE0E81
S11312F02B013C012A85622F70E0712B072E000C14
S1131300880B990B0E94EB0D20E030E040E858E395
S11313100E94FE0E9F938F937F936F933985632F63
S113132070E0CB01902B9B878A87BC01990F880BB7
S1131330990B0E94EB0D20E030E040E858E30E9456
S1131340FE0E9F938F937F936F93E980FA800B81B6
S11313501C812D813E814F815885C301B2010E94B9
S1131360DC030FB6F894DEBF0FBECDBF2B960FB6CD
S1131370F894DEBF0FBECDBFDF91CF911F910F91C7
S1131380FF90EF90DF90CF90BF90AF907F906F90E1
S11313905F904F9008951F920F920FB60F921124F1
S11313A02F933F934F935F936F937F938F939F9369
S11313B0AF93BF93EF93FF930E94E008FF91EF91E7
S11313C0BF91AF919F918F917F916F915F914F9159
S11313D03F912F910F900FBE0F901F901895CF92B1
S11313E0DF92EF92FF92C0900001D0900101E09053
S11313F00201F0900301FC01C082D182E282F382F7
S113140080911C0190911D01A0911E01B0911F01BA
S1131410FB0180839183A283B3838091180190910F
S11314201901A0911A01B0911B01FA0180839183E3
S1131430A283B3838091140190911501A0911601A8
S1131440B0911701F90180839183A283B383FF9044
S1131450EF90DF90CF9008952F923F924F925F923A
S11314606F927F928F929F92AF92BF92CF92DF92B0
S1131470EF92FF920F931F93CF93DF93CDB7DEB715
S113148062970FB6F894DEBF0FBECDBF1C018B016F
S11314905A8B498B60910001709101018091020186
S11314A0909103018090000190900101A0900201AD
S11314B0B0900301C0901C01D0901D01E0901E016A
S11314C0F0901F0120911C0130911D0140911E01DB
S11314D050911F012D833E834F83588720911C0117
S11314E030911D0140911E0150911F0129833A83BF
S11314F04B835C83209118013091190140911A01AA
S113150050911B0129873A874B875C8740900001E3
S11315105090010160900201709003012091140128
S11315203091150140911601509117012D873E8786
S11315304F87588B9B01AC010E94790CA501940143
S11315400E94FE0E4B015C01A7019601C701B60182
S11315500E94790C2D813E814F8158850E94FE0E98
S11315609B01AC01C501B4010E94790C20E030E07C
S113157040E85FE30E94780C6B017C0129813A8189
S11315804B815C81CA01B9010E94790C29853A8595
S11315904B855C850E94FE0E4B015C01A301920108
S11315A0C301B2010E94790C2D853E854F8558896F
S11315B00E94FE0E9B01AC01C501B4010E94780C8F
S11315C0A70196010E94130DE989FA89608371834A
S11315D08283938360911C0170911D0180911E018F
S11315E090911F018090140190901501A090160114
S11315F0B0901701C0900001D0900101E090020169
S1131600F0900301409018015090190160901A0164
S113161070901B019B01AC010E94790CA5019401FF
S11316200E94FE0E4B015C01A7019601C701B601A1
S11316300E94790CA30192010E94FE0E9B01AC0151
S1131640C501B4010E94790C0E94E50CDC01CB01B8
S1131650B058F80180839183A283B3836091000121
S11316607091010180910201909103018090000129
S113167090900101A0900201B0900301C090140168
S1131680D0901501E0901601F090170120911401FB
S11316903091150140911601509117012D833E831D
S11316A04F835887209118013091190140911A01F4
S11316B050911B0129833A834B835C83209114014D
S11316C030911501409116015091170129873A87ED
S11316D04B875C87409000015090010160900201AB
S11316E07090030120911C0130911D0140911E0155
S11316F050911F012D873E874F87588B9B01AC016A
S11317000E94790CA50194010E94FE0E4B015C011C
S1131710A7019601C701B6010E94790C2D813E8173
S11317204F8158850E94FE0E9B01AC01C501B40196
S11317300E94790C20E030E040E85FE30E94780CDE
S11317406B017C0129813A814B815C81CA01B90119
S11317500E94790C29853A854B855C850E94FE0E92
S11317604B015C01A3019201C301B2010E94790CF7
S11317702D853E854F8558890E94FE0E9B01AC0144
S1131780C501B4010E94780CA70196010E94130DB3
S1131790F101608371838283938362960FB6F89418
S11317A0DEBF0FBECDBFDF91CF911F910F91FF9090
S11317B0EF90DF90CF90BF90AF909F908F907F90ED
S11317C06F905F904F903F902F9008951F920F92CB
S11317D00FB60F9211242F938F939F93EF93FF9340
S11317E08091C0002091C6008871E0912201EF5FD2
S11317F0EF7190912101E91739F0E0932201F0E0B3
S1131800EB5DFE4F208301C082E080932001FF91B5
S1131810EF919F918F912F910F900FBE0F901F907A
S113182018951F920F920FB60F9211248F939F93C6
S1131830EF93FF939091240180912301981769F00D
S1131840E0912301EF5FEF71E0932301F0E0EB5BA4
S1131850FE4F80818093C60005C0E1ECF0E08081FA
S11318608F7D8083FF91EF919F918F910F900FBE99
S11318700F901F901895109224011092230110923A
S1131880220110922101992324F422E02093C00024
S11318909F779093C5008093C40088E98093C1002A
S11318A086E08093C2000895209124012F5F2F7158
S11318B0909123012917E1F3E22FF0E0EB5BFE4F57
S11318C0808320932401E1ECF0E0808180628083B6
S11318D00895CF93DF93EC018881882331F021961A
S11318E00E94540C89918111FBCFDF91CF9108950F
S11318F05058BB27AA270E94900C0C94BC0E0E943F
S1131900AE0E38F00E94B50E20F039F49F3F19F462
S113191026F40C94700E0EF4E095E7FB0C946A0E1A
S1131920E92F0E94CD0E58F3BA1762077307840794
S1131930950720F079F4A6F50C94EF0E0EF4E095DB
S11319400B2EBA2FA02D0B01B90190010C01CA0175
S1131950A0011124FF27591B99F0593F50F4503E20
S113196068F11A16F040A22F232F342F4427585F12
S1131970F3CF469537952795A795F0405395C9F72A
S11319807EF41F16BA0B620B730B840BBAF09150E2
S1131990A1F0FF0FBB1F661F771F881FC2F70EC081
S11319A0BA0F621F731F841F48F487957795679554
S11319B0B795F7959E3F08F0B0CF9395880F08F040
S11319C09927EE0F9795879508959F939F77EEE358
S11319D089379E0728F4E8E6F0E00E949A0E0CC0CE
S11319E00E94260E9058A2EA2AED3FE049EC5FE3FC
S11319F00E94900C0E94BC0E0F9007FC9058089512
S1131A000E94AE0E60F080E891E009F49EEF0E941F
S1131A10B50E28F040E851E071F45EEF0CC00C9470
S1131A20700E0C94EF0EE92FE0780E94CD0E40F377
S1131A30092E052AB1F3261737074807590738F046
S1131A400E2E07F8E02569F0E025E0640AC0EF6394
S1131A5007F8009407FADB01B9019D01DC01CA0112
S1131A60AD01EF930E948E0D0E94BC0E0E94430DA7
S1131A705F91552339F02BED3FE049E450FD49ECEB
S1131A800C94790C0895DF93DD27B92FBF7740E8D4
S1131A905FE31616170648075B0718F4D92F0E9450
S1131AA0F60E9F938F937F936F930E94B10FECE791
S1131AB0F0E00E94730E0E94BC0E2F913F914F9153
S1131AC05F910E94110FDD2351F09058A2EA2AED94
S1131AD03FE049EC5FE3D0785D270E94900CDF91F2
S1131AE00C94BC0E0E94460E08F481E008950E94F6
S1131AF08B0D0C94BC0E0E94B50E58F00E94AE0ED5
S1131B0040F029F45F3F29F00C946A0E51110C94B3
S1131B10F00E0C94700E0E94CD0E68F39923B1F36D
S1131B20552391F3951B550BBB27AA2762177307FF
S1131B30840738F09F5F5F4F220F331F441FAA1F93
S1131B40A9F335D00E2E3AF0E0E832D0915050404F
S1131B50E695001CCAF72BD0FE2F29D0660F771FFD
S1131B60881FBB1F261737074807AB07B0E809F0E3
S1131B70BB0B802DBF01FF2793585F4F3AF09E3F68
S1131B80510578F00C946A0E0C94F00E5F3FE4F368
S1131B90983ED4F3869577956795B795F7959F5FAB
S1131BA0C9F7880F911D9695879597F90895E1E0F7
S1131BB0660F771F881FBB1F621773078407BA0756
S1131BC020F0621B730B840BBA0BEE1F88F7E095B1
S1131BD00895E89409C097FB3EF49095809570951C
S1131BE061957F4F8F4F9F4F9923A9F0F92F96E965
S1131BF0BB279395F695879577956795B795F111DA
S1131C00F8CFFAF4BB0F11F460FF1BC06F5F7F4F76
S1131C108F4F9F4F16C0882311F096E911C0772388
S1131C2021F09EE8872F762F05C0662371F096E891
S1131C30862F70E060E02AF09A95660F771F881F60
S1131C40DAF7880F9695879597F90895DF93CF93E0
S1131C501F930F938B01EC01E9EAF0E00E94730EED
S1131C600E94BC0E9801AE018B01EC0160E070E0B3
S1131C7080E89FE30E94780C0E94710F9801AE01E6
S1131C800F911F91CF91DF910C94110F990F0008C0
S1131C90550FAA0BE0E8FEEF16161706E807F9073A
S1131CA0C0F012161306E407F50798F0621B730BD5
S1131CB0840B950B39F40A2661F0232B242B252B56
S1131CC021F408950A2609F4A140A6958FEF811DF9
S1131CD0811D089597F99F6780E870E060E008959A
S1131CE09FEF80EC0895DF93CF931F930F93FF92A0
S1131CF0EF92DF927B018C01689406C0DA2EEF012B
S1131D000E94110FFE01E894A5912591359145910A
S1131D105591A6F3EF010E94900CFE019701A801D2
S1131D20DA9469F7DF90EF90FF900F911F91CF91B4
S1131D30DF9108959F938F937F936F93FF93EF9316
S1131D409B01AC010E94FE0EEF91FF910E94730E65
S1131D502F913F914F915F910C94FE0E00240A94B1
S1131D601616170618060906089500240A94121672
S1131D701306140605060895092E0394000C11F4A5
S1131D80882352F0BB0F40F4BF2B11F460FF04C052
S1131D906F5F7F4F8F4F9F4F089557FD9058440FAB
S1131DA0551F59F05F3F71F04795880F97FB991FB6
S1131DB061F09F3F79F08795089512161306140673
S1131DC0551FF2CF4695F1DF08C016161706180600
S1131DD0991FF1CF86957105610508940895E894DB
S1131DE0BB2766277727CB0197F908959B01AC01A0
S1131DF060E070E080E89FE30C94770D0E94110F7F
S1131E000C94BC0E0E94AE0E38F00E94B50E20F069
S1131E10952311F00C946A0E0C94700E11240C94FA
S1131E20F00E0E94CD0E70F3959FC1F3950F50E014
S1131E30551F629FF001729FBB27F00DB11D639F78
S1131E40AA27F00DB11DAA1F649F6627B00DA11D1E
S1131E50661F829F2227B00DA11D621F739FB00DC4
S1131E60A11D621F839FA00D611D221F749F332734
S1131E70A00D611D231F849F600D211D822F762FCD
S1131E806A2F11249F5750409AF0F1F088234AF0AA
S1131E90EE0FFF1FBB1F661F771F881F9150504016
S1131EA0A9F79E3F510580F00C946A0E0C94F00E35
S1131EB05F3FE4F3983ED4F3869577956795B7959D
S1131EC0F795E7959F5FC1F7FE2B880F911D9695B7
S1131ED0879597F9089519F416F40C94700E0C94E0
S1131EE0B50F0E94D50EB8F39923C9F3B6F39F57E3
S1131EF0550B87FF0E94C30F0024A0E640EA90011F
S1131F0080585695979528F4805C660F771F881F34
S1131F1020F026173707480730F4621B730B840B35
S1131F20202931294A2BA695179407942025312579
S1131F304A2758F7660F771F881F20F026173707A0
S1131F40480730F4620B730B840B200D311D411DC7
S1131F50A09581F7B901842F9158880F969587959C
S1131F6008959B01AC010C94FE0E9F3F31F09150FB
S1131F7020F4879577956795B795880F911D969569
S1131F80879597F9089591505040660F771F881FE1
S1131F90D2F70895EF920F931F93CF93DF93E80145
S1131FA047FD02C034E001C034E1042E000C550B9F
S1131FB057FF03C0519541955109E32E022F242F59
S1131FC0AE010E94EA0FCE01DF91CF911F910F91D4
S1131FD0EF900895A9E0B0E0E0EFFFE00C94221246
S1131FE06A01122FB02E2BE3201720F0FF24F39464
S1131FF0F00E02C02CE3F22E0F2D27E0AE014F5F4E
S11320005F4F0E944411BC014981842F8970813043
S113201031F0E1FC06C0E0FE06C090E205C09DE29E
S113202003C09BE201C090E05E2D507143FF3CC0B1
S1132030911102C083E001C084E0811718F4212FBC
S1132040281B01C020E051110BC0F601822F30E2A1
S1132050882319F031938150FBCFC20ED11C20E0AC
S1132060992329F0D6019C93F60131966F01C6019C
S11320700396E2FE0AC03EE4D6013C9341E4119685
S11320804C93119712963C9306C03EE6F6013083BA
S113209041E641833283FC01322F40E2332309F4C9
S11320A042C041933150FACF42FF44C0911102C063
S11320B083E001C084E0811718F4212F281B01C09C
S11320C020E051110BC0F601822F30E2882319F071
S11320D031938150FBCFC20ED11C20E0992329F00B
S11320E0D6019C93F60131966F01C6010396E2FE78
S11320F00BC039E4D6013C933EE411963C9311970E
S113210036E412963C9307C039E6F60130833EE686
S1132110318336E63283FC01322F40E2332319F057
S113212041933150FBCFFC01E20FF11D10828EEF81
S11321309FEFA6C021E030E0911102C020E030E022
S1132140161617061CF4FB01319602C0E1E0F0E01C
S11321502E0F3F1FBB2021F0EB2DF0E0319602C083
S1132160E0E0F0E02E0F3F1FE12FF0E02E173F07D5
S11321701CF4121B212F01C020E08E2D887159F40C
S1132180F601822F30E2882319F031938150FBCF7E
S1132190C20ED11C20E0992329F0D6019C93F601AC
S11321A031966F0151110BC0F601822F90E3882301
S11321B019F091938150FBCFC20ED11C20E00F2D5A
S11321C0060F9A81342F307144FF03C0913309F410
S11321D00150101624F4093018F008E001C001E0A1
S11321E0AB0177FF02C040E050E0FB01E41BF50BBC
S11321F0A1E0B0E0AC0FBD1FEA0FFB1F8EE2A82EDA
S11322004B01801A91080B2D10E0119501951109CD
S11322104F3FBFEF5B0721F4D601AC9211966D01DD
S1132220641775072CF08416950614F4818101C097
S113223080E3415051093196D60111967D01401732
S1132240510724F0D6018C936701E2CF6417750718
S113225039F4963320F4953319F4311101C081E334
S1132260F6018083F701822F90E2882319F091937D
S11322708150FBCFF701E20FF11D108280E090E066
S11322802996ECE00C943E12283008F027E033271E
S1132290DA01990F311D87FD916000966105710582
S11322A039F432602E5F3D9330E32A95E1F70895C7
S11322B09F3F30F080387105610509F03C5F3C5F59
S11322C03D93913008F08068911DDF93CF931F9365
S11322D00F93FF92EF92192F987F9695E92F969579
S11322E09695E90FFF27E45DFE4F99273327EE24E7
S11322F0FF24A701E70105900894079428F4360FFA
S1132300E71EF81E491F511D660F771F881F991F6E
S11323100694A1F70590079428F4E70EF81E491FC8
S1132320561FC11D770F881F991F661F0694A1F7BA
S11323300590079428F4F80E491F561FC71FD11D96
S1132340880F991F661F771F0694A1F705900794BD
S113235020F4490F561FC71FD81F990F661F771FF8
S1132360881F0694A9F784911095177041F0D695AB
S1132370C79557954795F794E7941A95C1F7E2EDF9
S1132380F0E06894159015913591659195910590BB
S11323907FE27395E118F10A430B560BC90BD00980
S11323A0C0F7E10CF11E431F561FC91FD01D7EF458
S11323B0703311F48A95E6CFE894015030F0080F99
S11323C00AF40027021708F4202F2395022F7A33EA
S11323D028F079E37D932A95E9F710C07D932A9537
S11323E089F6069497956795379517951794E1188C
S11323F0F10A430B560BC90BD00998F023957E9133
S113240073957A3308F070E37C932013B8F77E91C8
S113241070617D9330F0839571E37D9370E32A9529
S1132420E1F71124EF90FF900F911F91CF91DF916D
S1132430992787FD909508952F923F924F925F922E
S11324406F927F928F929F92AF92BF92CF92DF92C0
S1132450EF92FF920F931F93CF93DF93CDB7DEB725
S1132460CA1BDB0B0FB6F894DEBF0FBECDBF0994B9
S11324702A88398848885F846E847D848C849B8410
S1132480AA84B984C884DF80EE80FD800C811B811E
S1132490AA81B981CE0FD11D0FB6F894DEBF0FBE4D
S10D24A0CDBFED010895F894FFCFBD
S10B24AA0000803F0D0A000050
S9030000FC
