S0170000756172745F74657374737472696E672E737265639B
S11300000C9434000C9446000C9446000C94460066
S11300100C9446000C9446000C9446000C94460044
S11300200C9446000C9446000C9446000C94460034
S11300300C9446000C9446000C9446000C94460024
S11300400C9446000C9446000C9451000C947C00D3
S11300500C9446000C9446000C9446000C94460004
S11300600C9446000C94460011241FBECFEFD8E038
S1130070DEBFCDBF21E0A0E0B1E001C01D92A534F8
S1130080B207E1F70E9448000C94D4000C940000DD
S113009080E190E80E94A600789485E50E94BF0064
S11300A0FCCF1F920F920FB60F9211242F938F93B0
S11300B09F93EF93FF938091C0002091C6008871B5
S11300C0E0910201EF5FEF7190910101E91739F0BE
S11300D0E0930201F0E0EB5FFE4F208301C082E079
S11300E080930001FF91EF919F918F912F910F9039
S11300F00FBE0F901F9018951F920F920FB60F927C
S113010011248F939F93EF93FF9390910401809117
S11301100301981769F0E0910301EF5FEF71E09339
S11301200301F0E0EB5DFE4F80818093C60005C0C3
S1130130E1ECF0E080818F7D8083FF91EF919F91CE
S11301408F910F900FBE0F901F901895109204017D
S1130150109203011092020110920101992324F4D8
S113016022E02093C0009F779093C5008093C40041
S113017088E98093C10086E08093C20008952091AD
S113018004012F5F2F71909103012917E1F3E22FEE
S1130190F0E0EB5DFE4F808320930401E1ECF0E09E
S10F01A08081806280830895F894FFCF72
S9030000FC
